{
  "contractName": "CustodianWalletProxy",
  "abi": [
    {
      "inputs": [
        {
          "internalType": "address",
          "name": "_logic",
          "type": "address"
        },
        {
          "internalType": "address",
          "name": "_ochestrator",
          "type": "address"
        },
        {
          "internalType": "address",
          "name": "_factory",
          "type": "address"
        }
      ],
      "stateMutability": "nonpayable",
      "type": "constructor"
    },
    {
      "anonymous": false,
      "inputs": [
        {
          "indexed": false,
          "internalType": "uint256",
          "name": "orderId",
          "type": "uint256"
        }
      ],
      "name": "ClosedOrder",
      "type": "event"
    },
    {
      "anonymous": false,
      "inputs": [
        {
          "indexed": false,
          "internalType": "uint256",
          "name": "orderId",
          "type": "uint256"
        },
        {
          "indexed": true,
          "internalType": "address",
          "name": "seller",
          "type": "address"
        },
        {
          "indexed": true,
          "internalType": "address",
          "name": "buyer",
          "type": "address"
        },
        {
          "indexed": true,
          "internalType": "address",
          "name": "receiver",
          "type": "address"
        },
        {
          "indexed": false,
          "internalType": "uint256",
          "name": "amount",
          "type": "uint256"
        },
        {
          "indexed": false,
          "internalType": "uint256",
          "name": "rate",
          "type": "uint256"
        },
        {
          "indexed": false,
          "internalType": "uint256",
          "name": "fee",
          "type": "uint256"
        },
        {
          "indexed": false,
          "internalType": "uint8",
          "name": "orderType",
          "type": "uint8"
        }
      ],
      "name": "OpenOrder",
      "type": "event"
    },
    {
      "anonymous": false,
      "inputs": [
        {
          "indexed": false,
          "internalType": "uint256",
          "name": "orderId",
          "type": "uint256"
        }
      ],
      "name": "OrderFulfilled",
      "type": "event"
    },
    {
      "stateMutability": "payable",
      "type": "fallback"
    },
    {
      "inputs": [],
      "name": "factory",
      "outputs": [
        {
          "internalType": "address",
          "name": "",
          "type": "address"
        }
      ],
      "stateMutability": "view",
      "type": "function"
    },
    {
      "inputs": [],
      "name": "logic",
      "outputs": [
        {
          "internalType": "address",
          "name": "",
          "type": "address"
        }
      ],
      "stateMutability": "view",
      "type": "function"
    },
    {
      "inputs": [],
      "name": "ochestrator",
      "outputs": [
        {
          "internalType": "address",
          "name": "",
          "type": "address"
        }
      ],
      "stateMutability": "view",
      "type": "function"
    },
    {
      "inputs": [
        {
          "internalType": "address",
          "name": "",
          "type": "address"
        },
        {
          "internalType": "uint256",
          "name": "",
          "type": "uint256"
        }
      ],
      "name": "openOrders",
      "outputs": [
        {
          "internalType": "uint256",
          "name": "",
          "type": "uint256"
        }
      ],
      "stateMutability": "view",
      "type": "function"
    },
    {
      "inputs": [
        {
          "internalType": "uint256",
          "name": "",
          "type": "uint256"
        }
      ],
      "name": "orders",
      "outputs": [
        {
          "internalType": "address",
          "name": "seller",
          "type": "address"
        },
        {
          "internalType": "address",
          "name": "buyer",
          "type": "address"
        },
        {
          "internalType": "address",
          "name": "receiver",
          "type": "address"
        },
        {
          "internalType": "uint256",
          "name": "amount",
          "type": "uint256"
        },
        {
          "internalType": "uint256",
          "name": "rate",
          "type": "uint256"
        },
        {
          "internalType": "uint256",
          "name": "fee",
          "type": "uint256"
        },
        {
          "internalType": "uint8",
          "name": "orderType",
          "type": "uint8"
        },
        {
          "internalType": "uint256",
          "name": "startTime",
          "type": "uint256"
        },
        {
          "internalType": "uint256",
          "name": "fulfiledTime",
          "type": "uint256"
        }
      ],
      "stateMutability": "view",
      "type": "function"
    },
    {
      "stateMutability": "payable",
      "type": "receive"
    }
  ],
  "bytecode": "0x60c060405234801561001057600080fd5b5060405161095338038061095383398181016040528101906100329190610116565b8173ffffffffffffffffffffffffffffffffffffffff1660a08173ffffffffffffffffffffffffffffffffffffffff166c0100000000000000000000000002815250508273ffffffffffffffffffffffffffffffffffffffff1660808173ffffffffffffffffffffffffffffffffffffffff166c01000000000000000000000000028152505080600260006101000a81548173ffffffffffffffffffffffffffffffffffffffff021916908373ffffffffffffffffffffffffffffffffffffffff1602179055505050506101b7565b600081519050610110816101a0565b92915050565b60008060006060848603121561012f5761012e61019b565b5b600061013d86828701610101565b935050602061014e86828701610101565b925050604061015f86828701610101565b9150509250925092565b60006101748261017b565b9050919050565b600073ffffffffffffffffffffffffffffffffffffffff82169050919050565b600080fd5b6101a981610169565b81146101b457600080fd5b50565b6080516c01000000000000000000000000900460a0516c01000000000000000000000000900461074a61020960003960008181607401526102f10152600081816101040152610406015261074a6000f3fe60806040526004361061006b576000357c0100000000000000000000000000000000000000000000000000000000900480631e7cea80146101bb5780639c811d43146101f8578063a85c38ef14610223578063c45a015514610268578063d7dfa0dd1461029357610072565b3661007257005b7f000000000000000000000000000000000000000000000000000000000000000073ffffffffffffffffffffffffffffffffffffffff163373ffffffffffffffffffffffffffffffffffffffff1614610100576040517f08c379a00000000000000000000000000000000000000000000000000000000081526004016100f7906105da565b60405180910390fd5b60007f00000000000000000000000000000000000000000000000000000000000000009050600073ffffffffffffffffffffffffffffffffffffffff168173ffffffffffffffffffffffffffffffffffffffff161415610195576040517f08c379a000000000000000000000000000000000000000000000000000000000815260040161018c906105fa565b60405180910390fd5b3660008037600080366000845af43d6000803e80600081146101b6573d6000f35b3d6000fd5b3480156101c757600080fd5b506101e260048036038101906101dd9190610452565b6102be565b6040516101ef919061061a565b60405180910390f35b34801561020457600080fd5b5061020d6102ef565b60405161021a9190610532565b60405180910390f35b34801561022f57600080fd5b5061024a60048036038101906102459190610492565b610313565b60405161025f9998979695949392919061054d565b60405180910390f35b34801561027457600080fd5b5061027d6103de565b60405161028a9190610532565b60405180910390f35b34801561029f57600080fd5b506102a8610404565b6040516102b59190610532565b60405180910390f35b600160205281600052604060002081815481106102da57600080fd5b90600052602060002001600091509150505481565b7f000000000000000000000000000000000000000000000000000000000000000081565b6000818154811061032357600080fd5b90600052602060002090600902016000915090508060000160009054906101000a900473ffffffffffffffffffffffffffffffffffffffff16908060010160009054906101000a900473ffffffffffffffffffffffffffffffffffffffff16908060020160009054906101000a900473ffffffffffffffffffffffffffffffffffffffff16908060030154908060040154908060050154908060060160009054906101000a900460ff16908060070154908060080154905089565b600260009054906101000a900473ffffffffffffffffffffffffffffffffffffffff1681565b7f000000000000000000000000000000000000000000000000000000000000000081565b600081359050610437816106e6565b92915050565b60008135905061044c816106fd565b92915050565b600080604083850312156104695761046861068f565b5b600061047785828601610428565b92505060206104888582860161043d565b9150509250929050565b6000602082840312156104a8576104a761068f565b5b60006104b68482850161043d565b91505092915050565b6104c881610646565b82525050565b60006104db601183610635565b91506104e682610694565b602082019050919050565b60006104fe601683610635565b9150610509826106bd565b602082019050919050565b61051d81610678565b82525050565b61052c81610682565b82525050565b600060208201905061054760008301846104bf565b92915050565b600061012082019050610563600083018c6104bf565b610570602083018b6104bf565b61057d604083018a6104bf565b61058a6060830189610514565b6105976080830188610514565b6105a460a0830187610514565b6105b160c0830186610523565b6105be60e0830185610514565b6105cc610100830184610514565b9a9950505050505050505050565b600060208201905081810360008301526105f3816104ce565b9050919050565b60006020820190508181036000830152610613816104f1565b9050919050565b600060208201905061062f6000830184610514565b92915050565b600082825260208201905092915050565b600061065182610658565b9050919050565b600073ffffffffffffffffffffffffffffffffffffffff82169050919050565b6000819050919050565b600060ff82169050919050565b600080fd5b7f57503a206465706c6f796572206f6e6c79000000000000000000000000000000600082015250565b7f4c6f67696320636f6e7472616374206e6f742073657400000000000000000000600082015250565b6106ef81610646565b81146106fa57600080fd5b50565b61070681610678565b811461071157600080fd5b5056fea26469706673582212201f9f3ea4816765db486f5fe964f84c5dceda1a1f8baec299053f08962ad445fd64736f6c63430008060033",
  "immutableReferences": {
    "1079": [
      {
        "length": 32,
        "start": 260
      },
      {
        "length": 32,
        "start": 1030
      }
    ],
    "1082": [
      {
        "length": 32,
        "start": 116
      },
      {
        "length": 32,
        "start": 753
      }
    ]
  },
  "source": "// SPDX-License-Identifier: MIT\npragma solidity ^0.8.0;\n\nimport \"./Types.sol\";\n\ncontract CustodianWalletProxy is Types {\n  /// @notice address of factory\n  address public factory;\n\n  /// @notice address of wallet logic to\n  /// copy code from and call using delegatecall\n  address public immutable logic;\n\n  /// @notice address of escrow contract\n  address public immutable ochestrator;\n\n  /**\n   * @param _logic address of already deployed Custodian Wallet that can receive upgrade\n   * @param _ochestrator address of Escrow that can has sole control over all custodian wallets\n   */\n  constructor(\n    address _logic,\n    address _ochestrator,\n    address _factory\n  ) {\n    ochestrator = _ochestrator;\n    logic = _logic;\n    factory = _factory;\n  }\n\n  // prettier-ignore\n  /**\n   * @dev Forward any call to any function with any set of parameters to the logic contract\n   * without it needing to know anything in particular of the logic contracts interface.\n   *\n   * Note By using this proxy approach we are able to upgrade the logic contract at any time and allow\n   * already deployed proxy wallets benefit from new updates.\n   *\n   * Since msg.sender when calling Wallet Logic chnages to address(this) due to usage of delegate call\n   * we are unable to determinable set a modifier on functions in Wallet Logic to limit calls to Escrow.\n   * So we require that caller to all wallet proxies to call our wallet logic can only be escrow.\n   *\n   *\n   * Credit to https://github.com/OpenZeppelin/openzeppelin-contracts/blob/master/contracts/proxy/Proxy.sol\n   */\n  fallback() external payable {\n    // solhint-disable-line no-complex-fallback\n\n    require(msg.sender == ochestrator, \"WP: deployer only\");\n\n    address _impl = logic;\n\n    // This is never suppose to happen by any chance\n    if (_impl == address(0)) {\n      revert(\"Logic contract not set\");\n    }\n\n    assembly {\n      // solhint-disable-line no-inline-assembly\n      // Copy msg.data. We take full control of memory in this inline assembly\n      // block because it will not return to Solidity code. We overwrite the\n      // Solidity scratch pad at memory position 0.\n      calldatacopy(0, 0, calldatasize())\n\n      // Call the implementation.\n      // out and outsize are 0 because we don't know the size yet.\n      let result := delegatecall(gas(), _impl, 0, calldatasize(), 0, 0)\n\n      // Copy the returned data.\n      returndatacopy(0, 0, returndatasize())\n\n      switch result\n      // delegatecall returns 0 on error.\n      case 0 {\n        revert(0, returndatasize())\n      }\n      default {\n        return(0, returndatasize())\n      }\n    }\n  }\n\n  // ======== Receive =========\n\n  receive() external payable {} // solhint-disable-line no-empty-blocks\n}\n",
  "sourcePath": "/Users/drewhyte/Sites/SOLIDITY/piggyfi-contract-avax-poc/contracts/CustodianWalletProxy.sol",
  "compiler": {
    "name": "solc",
    "version": "0.8.6+commit.11564f7e.Emscripten.clang"
  },
  "schemaVersion": "3.4.6",
  "updatedAt": "2022-05-02T11:17:08.773Z",
  "devdoc": {
    "kind": "dev",
    "methods": {
      "constructor": {
        "params": {
          "_logic": "address of already deployed Custodian Wallet that can receive upgrade",
          "_ochestrator": "address of Escrow that can has sole control over all custodian wallets"
        }
      }
    },
    "version": 1
  },
  "userdoc": {
    "kind": "user",
    "methods": {
      "factory()": {
        "notice": "address of factory"
      },
      "logic()": {
        "notice": "address of wallet logic to copy code from and call using delegatecall"
      },
      "ochestrator()": {
        "notice": "address of escrow contract"
      }
    },
    "version": 1
  }
}