{
  "contractName": "CustodianWalletProxy",
  "abi": [
    {
      "inputs": [
        {
          "internalType": "address",
          "name": "_logic",
          "type": "address"
        },
        {
          "internalType": "address",
          "name": "_escrow",
          "type": "address"
        }
      ],
      "stateMutability": "nonpayable",
      "type": "constructor"
    },
    {
      "stateMutability": "payable",
      "type": "fallback"
    },
    {
      "inputs": [],
      "name": "escrow",
      "outputs": [
        {
          "internalType": "address",
          "name": "",
          "type": "address"
        }
      ],
      "stateMutability": "view",
      "type": "function"
    },
    {
      "inputs": [],
      "name": "logic",
      "outputs": [
        {
          "internalType": "address",
          "name": "",
          "type": "address"
        }
      ],
      "stateMutability": "view",
      "type": "function"
    },
    {
      "stateMutability": "payable",
      "type": "receive"
    }
  ],
  "bytecode": "0x60c060405234801561001057600080fd5b5060405161052738038061052783398181016040528101906100329190610104565b8073ffffffffffffffffffffffffffffffffffffffff1660a08173ffffffffffffffffffffffffffffffffffffffff16815250508173ffffffffffffffffffffffffffffffffffffffff1660808173ffffffffffffffffffffffffffffffffffffffff16815250505050610144565b600080fd5b600073ffffffffffffffffffffffffffffffffffffffff82169050919050565b60006100d1826100a6565b9050919050565b6100e1816100c6565b81146100ec57600080fd5b50565b6000815190506100fe816100d8565b92915050565b6000806040838503121561011b5761011a6100a1565b5b6000610129858286016100ef565b925050602061013a858286016100ef565b9150509250929050565b60805160a0516103b2610175600039600081816053015261021501526000818160e301526101f101526103b26000f3fe60806040526004361061004a576000357c010000000000000000000000000000000000000000000000000000000090048063d7dfa0dd14610199578063e2fdcc17146101c457610051565b3661005157005b7f000000000000000000000000000000000000000000000000000000000000000073ffffffffffffffffffffffffffffffffffffffff163373ffffffffffffffffffffffffffffffffffffffff16146100df576040517f08c379a00000000000000000000000000000000000000000000000000000000081526004016100d690610294565b60405180910390fd5b60007f00000000000000000000000000000000000000000000000000000000000000009050600073ffffffffffffffffffffffffffffffffffffffff168173ffffffffffffffffffffffffffffffffffffffff1603610173576040517f08c379a000000000000000000000000000000000000000000000000000000000815260040161016a90610300565b60405180910390fd5b3660008037600080366000845af43d6000803e8060008114610194573d6000f35b3d6000fd5b3480156101a557600080fd5b506101ae6101ef565b6040516101bb9190610361565b60405180910390f35b3480156101d057600080fd5b506101d9610213565b6040516101e69190610361565b60405180910390f35b7f000000000000000000000000000000000000000000000000000000000000000081565b7f000000000000000000000000000000000000000000000000000000000000000081565b600082825260208201905092915050565b7f57503a20657363726f77206f6e6c790000000000000000000000000000000000600082015250565b600061027e600f83610237565b915061028982610248565b602082019050919050565b600060208201905081810360008301526102ad81610271565b9050919050565b7f4c6f67696320636f6e7472616374206e6f742073657400000000000000000000600082015250565b60006102ea601683610237565b91506102f5826102b4565b602082019050919050565b60006020820190508181036000830152610319816102dd565b9050919050565b600073ffffffffffffffffffffffffffffffffffffffff82169050919050565b600061034b82610320565b9050919050565b61035b81610340565b82525050565b60006020820190506103766000830184610352565b9291505056fea26469706673582212209218f7c0e4b72b0eeb6edbad2fba587a4dc1d2c25c237d270ac0d6a23793867f64736f6c634300080d0033",
  "immutableReferences": {
    "722": [
      {
        "length": 32,
        "start": 227
      },
      {
        "length": 32,
        "start": 497
      }
    ],
    "725": [
      {
        "length": 32,
        "start": 83
      },
      {
        "length": 32,
        "start": 533
      }
    ]
  },
  "source": "// SPDX-License-Identifier: MIT\npragma solidity ^0.8.0;\n\ncontract CustodianWalletProxy {\n  /// @notice address of wallet logic to\n  /// copy code from and call using delegatecall\n  address public immutable logic;\n\n  /// @notice address of escrow contract\n  address public immutable escrow;\n\n  /**\n   * @param _logic address of already deployed Custodian Wallet that can receive upgrade\n   * @param _escrow address of Escrow that can has sole control over all custodian wallets\n   */\n  constructor(address _logic, address _escrow) {\n    escrow = _escrow;\n    logic = _logic;\n  }\n\n  // prettier-ignore\n  /**\n   * @dev Forward any call to any function with any set of parameters to the logic contract\n   * without it needing to know anything in particular of the logic contracts interface.\n   *\n   * Note By using this proxy approach we are able to upgrade the logic contract at any time and allow\n   * already deployed proxy wallets benefit from new updates.\n   *\n   * Since msg.sender when calling Wallet Logic chnages to address(this) due to usage of delegate call\n   * we are unable to determinable set a modifier on functions in Wallet Logic to limit calls to Escrow.\n   * So we require that caller to all wallet proxies to call our wallet logic can only be escrow.\n   *\n   *\n   * Credit to https://github.com/OpenZeppelin/openzeppelin-contracts/blob/master/contracts/proxy/Proxy.sol\n   */\n  fallback() external payable { // solhint-disable-line no-complex-fallback\n\n    require(msg.sender ==  escrow, \"WP: escrow only\");\n\n    address _impl = logic;\n\n    // This is never suppose to happen by any chance\n    if (_impl == address(0)) {\n      revert(\"Logic contract not set\");\n    }\n\n    assembly {  // solhint-disable-line no-inline-assembly\n            // Copy msg.data. We take full control of memory in this inline assembly\n            // block because it will not return to Solidity code. We overwrite the\n            // Solidity scratch pad at memory position 0.\n            calldatacopy(0, 0, calldatasize())\n\n            // Call the implementation.\n            // out and outsize are 0 because we don't know the size yet.\n            let result := delegatecall(gas(), _impl, 0, calldatasize(), 0, 0)\n\n            // Copy the returned data.\n            returndatacopy(0, 0, returndatasize())\n\n            switch result\n            // delegatecall returns 0 on error.\n            case 0 {\n                revert(0, returndatasize())\n            }\n            default {\n                return(0, returndatasize())\n            }\n        }\n  }\n\n  // ======== Receive =========\n\n  receive() external payable {} // solhint-disable-line no-empty-blocks\n}\n",
  "sourcePath": "/Users/drewhyte/Sites/SOLIDITY/piggyfi-contract-avax-poc/contracts/CustodianWalletProxy.sol",
  "compiler": {
    "name": "solc",
    "version": "0.8.13+commit.abaa5c0e.Emscripten.clang"
  },
  "schemaVersion": "3.4.6",
  "updatedAt": "2022-04-30T21:06:11.818Z",
  "devdoc": {
    "kind": "dev",
    "methods": {
      "constructor": {
        "params": {
          "_escrow": "address of Escrow that can has sole control over all custodian wallets",
          "_logic": "address of already deployed Custodian Wallet that can receive upgrade"
        }
      }
    },
    "version": 1
  },
  "userdoc": {
    "kind": "user",
    "methods": {
      "escrow()": {
        "notice": "address of escrow contract"
      },
      "logic()": {
        "notice": "address of wallet logic to copy code from and call using delegatecall"
      }
    },
    "version": 1
  }
}