{
  "contractName": "CustodianWalletLogic",
  "abi": [
    {
      "anonymous": false,
      "inputs": [
        {
          "indexed": false,
          "internalType": "uint256",
          "name": "orderId",
          "type": "uint256"
        }
      ],
      "name": "ClosedOrder",
      "type": "event"
    },
    {
      "anonymous": false,
      "inputs": [
        {
          "indexed": false,
          "internalType": "uint256",
          "name": "orderId",
          "type": "uint256"
        },
        {
          "indexed": true,
          "internalType": "address",
          "name": "seller",
          "type": "address"
        },
        {
          "indexed": true,
          "internalType": "address",
          "name": "buyer",
          "type": "address"
        },
        {
          "indexed": true,
          "internalType": "address",
          "name": "receiver",
          "type": "address"
        },
        {
          "indexed": false,
          "internalType": "uint256",
          "name": "amount",
          "type": "uint256"
        },
        {
          "indexed": false,
          "internalType": "uint256",
          "name": "rate",
          "type": "uint256"
        },
        {
          "indexed": false,
          "internalType": "uint256",
          "name": "fee",
          "type": "uint256"
        },
        {
          "indexed": false,
          "internalType": "uint8",
          "name": "orderType",
          "type": "uint8"
        }
      ],
      "name": "OpenOrder",
      "type": "event"
    },
    {
      "anonymous": false,
      "inputs": [
        {
          "indexed": false,
          "internalType": "uint256",
          "name": "orderId",
          "type": "uint256"
        }
      ],
      "name": "OrderFulfilled",
      "type": "event"
    },
    {
      "inputs": [],
      "name": "factory",
      "outputs": [
        {
          "internalType": "address",
          "name": "",
          "type": "address"
        }
      ],
      "stateMutability": "view",
      "type": "function"
    },
    {
      "inputs": [
        {
          "internalType": "address",
          "name": "",
          "type": "address"
        },
        {
          "internalType": "uint256",
          "name": "",
          "type": "uint256"
        }
      ],
      "name": "openOrders",
      "outputs": [
        {
          "internalType": "uint256",
          "name": "",
          "type": "uint256"
        }
      ],
      "stateMutability": "view",
      "type": "function"
    },
    {
      "inputs": [
        {
          "internalType": "uint256",
          "name": "",
          "type": "uint256"
        }
      ],
      "name": "orders",
      "outputs": [
        {
          "internalType": "address",
          "name": "seller",
          "type": "address"
        },
        {
          "internalType": "address",
          "name": "buyer",
          "type": "address"
        },
        {
          "internalType": "address",
          "name": "receiver",
          "type": "address"
        },
        {
          "internalType": "uint256",
          "name": "amount",
          "type": "uint256"
        },
        {
          "internalType": "uint256",
          "name": "rate",
          "type": "uint256"
        },
        {
          "internalType": "uint256",
          "name": "fee",
          "type": "uint256"
        },
        {
          "internalType": "uint8",
          "name": "orderType",
          "type": "uint8"
        },
        {
          "internalType": "uint256",
          "name": "startTime",
          "type": "uint256"
        },
        {
          "internalType": "uint256",
          "name": "fulfiledTime",
          "type": "uint256"
        }
      ],
      "stateMutability": "view",
      "type": "function"
    },
    {
      "inputs": [],
      "name": "getTotalBalance",
      "outputs": [
        {
          "internalType": "uint256",
          "name": "",
          "type": "uint256"
        }
      ],
      "stateMutability": "view",
      "type": "function"
    },
    {
      "inputs": [],
      "name": "getOpenOrders",
      "outputs": [
        {
          "internalType": "uint256[]",
          "name": "",
          "type": "uint256[]"
        }
      ],
      "stateMutability": "view",
      "type": "function"
    },
    {
      "inputs": [
        {
          "internalType": "address",
          "name": "_seller",
          "type": "address"
        },
        {
          "internalType": "address",
          "name": "_receiver",
          "type": "address"
        },
        {
          "internalType": "uint256",
          "name": "_amount",
          "type": "uint256"
        },
        {
          "internalType": "uint256",
          "name": "_rate",
          "type": "uint256"
        },
        {
          "internalType": "uint256",
          "name": "_fee",
          "type": "uint256"
        }
      ],
      "name": "newBuyOrder",
      "outputs": [
        {
          "internalType": "uint256",
          "name": "",
          "type": "uint256"
        }
      ],
      "stateMutability": "nonpayable",
      "type": "function"
    },
    {
      "inputs": [
        {
          "internalType": "address",
          "name": "_buyer",
          "type": "address"
        },
        {
          "internalType": "address",
          "name": "_receiver",
          "type": "address"
        },
        {
          "internalType": "uint256",
          "name": "_amount",
          "type": "uint256"
        },
        {
          "internalType": "uint256",
          "name": "_rate",
          "type": "uint256"
        },
        {
          "internalType": "uint256",
          "name": "_fee",
          "type": "uint256"
        }
      ],
      "name": "newSellOrder",
      "outputs": [
        {
          "internalType": "uint256",
          "name": "",
          "type": "uint256"
        }
      ],
      "stateMutability": "nonpayable",
      "type": "function"
    },
    {
      "inputs": [],
      "name": "availBalance",
      "outputs": [
        {
          "internalType": "uint256",
          "name": "",
          "type": "uint256"
        }
      ],
      "stateMutability": "view",
      "type": "function"
    },
    {
      "inputs": [
        {
          "internalType": "uint256",
          "name": "_orderId",
          "type": "uint256"
        }
      ],
      "name": "approveOrder",
      "outputs": [],
      "stateMutability": "nonpayable",
      "type": "function"
    }
  ],
  "bytecode": "0x608060405234801561001057600080fd5b506120c3806100206000396000f3fe608060405234801561001057600080fd5b50600436106100b0576000357c010000000000000000000000000000000000000000000000000000000090048063a85c38ef11610083578063a85c38ef14610163578063bd4b8a041461019b578063c45a0155146101b7578063dbe5bab5146101d5578063fdf61e68146101f3576100b0565b806312b58349146100b55780631971e03b146100d35780631e7cea80146101035780636282682a14610133575b600080fd5b6100bd610211565b6040516100ca9190611c55565b60405180910390f35b6100ed60048036038101906100e891906115e3565b610220565b6040516100fa9190611c55565b60405180910390f35b61011d6004803603810190610118919061165e565b610554565b60405161012a9190611c55565b60405180910390f35b61014d600480360381019061014891906115e3565b610585565b60405161015a9190611c55565b60405180910390f35b61017d60048036038101906101789190611742565b61064d565b60405161019299989796959493929190611a7d565b60405180910390f35b6101b560048036038101906101b09190611742565b610718565b005b6101bf6109db565b6040516101cc9190611984565b60405180910390f35b6101dd610a01565b6040516101ea9190611b33565b60405180910390f35b6101fb610ab9565b6040516102089190611c55565b60405180910390f35b600061021b610d0d565b905090565b60008061022b610e59565b73ffffffffffffffffffffffffffffffffffffffff166311eac8556040518163ffffffff167c010000000000000000000000000000000000000000000000000000000002815260040160206040518083038186803b15801561028c57600080fd5b505afa1580156102a0573d6000803e3d6000fd5b505050506040513d601f19601f820116820180604052508101906102c491906115b6565b9050600073ffffffffffffffffffffffffffffffffffffffff168773ffffffffffffffffffffffffffffffffffffffff161415610336576040517f08c379a000000000000000000000000000000000000000000000000000000000815260040161032d90611bd5565b60405180910390fd5b600073ffffffffffffffffffffffffffffffffffffffff168173ffffffffffffffffffffffffffffffffffffffff1614156103a6576040517f08c379a000000000000000000000000000000000000000000000000000000000815260040161039d90611c35565b60405180910390fd5b848173ffffffffffffffffffffffffffffffffffffffff166370a08231896040518263ffffffff167c01000000000000000000000000000000000000000000000000000000000281526004016103fc9190611984565b60206040518083038186803b15801561041457600080fd5b505afa158015610428573d6000803e3d6000fd5b505050506040513d601f19601f8201168201806040525081019061044c919061176f565b101561048d576040517f08c379a000000000000000000000000000000000000000000000000000000000815260040161048490611b95565b60405180910390fd5b610495610e59565b73ffffffffffffffffffffffffffffffffffffffff1663b1fab21c88308989898960006040518863ffffffff167c01000000000000000000000000000000000000000000000000000000000281526004016104f6979695949392919061199f565b602060405180830381600087803b15801561051057600080fd5b505af1158015610524573d6000803e3d6000fd5b505050506040513d601f19601f82011682018060405250810190610548919061176f565b91505095945050505050565b6001602052816000526040600020818154811061057057600080fd5b90600052602060002001600091509150505481565b600061058f610e59565b73ffffffffffffffffffffffffffffffffffffffff1663b1fab21c30888888888860016040518863ffffffff167c01000000000000000000000000000000000000000000000000000000000281526004016105f09796959493929190611a0e565b602060405180830381600087803b15801561060a57600080fd5b505af115801561061e573d6000803e3d6000fd5b505050506040513d601f19601f82011682018060405250810190610642919061176f565b905095945050505050565b6000818154811061065d57600080fd5b90600052602060002090600902016000915090508060000160009054906101000a900473ffffffffffffffffffffffffffffffffffffffff16908060010160009054906101000a900473ffffffffffffffffffffffffffffffffffffffff16908060020160009054906101000a900473ffffffffffffffffffffffffffffffffffffffff16908060030154908060040154908060050154908060060160009054906101000a900460ff16908060070154908060080154905089565b60003073ffffffffffffffffffffffffffffffffffffffff1663dbe5bab56040518163ffffffff167c010000000000000000000000000000000000000000000000000000000002815260040160006040518083038186803b15801561077c57600080fd5b505afa158015610790573d6000803e3d6000fd5b505050506040513d6000823e3d601f19601f820116820180604052508101906107b9919061169e565b905060006107c5610e59565b73ffffffffffffffffffffffffffffffffffffffff166342b50a7a8385815181106107f3576107f2611e61565b5b60200260200101516040518263ffffffff167c01000000000000000000000000000000000000000000000000000000000281526004016108339190611c55565b6101206040518083038186803b15801561084c57600080fd5b505afa158015610860573d6000803e3d6000fd5b505050506040513d601f19601f820116820180604052508101906108849190611714565b90503073ffffffffffffffffffffffffffffffffffffffff16816000015173ffffffffffffffffffffffffffffffffffffffff16146108f8576040517f08c379a00000000000000000000000000000000000000000000000000000000081526004016108ef90611b55565b60405180910390fd5b610900610e59565b73ffffffffffffffffffffffffffffffffffffffff1663b00f215c30856040518363ffffffff167c0100000000000000000000000000000000000000000000000000000000028152600401610956929190611b0a565b600060405180830381600087803b15801561097057600080fd5b505af1158015610984573d6000803e3d6000fd5b5050505061099f816040015182606001518360a00151610f1c565b7fd276fbc5e545783825cac5416bad154c47e39daebf44589255a65b4f56cf3e0e836040516109ce9190611c55565b60405180910390a1505050565b600260009054906101000a900473ffffffffffffffffffffffffffffffffffffffff1681565b6060610a0b610e59565b73ffffffffffffffffffffffffffffffffffffffff16636dee2032306040518263ffffffff167c0100000000000000000000000000000000000000000000000000000000028152600401610a5f9190611984565b60006040518083038186803b158015610a7757600080fd5b505afa158015610a8b573d6000803e3d6000fd5b505050506040513d6000823e3d601f19601f82011682018060405250810190610ab4919061169e565b905090565b6000803073ffffffffffffffffffffffffffffffffffffffff1663dbe5bab56040518163ffffffff167c010000000000000000000000000000000000000000000000000000000002815260040160006040518083038186803b158015610b1e57600080fd5b505afa158015610b32573d6000803e3d6000fd5b505050506040513d6000823e3d601f19601f82011682018060405250810190610b5b919061169e565b905060003073ffffffffffffffffffffffffffffffffffffffff166312b583496040518163ffffffff167c010000000000000000000000000000000000000000000000000000000002815260040160206040518083038186803b158015610bc157600080fd5b505afa158015610bd5573d6000803e3d6000fd5b505050506040513d601f19601f82011682018060405250810190610bf9919061176f565b905060005b60018351610c0c9190611d0b565b811015610d04576000610c1d610e59565b73ffffffffffffffffffffffffffffffffffffffff166342b50a7a858481518110610c4b57610c4a611e61565b5b60200260200101516040518263ffffffff167c0100000000000000000000000000000000000000000000000000000000028152600401610c8b9190611c55565b6101206040518083038186803b158015610ca457600080fd5b505afa158015610cb8573d6000803e3d6000fd5b505050506040513d601f19601f82011682018060405250810190610cdc9190611714565b9050806060015183610cee9190611d0b565b9250508080610cfc90611de9565b915050610bfe565b50809250505090565b6000610d17610e59565b73ffffffffffffffffffffffffffffffffffffffff166311eac8556040518163ffffffff167c010000000000000000000000000000000000000000000000000000000002815260040160206040518083038186803b158015610d7857600080fd5b505afa158015610d8c573d6000803e3d6000fd5b505050506040513d601f19601f82011682018060405250810190610db091906115b6565b73ffffffffffffffffffffffffffffffffffffffff166370a08231336040518263ffffffff167c0100000000000000000000000000000000000000000000000000000000028152600401610e049190611984565b60206040518083038186803b158015610e1c57600080fd5b505afa158015610e30573d6000803e3d6000fd5b505050506040513d601f19601f82011682018060405250810190610e54919061176f565b905090565b6000600260009054906101000a900473ffffffffffffffffffffffffffffffffffffffff1673ffffffffffffffffffffffffffffffffffffffff1663d226ae086040518163ffffffff167c010000000000000000000000000000000000000000000000000000000002815260040160206040518083038186803b158015610edf57600080fd5b505afa158015610ef3573d6000803e3d6000fd5b505050506040513d601f19601f82011682018060405250810190610f1791906115b6565b905090565b3073ffffffffffffffffffffffffffffffffffffffff168373ffffffffffffffffffffffffffffffffffffffff161415610f8b576040517f08c379a0000000000000000000000000000000000000000000000000000000008152600401610f8290611bf5565b60405180910390fd5b600073ffffffffffffffffffffffffffffffffffffffff168373ffffffffffffffffffffffffffffffffffffffff161415610ffb576040517f08c379a0000000000000000000000000000000000000000000000000000000008152600401610ff290611b75565b60405180910390fd5b6000821161103e576040517f08c379a000000000000000000000000000000000000000000000000000000000815260040161103590611c15565b60405180910390fd5b813073ffffffffffffffffffffffffffffffffffffffff1663fdf61e686040518163ffffffff167c010000000000000000000000000000000000000000000000000000000002815260040160206040518083038186803b1580156110a157600080fd5b505afa1580156110b5573d6000803e3d6000fd5b505050506040513d601f19601f820116820180604052508101906110d9919061176f565b101561111a576040517f08c379a000000000000000000000000000000000000000000000000000000000815260040161111190611bb5565b60405180910390fd5b611122610e59565b73ffffffffffffffffffffffffffffffffffffffff166311eac8556040518163ffffffff167c010000000000000000000000000000000000000000000000000000000002815260040160206040518083038186803b15801561118357600080fd5b505afa158015611197573d6000803e3d6000fd5b505050506040513d601f19601f820116820180604052508101906111bb91906115b6565b73ffffffffffffffffffffffffffffffffffffffff1663a9059cbb84846040518363ffffffff167c0100000000000000000000000000000000000000000000000000000000028152600401611211929190611b0a565b602060405180830381600087803b15801561122b57600080fd5b505af115801561123f573d6000803e3d6000fd5b505050506040513d601f19601f8201168201806040525081019061126391906116e7565b5061126c610e59565b73ffffffffffffffffffffffffffffffffffffffff166311eac8556040518163ffffffff167c010000000000000000000000000000000000000000000000000000000002815260040160206040518083038186803b1580156112cd57600080fd5b505afa1580156112e1573d6000803e3d6000fd5b505050506040513d601f19601f8201168201806040525081019061130591906115b6565b73ffffffffffffffffffffffffffffffffffffffff1663a9059cbb611328610e59565b836040518363ffffffff167c0100000000000000000000000000000000000000000000000000000000028152600401611362929190611b0a565b602060405180830381600087803b15801561137c57600080fd5b505af1158015611390573d6000803e3d6000fd5b505050506040513d601f19601f820116820180604052508101906113b491906116e7565b50505050565b60006113cd6113c884611c95565b611c70565b905080838252602082019050828560208602820111156113f0576113ef611ec9565b5b60005b858110156114205781611406888261158c565b8452602084019350602083019250506001810190506113f3565b5050509392505050565b60008135905061143981612031565b92915050565b60008151905061144e81612031565b92915050565b600082601f83011261146957611468611ebf565b5b81516114798482602086016113ba565b91505092915050565b60008151905061149181612048565b92915050565b600061012082840312156114ae576114ad611ec4565b5b6114b9610120611c70565b905060006114c98482850161143f565b60008301525060206114dd8482850161143f565b60208301525060406114f18482850161143f565b60408301525060606115058482850161158c565b60608301525060806115198482850161158c565b60808301525060a061152d8482850161158c565b60a08301525060c0611541848285016115a1565b60c08301525060e06115558482850161158c565b60e08301525061010061156a8482850161158c565b6101008301525092915050565b6000813590506115868161205f565b92915050565b60008151905061159b8161205f565b92915050565b6000815190506115b081612076565b92915050565b6000602082840312156115cc576115cb611ed3565b5b60006115da8482850161143f565b91505092915050565b600080600080600060a086880312156115ff576115fe611ed3565b5b600061160d8882890161142a565b955050602061161e8882890161142a565b945050604061162f88828901611577565b935050606061164088828901611577565b925050608061165188828901611577565b9150509295509295909350565b6000806040838503121561167557611674611ed3565b5b60006116838582860161142a565b925050602061169485828601611577565b9150509250929050565b6000602082840312156116b4576116b3611ed3565b5b600082015167ffffffffffffffff8111156116d2576116d1611ece565b5b6116de84828501611454565b91505092915050565b6000602082840312156116fd576116fc611ed3565b5b600061170b84828501611482565b91505092915050565b6000610120828403121561172b5761172a611ed3565b5b600061173984828501611497565b91505092915050565b60006020828403121561175857611757611ed3565b5b600061176684828501611577565b91505092915050565b60006020828403121561178557611784611ed3565b5b60006117938482850161158c565b91505092915050565b60006117a88383611957565b60208301905092915050565b6117bd81611d3f565b82525050565b60006117ce82611cd1565b6117d88185611ce9565b93506117e383611cc1565b8060005b838110156118145781516117fb888261179c565b975061180683611cdc565b9250506001810190506117e7565b5085935050505092915050565b61182a81611d94565b82525050565b61183981611da6565b82525050565b600061184c601283611cfa565b915061185782611ee9565b602082019050919050565b600061186f601783611cfa565b915061187a82611f12565b602082019050919050565b6000611892601183611cfa565b915061189d82611f3b565b602082019050919050565b60006118b5601783611cfa565b91506118c082611f64565b602082019050919050565b60006118d8601383611cfa565b91506118e382611f8d565b602082019050919050565b60006118fb601383611cfa565b915061190682611fb6565b602082019050919050565b600061191e601a83611cfa565b915061192982611fdf565b602082019050919050565b6000611941601783611cfa565b915061194c82612008565b602082019050919050565b61196081611d7d565b82525050565b61196f81611d7d565b82525050565b61197e81611d87565b82525050565b600060208201905061199960008301846117b4565b92915050565b600060e0820190506119b4600083018a6117b4565b6119c160208301896117b4565b6119ce60408301886117b4565b6119db6060830187611966565b6119e86080830186611966565b6119f560a0830185611966565b611a0260c0830184611821565b98975050505050505050565b600060e082019050611a23600083018a6117b4565b611a3060208301896117b4565b611a3d60408301886117b4565b611a4a6060830187611966565b611a576080830186611966565b611a6460a0830185611966565b611a7160c0830184611830565b98975050505050505050565b600061012082019050611a93600083018c6117b4565b611aa0602083018b6117b4565b611aad604083018a6117b4565b611aba6060830189611966565b611ac76080830188611966565b611ad460a0830187611966565b611ae160c0830186611975565b611aee60e0830185611966565b611afc610100830184611966565b9a9950505050505050505050565b6000604082019050611b1f60008301856117b4565b611b2c6020830184611966565b9392505050565b60006020820190508181036000830152611b4d81846117c3565b905092915050565b60006020820190508181036000830152611b6e8161183f565b9050919050565b60006020820190508181036000830152611b8e81611862565b9050919050565b60006020820190508181036000830152611bae81611885565b9050919050565b60006020820190508181036000830152611bce816118a8565b9050919050565b60006020820190508181036000830152611bee816118cb565b9050919050565b60006020820190508181036000830152611c0e816118ee565b9050919050565b60006020820190508181036000830152611c2e81611911565b9050919050565b60006020820190508181036000830152611c4e81611934565b9050919050565b6000602082019050611c6a6000830184611966565b92915050565b6000611c7a611c8b565b9050611c868282611db8565b919050565b6000604051905090565b600067ffffffffffffffff821115611cb057611caf611e90565b5b602082029050602081019050919050565b6000819050602082019050919050565b600081519050919050565b6000602082019050919050565b600082825260208201905092915050565b600082825260208201905092915050565b6000611d1682611d7d565b9150611d2183611d7d565b925082821015611d3457611d33611e32565b5b828203905092915050565b6000611d4a82611d5d565b9050919050565b60008115159050919050565b600073ffffffffffffffffffffffffffffffffffffffff82169050919050565b6000819050919050565b600060ff82169050919050565b6000611d9f82611d87565b9050919050565b6000611db182611d87565b9050919050565b611dc182611ed8565b810181811067ffffffffffffffff82111715611de057611ddf611e90565b5b80604052505050565b6000611df482611d7d565b91507fffffffffffffffffffffffffffffffffffffffffffffffffffffffffffffffff821415611e2757611e26611e32565b5b600182019050919050565b7f4e487b7100000000000000000000000000000000000000000000000000000000600052601160045260246000fd5b7f4e487b7100000000000000000000000000000000000000000000000000000000600052603260045260246000fd5b7f4e487b7100000000000000000000000000000000000000000000000000000000600052604160045260246000fd5b600080fd5b600080fd5b600080fd5b600080fd5b600080fd5b6000601f19601f8301169050919050565b7f43574c3a20696e76616c6964206f726465720000000000000000000000000000600082015250565b7f43574c3a20696e76616c696420746f2061646472657373000000000000000000600082015250565b7f433a206e6f7420656e6f75676820555344000000000000000000000000000000600082015250565b7f43574c3a20696e73756666696369656e742066756e6473000000000000000000600082015250565b7f43574c3a2073656c6c6572206e6f742073657400000000000000000000000000600082015250565b7f43574c3a2073656c6620666f7262696464656e00000000000000000000000000600082015250565b7f43574c3a20616d6f756e742063616e6e6f7420657175616c2030000000000000600082015250565b7f43574c3a207573646320746f6b656e206e6f7420736574000000000000000000600082015250565b61203a81611d3f565b811461204557600080fd5b50565b61205181611d51565b811461205c57600080fd5b50565b61206881611d7d565b811461207357600080fd5b50565b61207f81611d87565b811461208a57600080fd5b5056fea264697066735822122015ee5ead815420e60a518f4b7556467c7651a247381355c2b5f98aea00d1d7c264736f6c63430008060033",
  "immutableReferences": {},
  "source": "// SPDX-License-Identifier: MIT\npragma solidity ^0.8.0;\n\nimport \"./Types.sol\";\nimport \"./Factory.sol\";\n\ncontract CustodianWalletLogic is Types {\n  /// @notice address of factory\n  address public factory;\n\n  function getTotalBalance() external view returns (uint256) {\n    return _getUsdcBalance();\n  }\n\n  function getOpenOrders() external view returns (uint256[] memory) {\n    return _getEscrow().getOpenOrdersOf(address(this));\n  }\n\n  function _getUsdcBalance() internal view returns (uint256) {\n    return IERC20(_getEscrow().usdcToken()).balanceOf(msg.sender);\n  }\n\n  function _getEscrow() internal view returns (Escrow) {\n    return Escrow(Factory(factory).escrowContractAddress());\n  }\n\n  /// @notice when a customer buy USD with local fiat\n  function newBuyOrder(\n    address _seller,\n    address _receiver,\n    uint256 _amount,\n    uint256 _rate,\n    uint256 _fee\n  ) external returns (uint256) {\n    address usdcAddress = _getEscrow().usdcToken();\n\n    require(_seller != address(0x0), \"CWL: seller not set\");\n    require(usdcAddress != address(0x0), \"CWL: usdc token not set\");\n\n    require(\n      IERC20(usdcAddress).balanceOf(_seller) >= _amount,\n      \"C: not enough USD\"\n    );\n\n    return\n      _getEscrow().newOrder(\n        _seller, // vendor\n        address(this),\n        _receiver,\n        _amount,\n        _rate,\n        _fee,\n        0 // buy\n      );\n  }\n\n  /// @notice when a customer sell USD for local fiat to vendor\n  function newSellOrder(\n    address _buyer,\n    address _receiver,\n    uint256 _amount,\n    uint256 _rate,\n    uint256 _fee\n  ) external returns (uint256) {\n    return\n      _getEscrow().newOrder(\n        address(this),\n        _buyer, //vendor\n        _receiver,\n        _amount,\n        _rate,\n        _fee,\n        1 // sell\n      );\n  }\n\n  /// @notice returns operating balance of the seller custodian wallet (total USD balance - open orders against wallet)\n  function availBalance() external view returns (uint256) {\n    uint256[] memory openOrders = this.getOpenOrders();\n    uint256 balance = this.getTotalBalance();\n\n    for (uint256 queue = 0; queue < (openOrders.length - 1); queue++) {\n      Order memory order = _getEscrow().getOrderById(openOrders[queue]);\n      balance -= order.amount; // subtract amount of open order\n    }\n\n    return balance;\n  }\n\n  function approveOrder(uint256 _orderId) external {\n    uint256[] memory openOrders = this.getOpenOrders();\n\n    Order memory order = _getEscrow().getOrderById(openOrders[_orderId]);\n\n    require(order.seller == address(this), \"CWL: invalid order\");\n\n    _getEscrow().closeOpenOrder(address(this), _orderId);\n\n    _sendFunds(order.receiver, order.amount, order.fee);\n\n    emit OrderFulfilled(_orderId);\n  }\n\n  function _sendFunds(\n    address _to,\n    uint256 _amount,\n    uint256 _fee\n  ) internal {\n    require(_to != address(this), \"CWL: self forbidden\");\n    require(_to != address(0x0), \"CWL: invalid to address\");\n    require(_amount > 0, \"CWL: amount cannot equal 0\");\n    require(this.availBalance() >= _amount, \"CWL: insufficient funds\");\n\n    IERC20(_getEscrow().usdcToken()).transfer(_to, _amount);\n    IERC20(_getEscrow().usdcToken()).transfer(address(_getEscrow()), _fee);\n  }\n}\n",
  "sourcePath": "/Users/drewhyte/Sites/SOLIDITY/piggyfi-contract-avax-poc/contracts/CustodianWalletLogic.sol",
  "compiler": {
    "name": "solc",
    "version": "0.8.6+commit.11564f7e.Emscripten.clang"
  },
  "schemaVersion": "3.4.6",
  "updatedAt": "2022-05-02T15:16:25.217Z",
  "devdoc": {
    "kind": "dev",
    "methods": {},
    "version": 1
  },
  "userdoc": {
    "kind": "user",
    "methods": {
      "availBalance()": {
        "notice": "returns operating balance of the seller custodian wallet (total USD balance - open orders against wallet)"
      },
      "factory()": {
        "notice": "address of factory"
      },
      "newBuyOrder(address,address,uint256,uint256,uint256)": {
        "notice": "when a customer buy USD with local fiat"
      },
      "newSellOrder(address,address,uint256,uint256,uint256)": {
        "notice": "when a customer sell USD for local fiat to vendor"
      }
    },
    "version": 1
  }
}