{
  "contractName": "CustodianWalletLogic",
  "abi": [
    {
      "anonymous": false,
      "inputs": [
        {
          "indexed": false,
          "internalType": "uint256",
          "name": "orderId",
          "type": "uint256"
        },
        {
          "indexed": true,
          "internalType": "address",
          "name": "seller",
          "type": "address"
        },
        {
          "indexed": true,
          "internalType": "address",
          "name": "buyer",
          "type": "address"
        },
        {
          "indexed": false,
          "internalType": "uint256",
          "name": "amount",
          "type": "uint256"
        },
        {
          "indexed": false,
          "internalType": "uint256",
          "name": "rate",
          "type": "uint256"
        },
        {
          "indexed": false,
          "internalType": "uint256",
          "name": "fee",
          "type": "uint256"
        },
        {
          "indexed": false,
          "internalType": "uint8",
          "name": "orderType",
          "type": "uint8"
        }
      ],
      "name": "OpenOrder",
      "type": "event"
    },
    {
      "inputs": [],
      "name": "factory",
      "outputs": [
        {
          "internalType": "address",
          "name": "",
          "type": "address"
        }
      ],
      "stateMutability": "view",
      "type": "function"
    },
    {
      "inputs": [
        {
          "internalType": "address",
          "name": "",
          "type": "address"
        },
        {
          "internalType": "uint256",
          "name": "",
          "type": "uint256"
        }
      ],
      "name": "openOrders",
      "outputs": [
        {
          "internalType": "uint256",
          "name": "",
          "type": "uint256"
        }
      ],
      "stateMutability": "view",
      "type": "function"
    },
    {
      "inputs": [
        {
          "internalType": "uint256",
          "name": "",
          "type": "uint256"
        }
      ],
      "name": "orders",
      "outputs": [
        {
          "internalType": "address",
          "name": "vendor",
          "type": "address"
        },
        {
          "internalType": "address",
          "name": "customer",
          "type": "address"
        },
        {
          "internalType": "uint256",
          "name": "amount",
          "type": "uint256"
        },
        {
          "internalType": "uint256",
          "name": "rate",
          "type": "uint256"
        },
        {
          "internalType": "uint256",
          "name": "fee",
          "type": "uint256"
        },
        {
          "internalType": "uint8",
          "name": "orderType",
          "type": "uint8"
        },
        {
          "internalType": "uint256",
          "name": "startTime",
          "type": "uint256"
        },
        {
          "internalType": "uint256",
          "name": "fulfiledTime",
          "type": "uint256"
        }
      ],
      "stateMutability": "view",
      "type": "function"
    },
    {
      "inputs": [],
      "name": "getTotalBalance",
      "outputs": [
        {
          "internalType": "uint256",
          "name": "",
          "type": "uint256"
        }
      ],
      "stateMutability": "view",
      "type": "function"
    },
    {
      "inputs": [],
      "name": "getOpenOrders",
      "outputs": [
        {
          "internalType": "uint256[]",
          "name": "",
          "type": "uint256[]"
        }
      ],
      "stateMutability": "view",
      "type": "function"
    },
    {
      "inputs": [
        {
          "internalType": "address",
          "name": "_seller",
          "type": "address"
        },
        {
          "internalType": "uint256",
          "name": "_amount",
          "type": "uint256"
        },
        {
          "internalType": "uint256",
          "name": "_rate",
          "type": "uint256"
        },
        {
          "internalType": "uint256",
          "name": "_fee",
          "type": "uint256"
        }
      ],
      "name": "newBuyOrder",
      "outputs": [
        {
          "internalType": "uint256",
          "name": "",
          "type": "uint256"
        }
      ],
      "stateMutability": "nonpayable",
      "type": "function"
    },
    {
      "inputs": [
        {
          "internalType": "address",
          "name": "_buyer",
          "type": "address"
        },
        {
          "internalType": "uint256",
          "name": "_amount",
          "type": "uint256"
        },
        {
          "internalType": "uint256",
          "name": "_rate",
          "type": "uint256"
        },
        {
          "internalType": "uint256",
          "name": "_fee",
          "type": "uint256"
        }
      ],
      "name": "newSellOrder",
      "outputs": [
        {
          "internalType": "uint256",
          "name": "",
          "type": "uint256"
        }
      ],
      "stateMutability": "nonpayable",
      "type": "function"
    },
    {
      "inputs": [],
      "name": "availBalance",
      "outputs": [
        {
          "internalType": "uint256",
          "name": "",
          "type": "uint256"
        }
      ],
      "stateMutability": "view",
      "type": "function"
    },
    {
      "inputs": [
        {
          "internalType": "address",
          "name": "_to",
          "type": "address"
        },
        {
          "internalType": "uint256",
          "name": "_amount",
          "type": "uint256"
        }
      ],
      "name": "sendFunds",
      "outputs": [],
      "stateMutability": "nonpayable",
      "type": "function"
    }
  ],
  "bytecode": "0x608060405234801561001057600080fd5b50611810806100206000396000f3fe608060405234801561001057600080fd5b50600436106100b0576000357c010000000000000000000000000000000000000000000000000000000090048063a85c38ef11610083578063a85c38ef1461014f578063c45a015514610186578063dbe5bab5146101a4578063fbc1341d146101c2578063fdf61e68146101f2576100b0565b806312b58349146100b55780631e7cea80146100d357806357cbd683146101035780636f64234e14610133575b600080fd5b6100bd610210565b6040516100ca9190611446565b60405180910390f35b6100ed60048036038101906100e89190610f1f565b61021f565b6040516100fa9190611446565b60405180910390f35b61011d60048036038101906101189190610f5f565b610250565b60405161012a9190611446565b60405180910390f35b61014d60048036038101906101489190610f1f565b610315565b005b6101696004803603810190610164919061106a565b610661565b60405161017d9897969594939291906112fd565b60405180910390f35b61018e610706565b60405161019b9190611220565b60405180910390f35b6101ac61072c565b6040516101b991906113a4565b60405180910390f35b6101dc60048036038101906101d79190610f5f565b6107e4565b6040516101e99190611446565b60405180910390f35b6101fa6108a9565b6040516102079190611446565b60405180910390f35b600061021a610afd565b905090565b6001602052816000526040600020818154811061023b57600080fd5b90600052602060002001600091509150505481565b600061025a610c49565b73ffffffffffffffffffffffffffffffffffffffff166311981a50308787878760016040518763ffffffff167c01000000000000000000000000000000000000000000000000000000000281526004016102b99695949392919061129c565b602060405180830381600087803b1580156102d357600080fd5b505af11580156102e7573d6000803e3d6000fd5b505050506040513d601f19601f8201168201806040525081019061030b9190611097565b9050949350505050565b3073ffffffffffffffffffffffffffffffffffffffff168273ffffffffffffffffffffffffffffffffffffffff161415610384576040517f08c379a000000000000000000000000000000000000000000000000000000000815260040161037b90611406565b60405180910390fd5b600081116103c7576040517f08c379a00000000000000000000000000000000000000000000000000000000081526004016103be90611426565b60405180910390fd5b600073ffffffffffffffffffffffffffffffffffffffff168273ffffffffffffffffffffffffffffffffffffffff161415610437576040517f08c379a000000000000000000000000000000000000000000000000000000000815260040161042e906113c6565b60405180910390fd5b803073ffffffffffffffffffffffffffffffffffffffff1663fdf61e686040518163ffffffff167c010000000000000000000000000000000000000000000000000000000002815260040160206040518083038186803b15801561049a57600080fd5b505afa1580156104ae573d6000803e3d6000fd5b505050506040513d601f19601f820116820180604052508101906104d29190611097565b1015610513576040517f08c379a000000000000000000000000000000000000000000000000000000000815260040161050a906113e6565b60405180910390fd5b61051b610c49565b73ffffffffffffffffffffffffffffffffffffffff166311eac8556040518163ffffffff167c010000000000000000000000000000000000000000000000000000000002815260040160206040518083038186803b15801561057c57600080fd5b505afa158015610590573d6000803e3d6000fd5b505050506040513d601f19601f820116820180604052508101906105b49190610ef2565b73ffffffffffffffffffffffffffffffffffffffff1663a9059cbb83836040518363ffffffff167c010000000000000000000000000000000000000000000000000000000002815260040161060a92919061137b565b602060405180830381600087803b15801561062457600080fd5b505af1158015610638573d6000803e3d6000fd5b505050506040513d601f19601f8201168201806040525081019061065c919061100f565b505050565b6000818154811061067157600080fd5b90600052602060002090600802016000915090508060000160009054906101000a900473ffffffffffffffffffffffffffffffffffffffff16908060010160009054906101000a900473ffffffffffffffffffffffffffffffffffffffff16908060020154908060030154908060040154908060050160009054906101000a900460ff16908060060154908060070154905088565b600260009054906101000a900473ffffffffffffffffffffffffffffffffffffffff1681565b6060610736610c49565b73ffffffffffffffffffffffffffffffffffffffff16636dee2032306040518263ffffffff167c010000000000000000000000000000000000000000000000000000000002815260040161078a9190611220565b60006040518083038186803b1580156107a257600080fd5b505afa1580156107b6573d6000803e3d6000fd5b505050506040513d6000823e3d601f19601f820116820180604052508101906107df9190610fc6565b905090565b60006107ee610c49565b73ffffffffffffffffffffffffffffffffffffffff166311981a50863087878760006040518763ffffffff167c010000000000000000000000000000000000000000000000000000000002815260040161084d9695949392919061123b565b602060405180830381600087803b15801561086757600080fd5b505af115801561087b573d6000803e3d6000fd5b505050506040513d601f19601f8201168201806040525081019061089f9190611097565b9050949350505050565b6000803073ffffffffffffffffffffffffffffffffffffffff1663dbe5bab56040518163ffffffff167c010000000000000000000000000000000000000000000000000000000002815260040160006040518083038186803b15801561090e57600080fd5b505afa158015610922573d6000803e3d6000fd5b505050506040513d6000823e3d601f19601f8201168201806040525081019061094b9190610fc6565b905060003073ffffffffffffffffffffffffffffffffffffffff166312b583496040518163ffffffff167c010000000000000000000000000000000000000000000000000000000002815260040160206040518083038186803b1580156109b157600080fd5b505afa1580156109c5573d6000803e3d6000fd5b505050506040513d601f19601f820116820180604052508101906109e99190611097565b905060005b600183516109fc91906114fc565b811015610af4576000610a0d610c49565b73ffffffffffffffffffffffffffffffffffffffff16639d2166ae858481518110610a3b57610a3a611652565b5b60200260200101516040518263ffffffff167c0100000000000000000000000000000000000000000000000000000000028152600401610a7b9190611446565b6101006040518083038186803b158015610a9457600080fd5b505afa158015610aa8573d6000803e3d6000fd5b505050506040513d601f19601f82011682018060405250810190610acc919061103c565b9050806040015183610ade91906114fc565b9250508080610aec906115da565b9150506109ee565b50809250505090565b6000610b07610c49565b73ffffffffffffffffffffffffffffffffffffffff166311eac8556040518163ffffffff167c010000000000000000000000000000000000000000000000000000000002815260040160206040518083038186803b158015610b6857600080fd5b505afa158015610b7c573d6000803e3d6000fd5b505050506040513d601f19601f82011682018060405250810190610ba09190610ef2565b73ffffffffffffffffffffffffffffffffffffffff166370a08231336040518263ffffffff167c0100000000000000000000000000000000000000000000000000000000028152600401610bf49190611220565b60206040518083038186803b158015610c0c57600080fd5b505afa158015610c20573d6000803e3d6000fd5b505050506040513d601f19601f82011682018060405250810190610c449190611097565b905090565b6000600260009054906101000a900473ffffffffffffffffffffffffffffffffffffffff1673ffffffffffffffffffffffffffffffffffffffff1663d226ae086040518163ffffffff167c010000000000000000000000000000000000000000000000000000000002815260040160206040518083038186803b158015610ccf57600080fd5b505afa158015610ce3573d6000803e3d6000fd5b505050506040513d601f19601f82011682018060405250810190610d079190610ef2565b905090565b6000610d1f610d1a84611486565b611461565b90508083825260208201905082856020860282011115610d4257610d416116ba565b5b60005b85811015610d725781610d588882610ec8565b845260208401935060208301925050600181019050610d45565b5050509392505050565b600081359050610d8b8161177e565b92915050565b600081519050610da08161177e565b92915050565b600082601f830112610dbb57610dba6116b0565b5b8151610dcb848260208601610d0c565b91505092915050565b600081519050610de381611795565b92915050565b60006101008284031215610e0057610dff6116b5565b5b610e0b610100611461565b90506000610e1b84828501610d91565b6000830152506020610e2f84828501610d91565b6020830152506040610e4384828501610ec8565b6040830152506060610e5784828501610ec8565b6060830152506080610e6b84828501610ec8565b60808301525060a0610e7f84828501610edd565b60a08301525060c0610e9384828501610ec8565b60c08301525060e0610ea784828501610ec8565b60e08301525092915050565b600081359050610ec2816117ac565b92915050565b600081519050610ed7816117ac565b92915050565b600081519050610eec816117c3565b92915050565b600060208284031215610f0857610f076116c4565b5b6000610f1684828501610d91565b91505092915050565b60008060408385031215610f3657610f356116c4565b5b6000610f4485828601610d7c565b9250506020610f5585828601610eb3565b9150509250929050565b60008060008060808587031215610f7957610f786116c4565b5b6000610f8787828801610d7c565b9450506020610f9887828801610eb3565b9350506040610fa987828801610eb3565b9250506060610fba87828801610eb3565b91505092959194509250565b600060208284031215610fdc57610fdb6116c4565b5b600082015167ffffffffffffffff811115610ffa57610ff96116bf565b5b61100684828501610da6565b91505092915050565b600060208284031215611025576110246116c4565b5b600061103384828501610dd4565b91505092915050565b60006101008284031215611053576110526116c4565b5b600061106184828501610de9565b91505092915050565b6000602082840312156110805761107f6116c4565b5b600061108e84828501610eb3565b91505092915050565b6000602082840312156110ad576110ac6116c4565b5b60006110bb84828501610ec8565b91505092915050565b60006110d083836111f3565b60208301905092915050565b6110e581611530565b82525050565b60006110f6826114c2565b61110081856114da565b935061110b836114b2565b8060005b8381101561113c57815161112388826110c4565b975061112e836114cd565b92505060018101905061110f565b5085935050505092915050565b61115281611585565b82525050565b61116181611597565b82525050565b60006111746017836114eb565b915061117f826116da565b602082019050919050565b60006111976017836114eb565b91506111a282611703565b602082019050919050565b60006111ba6013836114eb565b91506111c58261172c565b602082019050919050565b60006111dd601a836114eb565b91506111e882611755565b602082019050919050565b6111fc8161156e565b82525050565b61120b8161156e565b82525050565b61121a81611578565b82525050565b600060208201905061123560008301846110dc565b92915050565b600060c08201905061125060008301896110dc565b61125d60208301886110dc565b61126a6040830187611202565b6112776060830186611202565b6112846080830185611202565b61129160a0830184611149565b979650505050505050565b600060c0820190506112b160008301896110dc565b6112be60208301886110dc565b6112cb6040830187611202565b6112d86060830186611202565b6112e56080830185611202565b6112f260a0830184611158565b979650505050505050565b600061010082019050611313600083018b6110dc565b611320602083018a6110dc565b61132d6040830189611202565b61133a6060830188611202565b6113476080830187611202565b61135460a0830186611211565b61136160c0830185611202565b61136e60e0830184611202565b9998505050505050505050565b600060408201905061139060008301856110dc565b61139d6020830184611202565b9392505050565b600060208201905081810360008301526113be81846110eb565b905092915050565b600060208201905081810360008301526113df81611167565b9050919050565b600060208201905081810360008301526113ff8161118a565b9050919050565b6000602082019050818103600083015261141f816111ad565b9050919050565b6000602082019050818103600083015261143f816111d0565b9050919050565b600060208201905061145b6000830184611202565b92915050565b600061146b61147c565b905061147782826115a9565b919050565b6000604051905090565b600067ffffffffffffffff8211156114a1576114a0611681565b5b602082029050602081019050919050565b6000819050602082019050919050565b600081519050919050565b6000602082019050919050565b600082825260208201905092915050565b600082825260208201905092915050565b60006115078261156e565b91506115128361156e565b92508282101561152557611524611623565b5b828203905092915050565b600061153b8261154e565b9050919050565b60008115159050919050565b600073ffffffffffffffffffffffffffffffffffffffff82169050919050565b6000819050919050565b600060ff82169050919050565b600061159082611578565b9050919050565b60006115a282611578565b9050919050565b6115b2826116c9565b810181811067ffffffffffffffff821117156115d1576115d0611681565b5b80604052505050565b60006115e58261156e565b91507fffffffffffffffffffffffffffffffffffffffffffffffffffffffffffffffff82141561161857611617611623565b5b600182019050919050565b7f4e487b7100000000000000000000000000000000000000000000000000000000600052601160045260246000fd5b7f4e487b7100000000000000000000000000000000000000000000000000000000600052603260045260246000fd5b7f4e487b7100000000000000000000000000000000000000000000000000000000600052604160045260246000fd5b600080fd5b600080fd5b600080fd5b600080fd5b600080fd5b6000601f19601f8301169050919050565b7f43574c3a20696e76616c696420746f2061646472657373000000000000000000600082015250565b7f43574c3a20696e73756666696369656e742066756e6473000000000000000000600082015250565b7f43574c3a2073656c6620666f7262696464656e00000000000000000000000000600082015250565b7f43574c3a20616d6f756e742063616e6e6f7420657175616c2030000000000000600082015250565b61178781611530565b811461179257600080fd5b50565b61179e81611542565b81146117a957600080fd5b50565b6117b58161156e565b81146117c057600080fd5b50565b6117cc81611578565b81146117d757600080fd5b5056fea26469706673582212204972f9d10efc14ad753b1af3cdd2402409211f4b787081b451624b53d6c34e2064736f6c63430008060033",
  "immutableReferences": {},
  "source": "// SPDX-License-Identifier: MIT\npragma solidity ^0.8.0;\n\nimport \"./Types.sol\";\nimport \"./Factory.sol\";\n\ncontract CustodianWalletLogic is Types {\n  /// @notice address of factory\n  address public factory;\n\n  function getTotalBalance() external view returns (uint256) {\n    return _getUsdcBalance();\n  }\n\n  function getOpenOrders() external view returns (uint256[] memory) {\n    return _getEscrow().getOpenOrdersOf(address(this));\n  }\n\n  function _getUsdcBalance() internal view returns (uint256) {\n    return IERC20(_getEscrow().usdcToken()).balanceOf(msg.sender);\n  }\n\n  function _getEscrow() internal view returns (Escrow) {\n    return Escrow(Factory(factory).escrowContractAddress());\n  }\n\n  /// @notice when a customer buy USD with local fiat\n  function newBuyOrder(\n    address _seller,\n    uint256 _amount,\n    uint256 _rate,\n    uint256 _fee\n  ) external returns (uint256) {\n    return\n      _getEscrow().newOrder(\n        _seller, // vendor\n        address(this),\n        _amount,\n        _rate,\n        _fee,\n        0 // buy\n      );\n  }\n\n  /// @notice when a customer sell USD for local fiat to vendor\n  function newSellOrder(\n    address _buyer,\n    uint256 _amount,\n    uint256 _rate,\n    uint256 _fee\n  ) external returns (uint256) {\n    return\n      _getEscrow().newOrder(\n        address(this),\n        _buyer, //vendor\n        _amount,\n        _rate,\n        _fee,\n        1 // sell\n      );\n  }\n\n  /// @notice returns operating balance of the seller custodian wallet (total USD balance - open orders against wallet)\n  function availBalance() external view returns (uint256) {\n    uint256[] memory openOrders = this.getOpenOrders();\n    uint256 balance = this.getTotalBalance();\n\n    for (uint256 queue = 0; queue < (openOrders.length - 1); queue++) {\n      Order memory order = _getEscrow().getOrderId(openOrders[queue]);\n      balance -= order.amount; // subtract amount of open order\n    }\n\n    return balance;\n  }\n\n  function sendFunds(address _to, uint256 _amount) external {\n    require(_to != address(this), \"CWL: self forbidden\");\n    require(_amount > 0, \"CWL: amount cannot equal 0\");\n    require(_to != address(0x0), \"CWL: invalid to address\");\n    require(this.availBalance() >= _amount, \"CWL: insufficient funds\");\n\n    IERC20(_getEscrow().usdcToken()).transfer(_to, _amount);\n  }\n}\n",
  "sourcePath": "/Users/drewhyte/Sites/SOLIDITY/piggyfi-contract-avax-poc/contracts/CustodianWalletLogic.sol",
  "compiler": {
    "name": "solc",
    "version": "0.8.6+commit.11564f7e.Emscripten.clang"
  },
  "schemaVersion": "3.4.6",
  "updatedAt": "2022-05-01T16:10:23.481Z",
  "devdoc": {
    "kind": "dev",
    "methods": {},
    "version": 1
  },
  "userdoc": {
    "kind": "user",
    "methods": {
      "availBalance()": {
        "notice": "returns operating balance of the seller custodian wallet (total USD balance - open orders against wallet)"
      },
      "factory()": {
        "notice": "address of factory"
      },
      "newBuyOrder(address,uint256,uint256,uint256)": {
        "notice": "when a customer buy USD with local fiat"
      },
      "newSellOrder(address,uint256,uint256,uint256)": {
        "notice": "when a customer sell USD for local fiat to vendor"
      }
    },
    "version": 1
  }
}