{
  "contractName": "CustodianWalletProxy",
  "abi": [
    {
      "inputs": [
        {
          "internalType": "address",
          "name": "_logic",
          "type": "address"
        },
        {
          "internalType": "address",
          "name": "_escrow",
          "type": "address"
        }
      ],
      "stateMutability": "nonpayable",
      "type": "constructor"
    },
    {
      "stateMutability": "payable",
      "type": "fallback"
    },
    {
      "inputs": [],
      "name": "escrow",
      "outputs": [
        {
          "internalType": "address",
          "name": "",
          "type": "address"
        }
      ],
      "stateMutability": "view",
      "type": "function"
    },
    {
      "inputs": [],
      "name": "logic",
      "outputs": [
        {
          "internalType": "address",
          "name": "",
          "type": "address"
        }
      ],
      "stateMutability": "view",
      "type": "function"
    },
    {
      "stateMutability": "payable",
      "type": "receive"
    }
  ],
  "bytecode": "0x60c060405234801561001057600080fd5b50604051610566380380610566833981810160405281019061003291906100d4565b8073ffffffffffffffffffffffffffffffffffffffff1660a08173ffffffffffffffffffffffffffffffffffffffff166c0100000000000000000000000002815250508173ffffffffffffffffffffffffffffffffffffffff1660808173ffffffffffffffffffffffffffffffffffffffff166c0100000000000000000000000002815250505050610162565b6000815190506100ce8161014b565b92915050565b600080604083850312156100eb576100ea610146565b5b60006100f9858286016100bf565b925050602061010a858286016100bf565b9150509250929050565b600061011f82610126565b9050919050565b600073ffffffffffffffffffffffffffffffffffffffff82169050919050565b600080fd5b61015481610114565b811461015f57600080fd5b50565b6080516c01000000000000000000000000900460a0516c0100000000000000000000000090046103b36101b3600039600081816053015261021601526000818160e301526101f201526103b36000f3fe60806040526004361061004a576000357c010000000000000000000000000000000000000000000000000000000090048063d7dfa0dd1461019a578063e2fdcc17146101c557610051565b3661005157005b7f000000000000000000000000000000000000000000000000000000000000000073ffffffffffffffffffffffffffffffffffffffff163373ffffffffffffffffffffffffffffffffffffffff16146100df576040517f08c379a00000000000000000000000000000000000000000000000000000000081526004016100d6906102c8565b60405180910390fd5b60007f00000000000000000000000000000000000000000000000000000000000000009050600073ffffffffffffffffffffffffffffffffffffffff168173ffffffffffffffffffffffffffffffffffffffff161415610174576040517f08c379a000000000000000000000000000000000000000000000000000000000815260040161016b906102a8565b60405180910390fd5b3660008037600080366000845af43d6000803e8060008114610195573d6000f35b3d6000fd5b3480156101a657600080fd5b506101af6101f0565b6040516101bc919061028d565b60405180910390f35b3480156101d157600080fd5b506101da610214565b6040516101e7919061028d565b60405180910390f35b7f000000000000000000000000000000000000000000000000000000000000000081565b7f000000000000000000000000000000000000000000000000000000000000000081565b610241816102f9565b82525050565b60006102546016836102e8565b915061025f8261032b565b602082019050919050565b6000610277600f836102e8565b915061028282610354565b602082019050919050565b60006020820190506102a26000830184610238565b92915050565b600060208201905081810360008301526102c181610247565b9050919050565b600060208201905081810360008301526102e18161026a565b9050919050565b600082825260208201905092915050565b60006103048261030b565b9050919050565b600073ffffffffffffffffffffffffffffffffffffffff82169050919050565b7f4c6f67696320636f6e7472616374206e6f742073657400000000000000000000600082015250565b7f57503a20657363726f77206f6e6c79000000000000000000000000000000000060008201525056fea2646970667358221220d6f04daae3dbb32e4ec588a1cb24aa52560e17f9ad215ff269ada4695341f23264736f6c63430008060033",
  "immutableReferences": {
    "951": [
      {
        "length": 32,
        "start": 227
      },
      {
        "length": 32,
        "start": 498
      }
    ],
    "954": [
      {
        "length": 32,
        "start": 83
      },
      {
        "length": 32,
        "start": 534
      }
    ]
  },
  "source": "// SPDX-License-Identifier: MIT\npragma solidity ^0.8.0;\n\ncontract CustodianWalletProxy {\n  /// @notice address of wallet logic to\n  /// copy code from and call using delegatecall\n  address public immutable logic;\n\n  /// @notice address of escrow contract\n  address public immutable escrow;\n\n  /**\n   * @param _logic address of already deployed Custodian Wallet that can receive upgrade\n   * @param _escrow address of Escrow that can has sole control over all custodian wallets\n   */\n  constructor(address _logic, address _escrow) {\n    escrow = _escrow;\n    logic = _logic;\n  }\n\n  // prettier-ignore\n  /**\n   * @dev Forward any call to any function with any set of parameters to the logic contract\n   * without it needing to know anything in particular of the logic contracts interface.\n   *\n   * Note By using this proxy approach we are able to upgrade the logic contract at any time and allow\n   * already deployed proxy wallets benefit from new updates.\n   *\n   * Since msg.sender when calling Wallet Logic chnages to address(this) due to usage of delegate call\n   * we are unable to determinable set a modifier on functions in Wallet Logic to limit calls to Escrow.\n   * So we require that caller to all wallet proxies to call our wallet logic can only be escrow.\n   *\n   *\n   * Credit to https://github.com/OpenZeppelin/openzeppelin-contracts/blob/master/contracts/proxy/Proxy.sol\n   */\n  fallback() external payable { // solhint-disable-line no-complex-fallback\n\n    require(msg.sender ==  escrow, \"WP: escrow only\");\n\n    address _impl = logic;\n\n    // This is never suppose to happen by any chance\n    if (_impl == address(0)) {\n      revert(\"Logic contract not set\");\n    }\n\n    assembly {  // solhint-disable-line no-inline-assembly\n            // Copy msg.data. We take full control of memory in this inline assembly\n            // block because it will not return to Solidity code. We overwrite the\n            // Solidity scratch pad at memory position 0.\n            calldatacopy(0, 0, calldatasize())\n\n            // Call the implementation.\n            // out and outsize are 0 because we don't know the size yet.\n            let result := delegatecall(gas(), _impl, 0, calldatasize(), 0, 0)\n\n            // Copy the returned data.\n            returndatacopy(0, 0, returndatasize())\n\n            switch result\n            // delegatecall returns 0 on error.\n            case 0 {\n                revert(0, returndatasize())\n            }\n            default {\n                return(0, returndatasize())\n            }\n        }\n  }\n\n  // ======== Receive =========\n\n  receive() external payable {} // solhint-disable-line no-empty-blocks\n}\n",
  "sourcePath": "/Users/drewhyte/Sites/SOLIDITY/piggyfi-contract-avax-poc/contracts/CustodianWalletProxy.sol",
  "compiler": {
    "name": "solc",
    "version": "0.8.6+commit.11564f7e.Emscripten.clang"
  },
  "schemaVersion": "3.4.6",
  "updatedAt": "2022-05-01T16:10:23.486Z",
  "devdoc": {
    "kind": "dev",
    "methods": {
      "constructor": {
        "params": {
          "_escrow": "address of Escrow that can has sole control over all custodian wallets",
          "_logic": "address of already deployed Custodian Wallet that can receive upgrade"
        }
      }
    },
    "version": 1
  },
  "userdoc": {
    "kind": "user",
    "methods": {
      "escrow()": {
        "notice": "address of escrow contract"
      },
      "logic()": {
        "notice": "address of wallet logic to copy code from and call using delegatecall"
      }
    },
    "version": 1
  }
}