{
  "contractName": "CustodianWalletProxy",
  "abi": [
    {
      "inputs": [
        {
          "internalType": "address",
          "name": "_logic",
          "type": "address"
        },
        {
          "internalType": "address",
          "name": "_ochestrator",
          "type": "address"
        },
        {
          "internalType": "address",
          "name": "_factory",
          "type": "address"
        }
      ],
      "stateMutability": "nonpayable",
      "type": "constructor"
    },
    {
      "stateMutability": "payable",
      "type": "fallback"
    },
    {
      "inputs": [],
      "name": "factory",
      "outputs": [
        {
          "internalType": "address",
          "name": "",
          "type": "address"
        }
      ],
      "stateMutability": "view",
      "type": "function"
    },
    {
      "inputs": [],
      "name": "logic",
      "outputs": [
        {
          "internalType": "address",
          "name": "",
          "type": "address"
        }
      ],
      "stateMutability": "view",
      "type": "function"
    },
    {
      "inputs": [],
      "name": "ochestrator",
      "outputs": [
        {
          "internalType": "address",
          "name": "",
          "type": "address"
        }
      ],
      "stateMutability": "view",
      "type": "function"
    },
    {
      "stateMutability": "payable",
      "type": "receive"
    }
  ],
  "bytecode": "0x60c060405234801561001057600080fd5b506040516105d53803806105d583398181016040528101906100329190610145565b806000806101000a81548173ffffffffffffffffffffffffffffffffffffffff021916908373ffffffffffffffffffffffffffffffffffffffff1602179055508273ffffffffffffffffffffffffffffffffffffffff1660808173ffffffffffffffffffffffffffffffffffffffff16815250508173ffffffffffffffffffffffffffffffffffffffff1660a08173ffffffffffffffffffffffffffffffffffffffff1681525050505050610198565b600080fd5b600073ffffffffffffffffffffffffffffffffffffffff82169050919050565b6000610112826100e7565b9050919050565b61012281610107565b811461012d57600080fd5b50565b60008151905061013f81610119565b92915050565b60008060006060848603121561015e5761015d6100e2565b5b600061016c86828701610130565b935050602061017d86828701610130565b925050604061018e86828701610130565b9150509250925092565b60805160a05161040c6101c960003960008181605e015261022701526000818160ee015261026f015261040c6000f3fe608060405260043610610055576000357c0100000000000000000000000000000000000000000000000000000000900480639c811d43146101a4578063c45a0155146101cf578063d7dfa0dd146101fa5761005c565b3661005c57005b7f000000000000000000000000000000000000000000000000000000000000000073ffffffffffffffffffffffffffffffffffffffff163373ffffffffffffffffffffffffffffffffffffffff16146100ea576040517f08c379a00000000000000000000000000000000000000000000000000000000081526004016100e1906102ee565b60405180910390fd5b60007f00000000000000000000000000000000000000000000000000000000000000009050600073ffffffffffffffffffffffffffffffffffffffff168173ffffffffffffffffffffffffffffffffffffffff160361017e576040517f08c379a00000000000000000000000000000000000000000000000000000000081526004016101759061035a565b60405180910390fd5b3660008037600080366000845af43d6000803e806000811461019f573d6000f35b3d6000fd5b3480156101b057600080fd5b506101b9610225565b6040516101c691906103bb565b60405180910390f35b3480156101db57600080fd5b506101e4610249565b6040516101f191906103bb565b60405180910390f35b34801561020657600080fd5b5061020f61026d565b60405161021c91906103bb565b60405180910390f35b7f000000000000000000000000000000000000000000000000000000000000000081565b60008054906101000a900473ffffffffffffffffffffffffffffffffffffffff1681565b7f000000000000000000000000000000000000000000000000000000000000000081565b600082825260208201905092915050565b7f57616c6c657450726f78793a204f6e6c79206f63686573747261746f72000000600082015250565b60006102d8601d83610291565b91506102e3826102a2565b602082019050919050565b60006020820190508181036000830152610307816102cb565b9050919050565b7f4c6f67696320636f6e7472616374206e6f742073657400000000000000000000600082015250565b6000610344601683610291565b915061034f8261030e565b602082019050919050565b6000602082019050818103600083015261037381610337565b9050919050565b600073ffffffffffffffffffffffffffffffffffffffff82169050919050565b60006103a58261037a565b9050919050565b6103b58161039a565b82525050565b60006020820190506103d060008301846103ac565b9291505056fea2646970667358221220405223e28e993231fbd15e529d9e9296af0420f0c92a0c663b69c0b8ae5569ff64736f6c634300080d0033",
  "immutableReferences": {
    "723": [
      {
        "length": 32,
        "start": 238
      },
      {
        "length": 32,
        "start": 623
      }
    ],
    "725": [
      {
        "length": 32,
        "start": 94
      },
      {
        "length": 32,
        "start": 551
      }
    ]
  },
  "source": "// SPDX-License-Identifier: MIT\npragma solidity ^0.8.0;\n\ncontract CustodianWalletProxy {\n  /// @notice address of factory\n  address public factory;\n  address public immutable logic;\n  address public immutable ochestrator;\n\n  /**\n   * @param _logic address of already deployed Custodian Wallet that can receive upgrade\n   * @param _ochestrator address of Ochestrator that can has sole control over all custodian wallets\n   */\n  constructor(\n    address _logic,\n    address _ochestrator,\n    address _factory\n  ) {\n    factory = _factory;\n    logic = _logic;\n    ochestrator = _ochestrator;\n  }\n\n  // prettier-ignore\n  /**\n   * @dev Forward any call to any function with any set of parameters to the logic contract\n   * without it needing to know anything in particular of the logic contracts interface.\n   *\n   * Note By using this proxy approach we are able to upgrade the logic contract at any time and allow\n   * already deployed proxy wallets benefit from new updates.\n   *\n   * Since msg.sender when calling Wallet Logic chnages to address(this) due to usage of delegate call\n   * we are unable to determinable set a modifier on functions in Wallet Logic to limit calls to Tickeo Factory.\n   * So we require that caller to all wallet proxies to call our wallet logic can only be factory.\n   *\n   *\n   * Credit to https://github.com/OpenZeppelin/openzeppelin-contracts/blob/master/contracts/proxy/Proxy.sol\n   */\n  fallback() external payable { // solhint-disable-line no-complex-fallback\n\n    require(msg.sender ==  ochestrator, \"WalletProxy: Only ochestrator\");\n\n    address _impl = logic;\n\n    // This is never suppose to happen by any chance\n    if (_impl == address(0)) {\n      revert(\"Logic contract not set\");\n    }\n\n    assembly {  // solhint-disable-line no-inline-assembly\n            // Copy msg.data. We take full control of memory in this inline assembly\n            // block because it will not return to Solidity code. We overwrite the\n            // Solidity scratch pad at memory position 0.\n            calldatacopy(0, 0, calldatasize())\n\n            // Call the implementation.\n            // out and outsize are 0 because we don't know the size yet.\n            let result := delegatecall(gas(), _impl, 0, calldatasize(), 0, 0)\n\n            // Copy the returned data.\n            returndatacopy(0, 0, returndatasize())\n\n            switch result\n            // delegatecall returns 0 on error.\n            case 0 {\n                revert(0, returndatasize())\n            }\n            default {\n                return(0, returndatasize())\n            }\n        }\n  }\n\n  // ======== Receive =========\n\n  receive() external payable {} // solhint-disable-line no-empty-blocks\n}\n",
  "sourcePath": "/Users/drewhyte/Sites/SOLIDITY/piggyfi-contract-avax-poc/contracts/CustodianWalletProxy.sol",
  "compiler": {
    "name": "solc",
    "version": "0.8.13+commit.abaa5c0e.Emscripten.clang"
  },
  "schemaVersion": "3.4.6",
  "updatedAt": "2022-04-29T14:53:08.930Z",
  "devdoc": {
    "kind": "dev",
    "methods": {
      "constructor": {
        "params": {
          "_logic": "address of already deployed Custodian Wallet that can receive upgrade",
          "_ochestrator": "address of Ochestrator that can has sole control over all custodian wallets"
        }
      }
    },
    "version": 1
  },
  "userdoc": {
    "kind": "user",
    "methods": {
      "factory()": {
        "notice": "address of factory"
      }
    },
    "version": 1
  }
}