{
  "contractName": "CustodianWalletLogic",
  "abi": [
    {
      "anonymous": false,
      "inputs": [
        {
          "indexed": false,
          "internalType": "uint256",
          "name": "orderId",
          "type": "uint256"
        },
        {
          "indexed": true,
          "internalType": "address",
          "name": "seller",
          "type": "address"
        },
        {
          "indexed": true,
          "internalType": "address",
          "name": "buyer",
          "type": "address"
        },
        {
          "indexed": false,
          "internalType": "uint256",
          "name": "amount",
          "type": "uint256"
        },
        {
          "indexed": false,
          "internalType": "uint256",
          "name": "rate",
          "type": "uint256"
        },
        {
          "indexed": false,
          "internalType": "uint256",
          "name": "fee",
          "type": "uint256"
        },
        {
          "indexed": false,
          "internalType": "uint8",
          "name": "orderType",
          "type": "uint8"
        }
      ],
      "name": "OpenOrder",
      "type": "event"
    },
    {
      "inputs": [],
      "name": "factory",
      "outputs": [
        {
          "internalType": "address",
          "name": "",
          "type": "address"
        }
      ],
      "stateMutability": "view",
      "type": "function"
    },
    {
      "inputs": [
        {
          "internalType": "address",
          "name": "",
          "type": "address"
        },
        {
          "internalType": "uint256",
          "name": "",
          "type": "uint256"
        }
      ],
      "name": "openOrders",
      "outputs": [
        {
          "internalType": "uint256",
          "name": "",
          "type": "uint256"
        }
      ],
      "stateMutability": "view",
      "type": "function"
    },
    {
      "inputs": [
        {
          "internalType": "uint256",
          "name": "",
          "type": "uint256"
        }
      ],
      "name": "orders",
      "outputs": [
        {
          "internalType": "address",
          "name": "vendor",
          "type": "address"
        },
        {
          "internalType": "address",
          "name": "customer",
          "type": "address"
        },
        {
          "internalType": "uint256",
          "name": "amount",
          "type": "uint256"
        },
        {
          "internalType": "uint256",
          "name": "rate",
          "type": "uint256"
        },
        {
          "internalType": "uint256",
          "name": "fee",
          "type": "uint256"
        },
        {
          "internalType": "uint8",
          "name": "orderType",
          "type": "uint8"
        },
        {
          "internalType": "uint256",
          "name": "startTime",
          "type": "uint256"
        },
        {
          "internalType": "uint256",
          "name": "fulfiledTime",
          "type": "uint256"
        }
      ],
      "stateMutability": "view",
      "type": "function"
    },
    {
      "inputs": [],
      "name": "getTotalBalance",
      "outputs": [
        {
          "internalType": "uint256",
          "name": "",
          "type": "uint256"
        }
      ],
      "stateMutability": "view",
      "type": "function"
    },
    {
      "inputs": [],
      "name": "getOpenOrders",
      "outputs": [
        {
          "internalType": "uint256[]",
          "name": "",
          "type": "uint256[]"
        }
      ],
      "stateMutability": "view",
      "type": "function"
    },
    {
      "inputs": [
        {
          "internalType": "address",
          "name": "_seller",
          "type": "address"
        },
        {
          "internalType": "uint256",
          "name": "_amount",
          "type": "uint256"
        },
        {
          "internalType": "uint256",
          "name": "_rate",
          "type": "uint256"
        },
        {
          "internalType": "uint256",
          "name": "_fee",
          "type": "uint256"
        }
      ],
      "name": "newBuyOrder",
      "outputs": [
        {
          "internalType": "uint256",
          "name": "",
          "type": "uint256"
        }
      ],
      "stateMutability": "nonpayable",
      "type": "function"
    },
    {
      "inputs": [
        {
          "internalType": "address",
          "name": "_buyer",
          "type": "address"
        },
        {
          "internalType": "uint256",
          "name": "_amount",
          "type": "uint256"
        },
        {
          "internalType": "uint256",
          "name": "_rate",
          "type": "uint256"
        },
        {
          "internalType": "uint256",
          "name": "_fee",
          "type": "uint256"
        }
      ],
      "name": "newSellOrder",
      "outputs": [
        {
          "internalType": "uint256",
          "name": "",
          "type": "uint256"
        }
      ],
      "stateMutability": "nonpayable",
      "type": "function"
    },
    {
      "inputs": [],
      "name": "availBalance",
      "outputs": [
        {
          "internalType": "uint256",
          "name": "",
          "type": "uint256"
        }
      ],
      "stateMutability": "view",
      "type": "function"
    }
  ],
  "bytecode": "0x608060405234801561001057600080fd5b5061124e806100206000396000f3fe608060405234801561001057600080fd5b50600436106100a5576000357c010000000000000000000000000000000000000000000000000000000090048063c45a015511610078578063c45a01551461015f578063dbe5bab51461017d578063fbc1341d1461019b578063fdf61e68146101cb576100a5565b806312b58349146100aa5780631e7cea80146100c857806357cbd683146100f8578063a85c38ef14610128575b600080fd5b6100b26101e9565b6040516100bf9190610f5c565b60405180910390f35b6100e260048036038101906100dd9190610b97565b6101f8565b6040516100ef9190610f5c565b60405180910390f35b610112600480360381019061010d9190610bd7565b610229565b60405161011f9190610f5c565b60405180910390f35b610142600480360381019061013d9190610cb5565b6102ee565b604051610156989796959493929190610ebc565b60405180910390f35b610167610393565b6040516101749190610ddf565b60405180910390f35b6101856103b9565b6040516101929190610f3a565b60405180910390f35b6101b560048036038101906101b09190610bd7565b610471565b6040516101c29190610f5c565b60405180910390f35b6101d3610536565b6040516101e09190610f5c565b60405180910390f35b60006101f361078a565b905090565b6001602052816000526040600020818154811061021457600080fd5b90600052602060002001600091509150505481565b60006102336108d6565b73ffffffffffffffffffffffffffffffffffffffff166311981a50308787878760016040518763ffffffff167c010000000000000000000000000000000000000000000000000000000002815260040161029296959493929190610e5b565b602060405180830381600087803b1580156102ac57600080fd5b505af11580156102c0573d6000803e3d6000fd5b505050506040513d601f19601f820116820180604052508101906102e49190610ce2565b9050949350505050565b600081815481106102fe57600080fd5b90600052602060002090600802016000915090508060000160009054906101000a900473ffffffffffffffffffffffffffffffffffffffff16908060010160009054906101000a900473ffffffffffffffffffffffffffffffffffffffff16908060020154908060030154908060040154908060050160009054906101000a900460ff16908060060154908060070154905088565b600260009054906101000a900473ffffffffffffffffffffffffffffffffffffffff1681565b60606103c36108d6565b73ffffffffffffffffffffffffffffffffffffffff16636dee2032306040518263ffffffff167c01000000000000000000000000000000000000000000000000000000000281526004016104179190610ddf565b60006040518083038186803b15801561042f57600080fd5b505afa158015610443573d6000803e3d6000fd5b505050506040513d6000823e3d601f19601f8201168201806040525081019061046c9190610c3e565b905090565b600061047b6108d6565b73ffffffffffffffffffffffffffffffffffffffff166311981a50863087878760006040518763ffffffff167c01000000000000000000000000000000000000000000000000000000000281526004016104da96959493929190610dfa565b602060405180830381600087803b1580156104f457600080fd5b505af1158015610508573d6000803e3d6000fd5b505050506040513d601f19601f8201168201806040525081019061052c9190610ce2565b9050949350505050565b6000803073ffffffffffffffffffffffffffffffffffffffff1663dbe5bab56040518163ffffffff167c010000000000000000000000000000000000000000000000000000000002815260040160006040518083038186803b15801561059b57600080fd5b505afa1580156105af573d6000803e3d6000fd5b505050506040513d6000823e3d601f19601f820116820180604052508101906105d89190610c3e565b905060003073ffffffffffffffffffffffffffffffffffffffff166312b583496040518163ffffffff167c010000000000000000000000000000000000000000000000000000000002815260040160206040518083038186803b15801561063e57600080fd5b505afa158015610652573d6000803e3d6000fd5b505050506040513d601f19601f820116820180604052508101906106769190610ce2565b905060005b600183516106899190611001565b81101561078157600061069a6108d6565b73ffffffffffffffffffffffffffffffffffffffff16639d2166ae8584815181106106c8576106c761114b565b5b60200260200101516040518263ffffffff167c01000000000000000000000000000000000000000000000000000000000281526004016107089190610f5c565b6101006040518083038186803b15801561072157600080fd5b505afa158015610735573d6000803e3d6000fd5b505050506040513d601f19601f820116820180604052508101906107599190610c87565b905080604001518361076b9190611001565b9250508080610779906110d3565b91505061067b565b50809250505090565b60006107946108d6565b73ffffffffffffffffffffffffffffffffffffffff166311eac8556040518163ffffffff167c010000000000000000000000000000000000000000000000000000000002815260040160206040518083038186803b1580156107f557600080fd5b505afa158015610809573d6000803e3d6000fd5b505050506040513d601f19601f8201168201806040525081019061082d9190610b6a565b73ffffffffffffffffffffffffffffffffffffffff166370a08231336040518263ffffffff167c01000000000000000000000000000000000000000000000000000000000281526004016108819190610ddf565b60206040518083038186803b15801561089957600080fd5b505afa1580156108ad573d6000803e3d6000fd5b505050506040513d601f19601f820116820180604052508101906108d19190610ce2565b905090565b6000600260009054906101000a900473ffffffffffffffffffffffffffffffffffffffff1673ffffffffffffffffffffffffffffffffffffffff1663d226ae086040518163ffffffff167c010000000000000000000000000000000000000000000000000000000002815260040160206040518083038186803b15801561095c57600080fd5b505afa158015610970573d6000803e3d6000fd5b505050506040513d601f19601f820116820180604052508101906109949190610b6a565b905090565b60006109ac6109a784610f9c565b610f77565b905080838252602082019050828560208602820111156109cf576109ce6111b3565b5b60005b858110156109ff57816109e58882610b40565b8452602084019350602083019250506001810190506109d2565b5050509392505050565b600081359050610a18816111d3565b92915050565b600081519050610a2d816111d3565b92915050565b600082601f830112610a4857610a476111a9565b5b8151610a58848260208601610999565b91505092915050565b60006101008284031215610a7857610a776111ae565b5b610a83610100610f77565b90506000610a9384828501610a1e565b6000830152506020610aa784828501610a1e565b6020830152506040610abb84828501610b40565b6040830152506060610acf84828501610b40565b6060830152506080610ae384828501610b40565b60808301525060a0610af784828501610b55565b60a08301525060c0610b0b84828501610b40565b60c08301525060e0610b1f84828501610b40565b60e08301525092915050565b600081359050610b3a816111ea565b92915050565b600081519050610b4f816111ea565b92915050565b600081519050610b6481611201565b92915050565b600060208284031215610b8057610b7f6111bd565b5b6000610b8e84828501610a1e565b91505092915050565b60008060408385031215610bae57610bad6111bd565b5b6000610bbc85828601610a09565b9250506020610bcd85828601610b2b565b9150509250929050565b60008060008060808587031215610bf157610bf06111bd565b5b6000610bff87828801610a09565b9450506020610c1087828801610b2b565b9350506040610c2187828801610b2b565b9250506060610c3287828801610b2b565b91505092959194509250565b600060208284031215610c5457610c536111bd565b5b600082015167ffffffffffffffff811115610c7257610c716111b8565b5b610c7e84828501610a33565b91505092915050565b60006101008284031215610c9e57610c9d6111bd565b5b6000610cac84828501610a61565b91505092915050565b600060208284031215610ccb57610cca6111bd565b5b6000610cd984828501610b2b565b91505092915050565b600060208284031215610cf857610cf76111bd565b5b6000610d0684828501610b40565b91505092915050565b6000610d1b8383610db2565b60208301905092915050565b610d3081611035565b82525050565b6000610d4182610fd8565b610d4b8185610ff0565b9350610d5683610fc8565b8060005b83811015610d87578151610d6e8882610d0f565b9750610d7983610fe3565b925050600181019050610d5a565b5085935050505092915050565b610d9d8161107e565b82525050565b610dac81611090565b82525050565b610dbb81611067565b82525050565b610dca81611067565b82525050565b610dd981611071565b82525050565b6000602082019050610df46000830184610d27565b92915050565b600060c082019050610e0f6000830189610d27565b610e1c6020830188610d27565b610e296040830187610dc1565b610e366060830186610dc1565b610e436080830185610dc1565b610e5060a0830184610d94565b979650505050505050565b600060c082019050610e706000830189610d27565b610e7d6020830188610d27565b610e8a6040830187610dc1565b610e976060830186610dc1565b610ea46080830185610dc1565b610eb160a0830184610da3565b979650505050505050565b600061010082019050610ed2600083018b610d27565b610edf602083018a610d27565b610eec6040830189610dc1565b610ef96060830188610dc1565b610f066080830187610dc1565b610f1360a0830186610dd0565b610f2060c0830185610dc1565b610f2d60e0830184610dc1565b9998505050505050505050565b60006020820190508181036000830152610f548184610d36565b905092915050565b6000602082019050610f716000830184610dc1565b92915050565b6000610f81610f92565b9050610f8d82826110a2565b919050565b6000604051905090565b600067ffffffffffffffff821115610fb757610fb661117a565b5b602082029050602081019050919050565b6000819050602082019050919050565b600081519050919050565b6000602082019050919050565b600082825260208201905092915050565b600061100c82611067565b915061101783611067565b92508282101561102a5761102961111c565b5b828203905092915050565b600061104082611047565b9050919050565b600073ffffffffffffffffffffffffffffffffffffffff82169050919050565b6000819050919050565b600060ff82169050919050565b600061108982611071565b9050919050565b600061109b82611071565b9050919050565b6110ab826111c2565b810181811067ffffffffffffffff821117156110ca576110c961117a565b5b80604052505050565b60006110de82611067565b91507fffffffffffffffffffffffffffffffffffffffffffffffffffffffffffffffff8214156111115761111061111c565b5b600182019050919050565b7f4e487b7100000000000000000000000000000000000000000000000000000000600052601160045260246000fd5b7f4e487b7100000000000000000000000000000000000000000000000000000000600052603260045260246000fd5b7f4e487b7100000000000000000000000000000000000000000000000000000000600052604160045260246000fd5b600080fd5b600080fd5b600080fd5b600080fd5b600080fd5b6000601f19601f8301169050919050565b6111dc81611035565b81146111e757600080fd5b50565b6111f381611067565b81146111fe57600080fd5b50565b61120a81611071565b811461121557600080fd5b5056fea2646970667358221220e6115c2aff7f4d899a27b9edca82e4bed3f972e05cd21c4238a807ba0e2a2e6264736f6c63430008060033",
  "immutableReferences": {},
  "source": "// SPDX-License-Identifier: MIT\npragma solidity ^0.8.0;\n\nimport \"./Types.sol\";\nimport \"./Factory.sol\";\n\ncontract CustodianWalletLogic is Types {\n  /// @notice address of factory\n  address public factory;\n\n  function getTotalBalance() external view returns (uint256) {\n    return _getUsdcBalance();\n  }\n\n  function getOpenOrders() external view returns (uint256[] memory) {\n    return _getEscrow().getOpenOrdersOf(address(this));\n  }\n\n  function _getUsdcBalance() internal view returns (uint256) {\n    return IERC20(_getEscrow().usdcToken()).balanceOf(msg.sender);\n  }\n\n  function _getEscrow() internal view returns (Escrow) {\n    return Escrow(Factory(factory).escrowContractAddress());\n  }\n\n  /// @notice when a customer buy USD with local fiat\n  function newBuyOrder(\n    address _seller,\n    uint256 _amount,\n    uint256 _rate,\n    uint256 _fee\n  ) external returns (uint256) {\n    return\n      _getEscrow().newOrder(\n        _seller, // vendor\n        address(this),\n        _amount,\n        _rate,\n        _fee,\n        0 // buy\n      );\n  }\n\n  /// @notice when a customer sell USD for local fiat to vendor\n  function newSellOrder(\n    address _buyer,\n    uint256 _amount,\n    uint256 _rate,\n    uint256 _fee\n  ) external returns (uint256) {\n    return\n      _getEscrow().newOrder(\n        address(this),\n        _buyer, //vendor\n        _amount,\n        _rate,\n        _fee,\n        1 // sell\n      );\n  }\n\n  /// @notice returns operating balance of the seller custodian wallet (total USD balance - open orders against wallet)\n  function availBalance() external view returns (uint256) {\n    uint256[] memory openOrders = this.getOpenOrders();\n    uint256 balance = this.getTotalBalance();\n\n    for (uint256 queue = 0; queue < (openOrders.length - 1); queue++) {\n      Order memory order = _getEscrow().getOrderId(openOrders[queue]);\n      balance -= order.amount; // subtract amount of open order\n    }\n\n    return balance;\n  }\n}\n",
  "sourcePath": "/Users/drewhyte/Sites/SOLIDITY/piggyfi-contract-avax-poc/contracts/CustodianWalletLogic.sol",
  "compiler": {
    "name": "solc",
    "version": "0.8.6+commit.11564f7e.Emscripten.clang"
  },
  "schemaVersion": "3.4.6",
  "updatedAt": "2022-05-01T15:42:48.371Z",
  "devdoc": {
    "kind": "dev",
    "methods": {},
    "version": 1
  },
  "userdoc": {
    "kind": "user",
    "methods": {
      "availBalance()": {
        "notice": "returns operating balance of the seller custodian wallet (total USD balance - open orders against wallet)"
      },
      "factory()": {
        "notice": "address of factory"
      },
      "newBuyOrder(address,uint256,uint256,uint256)": {
        "notice": "when a customer buy USD with local fiat"
      },
      "newSellOrder(address,uint256,uint256,uint256)": {
        "notice": "when a customer sell USD for local fiat to vendor"
      }
    },
    "version": 1
  }
}