{
  "contractName": "Escrow",
  "abi": [
    {
      "inputs": [
        {
          "internalType": "address",
          "name": "_ochestrator",
          "type": "address"
        }
      ],
      "stateMutability": "nonpayable",
      "type": "constructor"
    },
    {
      "anonymous": false,
      "inputs": [
        {
          "indexed": false,
          "internalType": "uint256",
          "name": "orderId",
          "type": "uint256"
        },
        {
          "indexed": true,
          "internalType": "address",
          "name": "seller",
          "type": "address"
        },
        {
          "indexed": true,
          "internalType": "address",
          "name": "buyer",
          "type": "address"
        },
        {
          "indexed": false,
          "internalType": "uint256",
          "name": "amount",
          "type": "uint256"
        },
        {
          "indexed": false,
          "internalType": "uint256",
          "name": "rate",
          "type": "uint256"
        },
        {
          "indexed": false,
          "internalType": "uint256",
          "name": "fee",
          "type": "uint256"
        },
        {
          "indexed": false,
          "internalType": "uint8",
          "name": "orderType",
          "type": "uint8"
        }
      ],
      "name": "OpenOrder",
      "type": "event"
    },
    {
      "inputs": [],
      "name": "ochestrator",
      "outputs": [
        {
          "internalType": "address",
          "name": "",
          "type": "address"
        }
      ],
      "stateMutability": "view",
      "type": "function"
    },
    {
      "inputs": [
        {
          "internalType": "address",
          "name": "",
          "type": "address"
        },
        {
          "internalType": "uint256",
          "name": "",
          "type": "uint256"
        }
      ],
      "name": "openOrders",
      "outputs": [
        {
          "internalType": "uint256",
          "name": "",
          "type": "uint256"
        }
      ],
      "stateMutability": "view",
      "type": "function"
    },
    {
      "inputs": [
        {
          "internalType": "uint256",
          "name": "",
          "type": "uint256"
        }
      ],
      "name": "orders",
      "outputs": [
        {
          "internalType": "address",
          "name": "vendor",
          "type": "address"
        },
        {
          "internalType": "address",
          "name": "customer",
          "type": "address"
        },
        {
          "internalType": "uint256",
          "name": "amount",
          "type": "uint256"
        },
        {
          "internalType": "uint256",
          "name": "rate",
          "type": "uint256"
        },
        {
          "internalType": "uint256",
          "name": "fee",
          "type": "uint256"
        },
        {
          "internalType": "uint8",
          "name": "orderType",
          "type": "uint8"
        },
        {
          "internalType": "uint256",
          "name": "startTime",
          "type": "uint256"
        },
        {
          "internalType": "uint256",
          "name": "fulfiledTime",
          "type": "uint256"
        }
      ],
      "stateMutability": "view",
      "type": "function"
    },
    {
      "inputs": [],
      "name": "usdcToken",
      "outputs": [
        {
          "internalType": "address",
          "name": "",
          "type": "address"
        }
      ],
      "stateMutability": "view",
      "type": "function"
    },
    {
      "inputs": [
        {
          "internalType": "address",
          "name": "_seller",
          "type": "address"
        },
        {
          "internalType": "address",
          "name": "_buyer",
          "type": "address"
        },
        {
          "internalType": "uint256",
          "name": "_amount",
          "type": "uint256"
        },
        {
          "internalType": "uint256",
          "name": "_rate",
          "type": "uint256"
        },
        {
          "internalType": "uint256",
          "name": "_fee",
          "type": "uint256"
        },
        {
          "internalType": "uint8",
          "name": "_orderType",
          "type": "uint8"
        }
      ],
      "name": "newOrder",
      "outputs": [
        {
          "internalType": "uint256",
          "name": "",
          "type": "uint256"
        }
      ],
      "stateMutability": "nonpayable",
      "type": "function"
    },
    {
      "inputs": [
        {
          "internalType": "address",
          "name": "_seller",
          "type": "address"
        }
      ],
      "name": "numberOfOpenOrders",
      "outputs": [
        {
          "internalType": "uint256",
          "name": "",
          "type": "uint256"
        }
      ],
      "stateMutability": "view",
      "type": "function"
    },
    {
      "inputs": [
        {
          "internalType": "address",
          "name": "_seller",
          "type": "address"
        }
      ],
      "name": "getOpenOrdersOf",
      "outputs": [
        {
          "internalType": "uint256[]",
          "name": "",
          "type": "uint256[]"
        }
      ],
      "stateMutability": "view",
      "type": "function"
    },
    {
      "inputs": [
        {
          "internalType": "uint256",
          "name": "_orderId",
          "type": "uint256"
        }
      ],
      "name": "getOrderId",
      "outputs": [
        {
          "components": [
            {
              "internalType": "address",
              "name": "vendor",
              "type": "address"
            },
            {
              "internalType": "address",
              "name": "customer",
              "type": "address"
            },
            {
              "internalType": "uint256",
              "name": "amount",
              "type": "uint256"
            },
            {
              "internalType": "uint256",
              "name": "rate",
              "type": "uint256"
            },
            {
              "internalType": "uint256",
              "name": "fee",
              "type": "uint256"
            },
            {
              "internalType": "uint8",
              "name": "orderType",
              "type": "uint8"
            },
            {
              "internalType": "uint256",
              "name": "startTime",
              "type": "uint256"
            },
            {
              "internalType": "uint256",
              "name": "fulfiledTime",
              "type": "uint256"
            }
          ],
          "internalType": "struct Types.Order",
          "name": "",
          "type": "tuple"
        }
      ],
      "stateMutability": "view",
      "type": "function"
    },
    {
      "inputs": [
        {
          "internalType": "address",
          "name": "usdcContractAddress",
          "type": "address"
        }
      ],
      "name": "setUsdcTokenAddress",
      "outputs": [],
      "stateMutability": "nonpayable",
      "type": "function"
    },
    {
      "inputs": [],
      "name": "withdrawFeesEarned",
      "outputs": [],
      "stateMutability": "nonpayable",
      "type": "function"
    }
  ],
  "bytecode": "0x60806040523480156200001157600080fd5b506040516200157038038062001570833981810160405281019062000037919062000096565b80600260006101000a81548173ffffffffffffffffffffffffffffffffffffffff021916908373ffffffffffffffffffffffffffffffffffffffff160217905550506200011b565b600081519050620000908162000101565b92915050565b600060208284031215620000af57620000ae620000fc565b5b6000620000bf848285016200007f565b91505092915050565b6000620000d582620000dc565b9050919050565b600073ffffffffffffffffffffffffffffffffffffffff82169050919050565b600080fd5b6200010c81620000c8565b81146200011857600080fd5b50565b611445806200012b6000396000f3fe608060405234801561001057600080fd5b50600436106100bb576000357c0100000000000000000000000000000000000000000000000000000000900480636dee2032116100835780636dee2032146101785780639c811d43146101a85780639d2166ae146101c6578063a85c38ef146101f6578063f3fd622f1461022d576100bb565b806311981a50146100c057806311a21b2c146100f057806311eac855146100fa5780631e7cea801461011857806332c0111714610148575b600080fd5b6100da60048036038101906100d59190610d05565b610249565b6040516100e79190611194565b60405180910390f35b6100f861052e565b005b61010261077a565b60405161010f9190611034565b60405180910390f35b610132600480360381019061012d9190610d92565b6107a0565b60405161013f9190611194565b60405180910390f35b610162600480360381019061015d9190610cd8565b6107d1565b60405161016f9190611194565b60405180910390f35b610192600480360381019061018d9190610cd8565b61081d565b60405161019f91906110f6565b60405180910390f35b6101b06108b4565b6040516101bd9190611034565b60405180910390f35b6101e060048036038101906101db9190610dff565b6108da565b6040516101ed9190611178565b60405180910390f35b610210600480360381019061020b9190610dff565b610a12565b60405161022498979695949392919061104f565b60405180910390f35b61024760048036038101906102429190610cd8565b610ab7565b005b60008573ffffffffffffffffffffffffffffffffffffffff163373ffffffffffffffffffffffffffffffffffffffff16146102b9576040517f08c379a00000000000000000000000000000000000000000000000000000000081526004016102b090611118565b60405180910390fd5b60006040518061010001604052808973ffffffffffffffffffffffffffffffffffffffff1681526020018873ffffffffffffffffffffffffffffffffffffffff1681526020018781526020018681526020018581526020018460ff16815260200142815260200160008152509050600081908060018154018082558091505060019003906000526020600020906008020160009091909190915060008201518160000160006101000a81548173ffffffffffffffffffffffffffffffffffffffff021916908373ffffffffffffffffffffffffffffffffffffffff16021790555060208201518160010160006101000a81548173ffffffffffffffffffffffffffffffffffffffff021916908373ffffffffffffffffffffffffffffffffffffffff16021790555060408201518160020155606082015181600301556080820151816004015560a08201518160050160006101000a81548160ff021916908360ff16021790555060c0820151816006015560e0820151816007015550506000600160008054905061044a919061124c565b9050600160008a73ffffffffffffffffffffffffffffffffffffffff1673ffffffffffffffffffffffffffffffffffffffff1681526020019081526020016000208190806001815401808255809150506001900390600052602060002001600090919091909150558773ffffffffffffffffffffffffffffffffffffffff168973ffffffffffffffffffffffffffffffffffffffff167f422c12dcb9734568e8367a17f7bb6453db515b5058b66ea0d8c349f345885177838a8a8a8a6040516105179594939291906111af565b60405180910390a380925050509695505050505050565b600260009054906101000a900473ffffffffffffffffffffffffffffffffffffffff1673ffffffffffffffffffffffffffffffffffffffff163373ffffffffffffffffffffffffffffffffffffffff16146105be576040517f08c379a00000000000000000000000000000000000000000000000000000000081526004016105b590611158565b60405180910390fd5b6000600360009054906101000a900473ffffffffffffffffffffffffffffffffffffffff1673ffffffffffffffffffffffffffffffffffffffff166370a08231306040518263ffffffff167c01000000000000000000000000000000000000000000000000000000000281526004016106379190611034565b60206040518083038186803b15801561064f57600080fd5b505afa158015610663573d6000803e3d6000fd5b505050506040513d601f19601f820116820180604052508101906106879190610e2c565b9050600360009054906101000a900473ffffffffffffffffffffffffffffffffffffffff1673ffffffffffffffffffffffffffffffffffffffff1663a9059cbb600260009054906101000a900473ffffffffffffffffffffffffffffffffffffffff16836040518363ffffffff167c01000000000000000000000000000000000000000000000000000000000281526004016107249291906110cd565b602060405180830381600087803b15801561073e57600080fd5b505af1158015610752573d6000803e3d6000fd5b505050506040513d601f19601f820116820180604052508101906107769190610dd2565b5050565b600360009054906101000a900473ffffffffffffffffffffffffffffffffffffffff1681565b600160205281600052604060002081815481106107bc57600080fd5b90600052602060002001600091509150505481565b6000600160008373ffffffffffffffffffffffffffffffffffffffff1673ffffffffffffffffffffffffffffffffffffffff168152602001908152602001600020805490509050919050565b6060600160008373ffffffffffffffffffffffffffffffffffffffff1673ffffffffffffffffffffffffffffffffffffffff1681526020019081526020016000208054806020026020016040519081016040528092919081815260200182805480156108a857602002820191906000526020600020905b815481526020019060010190808311610894575b50505050509050919050565b600260009054906101000a900473ffffffffffffffffffffffffffffffffffffffff1681565b6108e2610bfb565b600082815481106108f6576108f5611304565b5b9060005260206000209060080201604051806101000160405290816000820160009054906101000a900473ffffffffffffffffffffffffffffffffffffffff1673ffffffffffffffffffffffffffffffffffffffff1673ffffffffffffffffffffffffffffffffffffffff1681526020016001820160009054906101000a900473ffffffffffffffffffffffffffffffffffffffff1673ffffffffffffffffffffffffffffffffffffffff1673ffffffffffffffffffffffffffffffffffffffff1681526020016002820154815260200160038201548152602001600482015481526020016005820160009054906101000a900460ff1660ff1660ff168152602001600682015481526020016007820154815250509050919050565b60008181548110610a2257600080fd5b90600052602060002090600802016000915090508060000160009054906101000a900473ffffffffffffffffffffffffffffffffffffffff16908060010160009054906101000a900473ffffffffffffffffffffffffffffffffffffffff16908060020154908060030154908060040154908060050160009054906101000a900460ff16908060060154908060070154905088565b600260009054906101000a900473ffffffffffffffffffffffffffffffffffffffff1673ffffffffffffffffffffffffffffffffffffffff163373ffffffffffffffffffffffffffffffffffffffff1614610b47576040517f08c379a0000000000000000000000000000000000000000000000000000000008152600401610b3e90611158565b60405180910390fd5b600073ffffffffffffffffffffffffffffffffffffffff168173ffffffffffffffffffffffffffffffffffffffff161415610bb7576040517f08c379a0000000000000000000000000000000000000000000000000000000008152600401610bae90611138565b60405180910390fd5b80600360006101000a81548173ffffffffffffffffffffffffffffffffffffffff021916908373ffffffffffffffffffffffffffffffffffffffff16021790555050565b604051806101000160405280600073ffffffffffffffffffffffffffffffffffffffff168152602001600073ffffffffffffffffffffffffffffffffffffffff168152602001600081526020016000815260200160008152602001600060ff16815260200160008152602001600081525090565b600081359050610c7e816113b3565b92915050565b600081519050610c93816113ca565b92915050565b600081359050610ca8816113e1565b92915050565b600081519050610cbd816113e1565b92915050565b600081359050610cd2816113f8565b92915050565b600060208284031215610cee57610ced611333565b5b6000610cfc84828501610c6f565b91505092915050565b60008060008060008060c08789031215610d2257610d21611333565b5b6000610d3089828a01610c6f565b9650506020610d4189828a01610c6f565b9550506040610d5289828a01610c99565b9450506060610d6389828a01610c99565b9350506080610d7489828a01610c99565b92505060a0610d8589828a01610cc3565b9150509295509295509295565b60008060408385031215610da957610da8611333565b5b6000610db785828601610c6f565b9250506020610dc885828601610c99565b9150509250929050565b600060208284031215610de857610de7611333565b5b6000610df684828501610c84565b91505092915050565b600060208284031215610e1557610e14611333565b5b6000610e2384828501610c99565b91505092915050565b600060208284031215610e4257610e41611333565b5b6000610e5084828501610cae565b91505092915050565b6000610e658383610ff8565b60208301905092915050565b610e7a81611280565b82525050565b610e8981611280565b82525050565b6000610e9a82611212565b610ea4818561122a565b9350610eaf83611202565b8060005b83811015610ee0578151610ec78882610e59565b9750610ed28361121d565b925050600181019050610eb3565b5085935050505092915050565b6000610efa60108361123b565b9150610f0582611338565b602082019050919050565b6000610f1d60128361123b565b9150610f2882611361565b602082019050919050565b6000610f4060138361123b565b9150610f4b8261138a565b602082019050919050565b61010082016000820151610f6d6000850182610e71565b506020820151610f806020850182610e71565b506040820151610f936040850182610ff8565b506060820151610fa66060850182610ff8565b506080820151610fb96080850182610ff8565b5060a0820151610fcc60a0850182611016565b5060c0820151610fdf60c0850182610ff8565b5060e0820151610ff260e0850182610ff8565b50505050565b611001816112be565b82525050565b611010816112be565b82525050565b61101f816112c8565b82525050565b61102e816112c8565b82525050565b60006020820190506110496000830184610e80565b92915050565b600061010082019050611065600083018b610e80565b611072602083018a610e80565b61107f6040830189611007565b61108c6060830188611007565b6110996080830187611007565b6110a660a0830186611025565b6110b360c0830185611007565b6110c060e0830184611007565b9998505050505050505050565b60006040820190506110e26000830185610e80565b6110ef6020830184611007565b9392505050565b600060208201905081810360008301526111108184610e8f565b905092915050565b6000602082019050818103600083015261113181610eed565b9050919050565b6000602082019050818103600083015261115181610f10565b9050919050565b6000602082019050818103600083015261117181610f33565b9050919050565b60006101008201905061118e6000830184610f56565b92915050565b60006020820190506111a96000830184611007565b92915050565b600060a0820190506111c46000830188611007565b6111d16020830187611007565b6111de6040830186611007565b6111eb6060830185611007565b6111f86080830184611025565b9695505050505050565b6000819050602082019050919050565b600081519050919050565b6000602082019050919050565b600082825260208201905092915050565b600082825260208201905092915050565b6000611257826112be565b9150611262836112be565b925082821015611275576112746112d5565b5b828203905092915050565b600061128b8261129e565b9050919050565b60008115159050919050565b600073ffffffffffffffffffffffffffffffffffffffff82169050919050565b6000819050919050565b600060ff82169050919050565b7f4e487b7100000000000000000000000000000000000000000000000000000000600052601160045260246000fd5b7f4e487b7100000000000000000000000000000000000000000000000000000000600052603260045260246000fd5b600080fd5b7f433a20637573746f6d6572206f6e6c7900000000000000000000000000000000600082015250565b7f463a20696e76616c696420616464726573730000000000000000000000000000600082015250565b7f463a206f6e6c79206f63686573747261746f7200000000000000000000000000600082015250565b6113bc81611280565b81146113c757600080fd5b50565b6113d381611292565b81146113de57600080fd5b50565b6113ea816112be565b81146113f557600080fd5b50565b611401816112c8565b811461140c57600080fd5b5056fea2646970667358221220bfcca636d076f779a4cb0675438d2101219be1f165b418682f4948aa2aed3de164736f6c63430008060033",
  "immutableReferences": {},
  "source": "// SPDX-License-Identifier: MIT\npragma solidity ^0.8.0;\n\nimport \"@openzeppelin/contracts/token/ERC20/IERC20.sol\";\nimport \"./Types.sol\";\n\ncontract Escrow is Types {\n  ////////////////////////////////////////\n  //                                    //\n  //         STATE VARIABLES            //\n  //                                    //\n  ////////////////////////////////////////\n\n  /// @notice EOA of deployer wallet\n  address public ochestrator;\n\n  /// @notice address of accepted USDC on deployed chain\n  address public usdcToken;\n\n  ////////////////////////////////////////\n  //                                    //\n  //              FUNCTIONS             //\n  //                                    //\n  ////////////////////////////////////////\n  modifier onlyOchesrator() {\n    require(msg.sender == ochestrator, \"F: only ochestrator\");\n    _;\n  }\n\n  constructor(address _ochestrator) {\n    ochestrator = _ochestrator;\n  }\n\n  /**\n   * @param _seller is the address of the vendor\n   * @param _buyer is the address of the customer\n   * @param _amount is the amount of USD to be transferred plus fees (18 decimals)\n   * @param _rate is the rate to buy usdc against customer fiat\n   * @param _fee is the amount of fees to be paid to the escrow to be minus from _amount (18 decimals)\n   * @param _orderType is the type of order (0: buy, 1: sell)\n   */\n  function newOrder(\n    address _seller,\n    address _buyer,\n    uint256 _amount,\n    uint256 _rate,\n    uint256 _fee,\n    uint8 _orderType\n  ) public returns (uint256) {\n    require(msg.sender == _buyer, \"C: customer only\");\n\n    Order memory order = Order(\n      _seller,\n      _buyer,\n      _amount,\n      _rate,\n      _fee,\n      _orderType,\n      block.timestamp,\n      0\n    );\n\n    orders.push(order);\n\n    uint256 orderId = orders.length - 1;\n\n    openOrders[_seller].push(orderId);\n\n    emit OpenOrder(orderId, _seller, _buyer, _amount, _rate, _fee, _orderType);\n\n    return orderId;\n  }\n\n  function numberOfOpenOrders(address _seller) public view returns (uint256) {\n    return openOrders[_seller].length;\n  }\n\n  function getOpenOrdersOf(address _seller)\n    public\n    view\n    returns (uint256[] memory)\n  {\n    return openOrders[_seller];\n  }\n\n  function getOrderId(uint256 _orderId) public view returns (Order memory) {\n    return orders[_orderId];\n  }\n\n  /**\n   * @dev allow deployer to update of USD Token contract address\n   * @param usdcContractAddress is the address of the chosen stabel currency to accepted\n   * Note use with caution, once a certain USD token is accepted changing will make the other USD token stuck\n   */\n  function setUsdcTokenAddress(address usdcContractAddress)\n    public\n    onlyOchesrator\n  {\n    require(usdcContractAddress != address(0x0), \"F: invalid address\");\n    usdcToken = usdcContractAddress;\n  }\n\n  /**\n   * @dev allow deployer to withdraw all fees earned from escrow\n   */\n  function withdrawFeesEarned() public onlyOchesrator {\n    uint256 totalFeeEarned = IERC20(usdcToken).balanceOf(address(this));\n\n    IERC20(usdcToken).transfer(ochestrator, totalFeeEarned);\n  }\n}\n",
  "sourcePath": "/Users/drewhyte/Sites/SOLIDITY/piggyfi-contract-avax-poc/contracts/Escrow.sol",
  "compiler": {
    "name": "solc",
    "version": "0.8.6+commit.11564f7e.Emscripten.clang"
  },
  "schemaVersion": "3.4.6",
  "updatedAt": "2022-05-01T15:42:16.736Z",
  "devdoc": {
    "kind": "dev",
    "methods": {
      "newOrder(address,address,uint256,uint256,uint256,uint8)": {
        "params": {
          "_amount": "is the amount of USD to be transferred plus fees (18 decimals)",
          "_buyer": "is the address of the customer",
          "_fee": "is the amount of fees to be paid to the escrow to be minus from _amount (18 decimals)",
          "_orderType": "is the type of order (0: buy, 1: sell)",
          "_rate": "is the rate to buy usdc against customer fiat",
          "_seller": "is the address of the vendor"
        }
      },
      "setUsdcTokenAddress(address)": {
        "details": "allow deployer to update of USD Token contract address",
        "params": {
          "usdcContractAddress": "is the address of the chosen stabel currency to accepted Note use with caution, once a certain USD token is accepted changing will make the other USD token stuck"
        }
      },
      "withdrawFeesEarned()": {
        "details": "allow deployer to withdraw all fees earned from escrow"
      }
    },
    "version": 1
  },
  "userdoc": {
    "kind": "user",
    "methods": {
      "ochestrator()": {
        "notice": "EOA of deployer wallet"
      },
      "usdcToken()": {
        "notice": "address of accepted USDC on deployed chain"
      }
    },
    "version": 1
  }
}