{
  "contractName": "Escrow",
  "abi": [
    {
      "inputs": [
        {
          "internalType": "address",
          "name": "_ochestrator",
          "type": "address"
        }
      ],
      "stateMutability": "nonpayable",
      "type": "constructor"
    },
    {
      "anonymous": false,
      "inputs": [
        {
          "indexed": false,
          "internalType": "uint256",
          "name": "orderId",
          "type": "uint256"
        }
      ],
      "name": "ClosedOrder",
      "type": "event"
    },
    {
      "anonymous": false,
      "inputs": [
        {
          "indexed": false,
          "internalType": "uint256",
          "name": "orderId",
          "type": "uint256"
        },
        {
          "indexed": true,
          "internalType": "address",
          "name": "seller",
          "type": "address"
        },
        {
          "indexed": true,
          "internalType": "address",
          "name": "buyer",
          "type": "address"
        },
        {
          "indexed": true,
          "internalType": "address",
          "name": "receiver",
          "type": "address"
        },
        {
          "indexed": false,
          "internalType": "uint256",
          "name": "amount",
          "type": "uint256"
        },
        {
          "indexed": false,
          "internalType": "uint256",
          "name": "rate",
          "type": "uint256"
        },
        {
          "indexed": false,
          "internalType": "uint256",
          "name": "fee",
          "type": "uint256"
        },
        {
          "indexed": false,
          "internalType": "uint8",
          "name": "orderType",
          "type": "uint8"
        }
      ],
      "name": "OpenOrder",
      "type": "event"
    },
    {
      "anonymous": false,
      "inputs": [
        {
          "indexed": false,
          "internalType": "uint256",
          "name": "orderId",
          "type": "uint256"
        }
      ],
      "name": "OrderFulfilled",
      "type": "event"
    },
    {
      "inputs": [],
      "name": "ochestrator",
      "outputs": [
        {
          "internalType": "address",
          "name": "",
          "type": "address"
        }
      ],
      "stateMutability": "view",
      "type": "function",
      "constant": true
    },
    {
      "inputs": [
        {
          "internalType": "address",
          "name": "",
          "type": "address"
        },
        {
          "internalType": "uint256",
          "name": "",
          "type": "uint256"
        }
      ],
      "name": "openOrders",
      "outputs": [
        {
          "internalType": "uint256",
          "name": "",
          "type": "uint256"
        }
      ],
      "stateMutability": "view",
      "type": "function",
      "constant": true
    },
    {
      "inputs": [
        {
          "internalType": "uint256",
          "name": "",
          "type": "uint256"
        }
      ],
      "name": "orders",
      "outputs": [
        {
          "internalType": "address",
          "name": "seller",
          "type": "address"
        },
        {
          "internalType": "address",
          "name": "buyer",
          "type": "address"
        },
        {
          "internalType": "address",
          "name": "receiver",
          "type": "address"
        },
        {
          "internalType": "uint256",
          "name": "amount",
          "type": "uint256"
        },
        {
          "internalType": "uint256",
          "name": "rate",
          "type": "uint256"
        },
        {
          "internalType": "uint256",
          "name": "fee",
          "type": "uint256"
        },
        {
          "internalType": "uint8",
          "name": "orderType",
          "type": "uint8"
        },
        {
          "internalType": "uint256",
          "name": "startTime",
          "type": "uint256"
        },
        {
          "internalType": "uint256",
          "name": "fulfiledTime",
          "type": "uint256"
        }
      ],
      "stateMutability": "view",
      "type": "function",
      "constant": true
    },
    {
      "inputs": [],
      "name": "usdcToken",
      "outputs": [
        {
          "internalType": "address",
          "name": "",
          "type": "address"
        }
      ],
      "stateMutability": "view",
      "type": "function",
      "constant": true
    },
    {
      "inputs": [
        {
          "internalType": "address",
          "name": "_seller",
          "type": "address"
        },
        {
          "internalType": "address",
          "name": "_buyer",
          "type": "address"
        },
        {
          "internalType": "address",
          "name": "_receiver",
          "type": "address"
        },
        {
          "internalType": "uint256",
          "name": "_amount",
          "type": "uint256"
        },
        {
          "internalType": "uint256",
          "name": "_rate",
          "type": "uint256"
        },
        {
          "internalType": "uint256",
          "name": "_fee",
          "type": "uint256"
        },
        {
          "internalType": "uint8",
          "name": "_orderType",
          "type": "uint8"
        }
      ],
      "name": "newOrder",
      "outputs": [
        {
          "internalType": "uint256",
          "name": "",
          "type": "uint256"
        }
      ],
      "stateMutability": "nonpayable",
      "type": "function"
    },
    {
      "inputs": [
        {
          "internalType": "address",
          "name": "_seller",
          "type": "address"
        }
      ],
      "name": "numberOfOpenOrders",
      "outputs": [
        {
          "internalType": "uint256",
          "name": "",
          "type": "uint256"
        }
      ],
      "stateMutability": "view",
      "type": "function",
      "constant": true
    },
    {
      "inputs": [
        {
          "internalType": "address",
          "name": "_seller",
          "type": "address"
        }
      ],
      "name": "getOpenOrdersOf",
      "outputs": [
        {
          "internalType": "uint256[]",
          "name": "",
          "type": "uint256[]"
        }
      ],
      "stateMutability": "view",
      "type": "function",
      "constant": true
    },
    {
      "inputs": [
        {
          "internalType": "uint256",
          "name": "_orderId",
          "type": "uint256"
        }
      ],
      "name": "getOrderById",
      "outputs": [
        {
          "components": [
            {
              "internalType": "address",
              "name": "seller",
              "type": "address"
            },
            {
              "internalType": "address",
              "name": "buyer",
              "type": "address"
            },
            {
              "internalType": "address",
              "name": "receiver",
              "type": "address"
            },
            {
              "internalType": "uint256",
              "name": "amount",
              "type": "uint256"
            },
            {
              "internalType": "uint256",
              "name": "rate",
              "type": "uint256"
            },
            {
              "internalType": "uint256",
              "name": "fee",
              "type": "uint256"
            },
            {
              "internalType": "uint8",
              "name": "orderType",
              "type": "uint8"
            },
            {
              "internalType": "uint256",
              "name": "startTime",
              "type": "uint256"
            },
            {
              "internalType": "uint256",
              "name": "fulfiledTime",
              "type": "uint256"
            }
          ],
          "internalType": "struct Types.Order",
          "name": "",
          "type": "tuple"
        }
      ],
      "stateMutability": "view",
      "type": "function",
      "constant": true
    },
    {
      "inputs": [
        {
          "internalType": "address",
          "name": "_seller",
          "type": "address"
        },
        {
          "internalType": "uint256",
          "name": "_orderId",
          "type": "uint256"
        }
      ],
      "name": "closeOpenOrder",
      "outputs": [],
      "stateMutability": "nonpayable",
      "type": "function"
    },
    {
      "inputs": [
        {
          "internalType": "address",
          "name": "usdcContractAddress",
          "type": "address"
        }
      ],
      "name": "setUsdcTokenAddress",
      "outputs": [],
      "stateMutability": "nonpayable",
      "type": "function"
    },
    {
      "inputs": [],
      "name": "withdrawFeesEarned",
      "outputs": [],
      "stateMutability": "nonpayable",
      "type": "function"
    }
  ],
  "bytecode": "0x60806040523480156200001157600080fd5b506040516200193838038062001938833981810160405281019062000037919062000096565b80600260006101000a81548173ffffffffffffffffffffffffffffffffffffffff021916908373ffffffffffffffffffffffffffffffffffffffff160217905550506200011b565b600081519050620000908162000101565b92915050565b600060208284031215620000af57620000ae620000fc565b5b6000620000bf848285016200007f565b91505092915050565b6000620000d582620000dc565b9050919050565b600073ffffffffffffffffffffffffffffffffffffffff82169050919050565b600080fd5b6200010c81620000c8565b81146200011857600080fd5b50565b61180d806200012b6000396000f3fe608060405234801561001057600080fd5b50600436106100c6576000357c0100000000000000000000000000000000000000000000000000000000900480636dee20321161008e5780636dee2032146101835780639c811d43146101b3578063a85c38ef146101d1578063b00f215c14610209578063b1fab21c14610225578063f3fd622f14610255576100c6565b806311a21b2c146100cb57806311eac855146100d55780631e7cea80146100f357806332c011171461012357806342b50a7a14610153575b600080fd5b6100d3610271565b005b6100dd6104bd565b6040516100ea919061135b565b60405180910390f35b61010d6004803603810190610108919061105e565b6104e3565b60405161011a919061150a565b60405180910390f35b61013d60048036038101906101389190610f8f565b610514565b60405161014a919061150a565b60405180910390f35b61016d600480360381019061016891906110cb565b610560565b60405161017a91906114ee565b60405180910390f35b61019d60048036038101906101989190610f8f565b6106ee565b6040516101aa919061142c565b60405180910390f35b6101bb610785565b6040516101c8919061135b565b60405180910390f35b6101eb60048036038101906101e691906110cb565b6107ab565b60405161020099989796959493929190611376565b60405180910390f35b610223600480360381019061021e919061105e565b610876565b005b61023f600480360381019061023a9190610fbc565b6109ad565b60405161024c919061150a565b60405180910390f35b61026f600480360381019061026a9190610f8f565b610d51565b005b600260009054906101000a900473ffffffffffffffffffffffffffffffffffffffff1673ffffffffffffffffffffffffffffffffffffffff163373ffffffffffffffffffffffffffffffffffffffff1614610301576040517f08c379a00000000000000000000000000000000000000000000000000000000081526004016102f8906114ce565b60405180910390fd5b6000600360009054906101000a900473ffffffffffffffffffffffffffffffffffffffff1673ffffffffffffffffffffffffffffffffffffffff166370a08231306040518263ffffffff167c010000000000000000000000000000000000000000000000000000000002815260040161037a919061135b565b60206040518083038186803b15801561039257600080fd5b505afa1580156103a6573d6000803e3d6000fd5b505050506040513d601f19601f820116820180604052508101906103ca91906110f8565b9050600360009054906101000a900473ffffffffffffffffffffffffffffffffffffffff1673ffffffffffffffffffffffffffffffffffffffff1663a9059cbb600260009054906101000a900473ffffffffffffffffffffffffffffffffffffffff16836040518363ffffffff167c0100000000000000000000000000000000000000000000000000000000028152600401610467929190611403565b602060405180830381600087803b15801561048157600080fd5b505af1158015610495573d6000803e3d6000fd5b505050506040513d601f19601f820116820180604052508101906104b9919061109e565b5050565b600360009054906101000a900473ffffffffffffffffffffffffffffffffffffffff1681565b600160205281600052604060002081815481106104ff57600080fd5b90600052602060002001600091509150505481565b6000600160008373ffffffffffffffffffffffffffffffffffffffff1673ffffffffffffffffffffffffffffffffffffffff168152602001908152602001600020805490509050919050565b610568610e95565b6000828154811061057c5761057b61167a565b5b9060005260206000209060090201604051806101200160405290816000820160009054906101000a900473ffffffffffffffffffffffffffffffffffffffff1673ffffffffffffffffffffffffffffffffffffffff1673ffffffffffffffffffffffffffffffffffffffff1681526020016001820160009054906101000a900473ffffffffffffffffffffffffffffffffffffffff1673ffffffffffffffffffffffffffffffffffffffff1673ffffffffffffffffffffffffffffffffffffffff1681526020016002820160009054906101000a900473ffffffffffffffffffffffffffffffffffffffff1673ffffffffffffffffffffffffffffffffffffffff1673ffffffffffffffffffffffffffffffffffffffff1681526020016003820154815260200160048201548152602001600582015481526020016006820160009054906101000a900460ff1660ff1660ff168152602001600782015481526020016008820154815250509050919050565b6060600160008373ffffffffffffffffffffffffffffffffffffffff1673ffffffffffffffffffffffffffffffffffffffff16815260200190815260200160002080548060200260200160405190810160405280929190818152602001828054801561077957602002820191906000526020600020905b815481526020019060010190808311610765575b50505050509050919050565b600260009054906101000a900473ffffffffffffffffffffffffffffffffffffffff1681565b600081815481106107bb57600080fd5b90600052602060002090600902016000915090508060000160009054906101000a900473ffffffffffffffffffffffffffffffffffffffff16908060010160009054906101000a900473ffffffffffffffffffffffffffffffffffffffff16908060020160009054906101000a900473ffffffffffffffffffffffffffffffffffffffff16908060030154908060040154908060050154908060060160009054906101000a900460ff16908060070154908060080154905089565b8173ffffffffffffffffffffffffffffffffffffffff163373ffffffffffffffffffffffffffffffffffffffff16146108e4576040517f08c379a00000000000000000000000000000000000000000000000000000000081526004016108db9061148e565b60405180910390fd5b600160008373ffffffffffffffffffffffffffffffffffffffff1673ffffffffffffffffffffffffffffffffffffffff16815260200190815260200160002081815481106109355761093461167a565b5b906000526020600020016000905560008082815481106109585761095761167a565b5b906000526020600020906009020190504281600801819055507feffe8b1d2a9cf39e57d4c149a66031e01358bf685cc7a6bf90e3deeeae58d530826040516109a0919061150a565b60405180910390a1505050565b60008673ffffffffffffffffffffffffffffffffffffffff163373ffffffffffffffffffffffffffffffffffffffff1614610a1d576040517f08c379a0000000000000000000000000000000000000000000000000000000008152600401610a149061144e565b60405180910390fd5b60008511610a60576040517f08c379a0000000000000000000000000000000000000000000000000000000008152600401610a579061146e565b60405180910390fd5b60006040518061012001604052808a73ffffffffffffffffffffffffffffffffffffffff1681526020018973ffffffffffffffffffffffffffffffffffffffff1681526020018873ffffffffffffffffffffffffffffffffffffffff1681526020018781526020018681526020018581526020018460ff16815260200142815260200160008152509050600081908060018154018082558091505060019003906000526020600020906009020160009091909190915060008201518160000160006101000a81548173ffffffffffffffffffffffffffffffffffffffff021916908373ffffffffffffffffffffffffffffffffffffffff16021790555060208201518160010160006101000a81548173ffffffffffffffffffffffffffffffffffffffff021916908373ffffffffffffffffffffffffffffffffffffffff16021790555060408201518160020160006101000a81548173ffffffffffffffffffffffffffffffffffffffff021916908373ffffffffffffffffffffffffffffffffffffffff160217905550606082015181600301556080820151816004015560a0820151816005015560c08201518160060160006101000a81548160ff021916908360ff16021790555060e082015181600701556101008201518160080155505060006001600080549050610c5591906115c2565b9050600160008b73ffffffffffffffffffffffffffffffffffffffff1673ffffffffffffffffffffffffffffffffffffffff1681526020019081526020016000208190806001815401808255809150506001900390600052602060002001600090919091909150558773ffffffffffffffffffffffffffffffffffffffff168973ffffffffffffffffffffffffffffffffffffffff168b73ffffffffffffffffffffffffffffffffffffffff167f5b73f6247366d92ee603eac9f08b57d720d84527717dceae9a96367b83e7a133848b8b8b8b604051610d39959493929190611525565b60405180910390a48092505050979650505050505050565b600260009054906101000a900473ffffffffffffffffffffffffffffffffffffffff1673ffffffffffffffffffffffffffffffffffffffff163373ffffffffffffffffffffffffffffffffffffffff1614610de1576040517f08c379a0000000000000000000000000000000000000000000000000000000008152600401610dd8906114ce565b60405180910390fd5b600073ffffffffffffffffffffffffffffffffffffffff168173ffffffffffffffffffffffffffffffffffffffff161415610e51576040517f08c379a0000000000000000000000000000000000000000000000000000000008152600401610e48906114ae565b60405180910390fd5b80600360006101000a81548173ffffffffffffffffffffffffffffffffffffffff021916908373ffffffffffffffffffffffffffffffffffffffff16021790555050565b604051806101200160405280600073ffffffffffffffffffffffffffffffffffffffff168152602001600073ffffffffffffffffffffffffffffffffffffffff168152602001600073ffffffffffffffffffffffffffffffffffffffff168152602001600081526020016000815260200160008152602001600060ff16815260200160008152602001600081525090565b600081359050610f358161177b565b92915050565b600081519050610f4a81611792565b92915050565b600081359050610f5f816117a9565b92915050565b600081519050610f74816117a9565b92915050565b600081359050610f89816117c0565b92915050565b600060208284031215610fa557610fa46116a9565b5b6000610fb384828501610f26565b91505092915050565b600080600080600080600060e0888a031215610fdb57610fda6116a9565b5b6000610fe98a828b01610f26565b9750506020610ffa8a828b01610f26565b965050604061100b8a828b01610f26565b955050606061101c8a828b01610f50565b945050608061102d8a828b01610f50565b93505060a061103e8a828b01610f50565b92505060c061104f8a828b01610f7a565b91505092959891949750929550565b60008060408385031215611075576110746116a9565b5b600061108385828601610f26565b925050602061109485828601610f50565b9150509250929050565b6000602082840312156110b4576110b36116a9565b5b60006110c284828501610f3b565b91505092915050565b6000602082840312156110e1576110e06116a9565b5b60006110ef84828501610f50565b91505092915050565b60006020828403121561110e5761110d6116a9565b5b600061111c84828501610f65565b91505092915050565b6000611131838361131f565b60208301905092915050565b611146816115f6565b82525050565b611155816115f6565b82525050565b600061116682611588565b61117081856115a0565b935061117b83611578565b8060005b838110156111ac5781516111938882611125565b975061119e83611593565b92505060018101905061117f565b5085935050505092915050565b60006111c66010836115b1565b91506111d1826116ae565b602082019050919050565b60006111e96010836115b1565b91506111f4826116d7565b602082019050919050565b600061120c600e836115b1565b915061121782611700565b602082019050919050565b600061122f6012836115b1565b915061123a82611729565b602082019050919050565b60006112526013836115b1565b915061125d82611752565b602082019050919050565b6101208201600082015161127f600085018261113d565b506020820151611292602085018261113d565b5060408201516112a5604085018261113d565b5060608201516112b8606085018261131f565b5060808201516112cb608085018261131f565b5060a08201516112de60a085018261131f565b5060c08201516112f160c085018261133d565b5060e082015161130460e085018261131f565b5061010082015161131961010085018261131f565b50505050565b61132881611634565b82525050565b61133781611634565b82525050565b6113468161163e565b82525050565b6113558161163e565b82525050565b6000602082019050611370600083018461114c565b92915050565b60006101208201905061138c600083018c61114c565b611399602083018b61114c565b6113a6604083018a61114c565b6113b3606083018961132e565b6113c0608083018861132e565b6113cd60a083018761132e565b6113da60c083018661134c565b6113e760e083018561132e565b6113f561010083018461132e565b9a9950505050505050505050565b6000604082019050611418600083018561114c565b611425602083018461132e565b9392505050565b60006020820190508181036000830152611446818461115b565b905092915050565b60006020820190508181036000830152611467816111b9565b9050919050565b60006020820190508181036000830152611487816111dc565b9050919050565b600060208201905081810360008301526114a7816111ff565b9050919050565b600060208201905081810360008301526114c781611222565b9050919050565b600060208201905081810360008301526114e781611245565b9050919050565b6000610120820190506115046000830184611268565b92915050565b600060208201905061151f600083018461132e565b92915050565b600060a08201905061153a600083018861132e565b611547602083018761132e565b611554604083018661132e565b611561606083018561132e565b61156e608083018461134c565b9695505050505050565b6000819050602082019050919050565b600081519050919050565b6000602082019050919050565b600082825260208201905092915050565b600082825260208201905092915050565b60006115cd82611634565b91506115d883611634565b9250828210156115eb576115ea61164b565b5b828203905092915050565b600061160182611614565b9050919050565b60008115159050919050565b600073ffffffffffffffffffffffffffffffffffffffff82169050919050565b6000819050919050565b600060ff82169050919050565b7f4e487b7100000000000000000000000000000000000000000000000000000000600052601160045260246000fd5b7f4e487b7100000000000000000000000000000000000000000000000000000000600052603260045260246000fd5b600080fd5b7f433a20637573746f6d6572206f6e6c7900000000000000000000000000000000600082015250565b7f433a20696e76616c6964206f7264657200000000000000000000000000000000600082015250565b7f433a206f6e6c792073656c6c6572000000000000000000000000000000000000600082015250565b7f463a20696e76616c696420616464726573730000000000000000000000000000600082015250565b7f463a206f6e6c79206f63686573747261746f7200000000000000000000000000600082015250565b611784816115f6565b811461178f57600080fd5b50565b61179b81611608565b81146117a657600080fd5b50565b6117b281611634565b81146117bd57600080fd5b50565b6117c98161163e565b81146117d457600080fd5b5056fea26469706673582212201b9e1daf62ac5b265e577173bd077d3cee90ec47ba9c21d7bc4f63f41d7a792964736f6c63430008060033",
  "immutableReferences": {},
  "source": "// SPDX-License-Identifier: MIT\npragma solidity ^0.8.0;\n\nimport \"@openzeppelin/contracts/token/ERC20/IERC20.sol\";\nimport \"./Types.sol\";\n\ncontract Escrow is Types {\n  ////////////////////////////////////////\n  //                                    //\n  //         STATE VARIABLES            //\n  //                                    //\n  ////////////////////////////////////////\n\n  /// @notice EOA of deployer wallet\n  address public ochestrator;\n\n  /// @notice address of accepted USDC on deployed chain\n  address public usdcToken;\n\n  ////////////////////////////////////////\n  //                                    //\n  //              FUNCTIONS             //\n  //                                    //\n  ////////////////////////////////////////\n  modifier onlyOchesrator() {\n    require(msg.sender == ochestrator, \"F: only ochestrator\");\n    _;\n  }\n\n  constructor(address _ochestrator) {\n    ochestrator = _ochestrator;\n  }\n\n  /**\n   * @param _seller is the address of the vendor\n   * @param _buyer is the address of the customer\n   * @param _amount is the amount of USD to be transferred plus fees (18 decimals)\n   * @param _rate is the rate to buy usdc against customer fiat\n   * @param _fee is the amount of fees to be paid to the escrow to be minus from _amount (18 decimals)\n   * @param _orderType is the type of order (0: buy, 1: sell)\n   */\n  function newOrder(\n    address _seller,\n    address _buyer,\n    address _receiver,\n    uint256 _amount,\n    uint256 _rate,\n    uint256 _fee,\n    uint8 _orderType\n  ) public returns (uint256) {\n    require(msg.sender == _buyer, \"C: customer only\");\n    require(_amount > 0, \"C: invalid order\");\n\n    Order memory order = Order(\n      _seller,\n      _buyer,\n      _receiver,\n      _amount,\n      _rate,\n      _fee,\n      _orderType,\n      block.timestamp,\n      0\n    );\n\n    orders.push(order);\n\n    uint256 orderId = orders.length - 1;\n\n    openOrders[_seller].push(orderId);\n\n    emit OpenOrder(\n      orderId,\n      _seller,\n      _buyer,\n      _receiver,\n      _amount,\n      _rate,\n      _fee,\n      _orderType\n    );\n\n    return orderId;\n  }\n\n  function numberOfOpenOrders(address _seller) public view returns (uint256) {\n    return openOrders[_seller].length;\n  }\n\n  function getOpenOrdersOf(address _seller)\n    public\n    view\n    returns (uint256[] memory)\n  {\n    return openOrders[_seller];\n  }\n\n  function getOrderById(uint256 _orderId) public view returns (Order memory) {\n    return orders[_orderId];\n  }\n\n  function closeOpenOrder(address _seller, uint256 _orderId) public {\n    require(msg.sender == _seller, \"C: only seller\");\n    delete openOrders[_seller][_orderId];\n\n    Order storage order = orders[_orderId];\n\n    order.fulfiledTime = block.timestamp;\n\n    emit ClosedOrder(_orderId);\n  }\n\n  /**\n   * @dev allow deployer to update of USD Token contract address\n   * @param usdcContractAddress is the address of the chosen stabel currency to accepted\n   * Note use with caution, once a certain USD token is accepted changing will make the other USD token stuck\n   */\n  function setUsdcTokenAddress(address usdcContractAddress)\n    public\n    onlyOchesrator\n  {\n    require(usdcContractAddress != address(0x0), \"F: invalid address\");\n    usdcToken = usdcContractAddress;\n  }\n\n  /**\n   * @dev allow deployer to withdraw all fees earned from escrow\n   */\n  function withdrawFeesEarned() public onlyOchesrator {\n    uint256 totalFeeEarned = IERC20(usdcToken).balanceOf(address(this));\n\n    IERC20(usdcToken).transfer(ochestrator, totalFeeEarned);\n  }\n}\n",
  "sourcePath": "/Users/drewhyte/Sites/SOLIDITY/piggyfi-contract-avax-poc/contracts/Escrow.sol",
  "compiler": {
    "name": "solc",
    "version": "0.8.6+commit.11564f7e.Emscripten.clang"
  },
  "schemaVersion": "3.4.6",
  "updatedAt": "2022-05-02T11:56:40.202Z",
  "networkType": "ethereum",
  "devdoc": {
    "kind": "dev",
    "methods": {
      "newOrder(address,address,address,uint256,uint256,uint256,uint8)": {
        "params": {
          "_amount": "is the amount of USD to be transferred plus fees (18 decimals)",
          "_buyer": "is the address of the customer",
          "_fee": "is the amount of fees to be paid to the escrow to be minus from _amount (18 decimals)",
          "_orderType": "is the type of order (0: buy, 1: sell)",
          "_rate": "is the rate to buy usdc against customer fiat",
          "_seller": "is the address of the vendor"
        }
      },
      "setUsdcTokenAddress(address)": {
        "details": "allow deployer to update of USD Token contract address",
        "params": {
          "usdcContractAddress": "is the address of the chosen stabel currency to accepted Note use with caution, once a certain USD token is accepted changing will make the other USD token stuck"
        }
      },
      "withdrawFeesEarned()": {
        "details": "allow deployer to withdraw all fees earned from escrow"
      }
    },
    "version": 1
  },
  "userdoc": {
    "kind": "user",
    "methods": {
      "ochestrator()": {
        "notice": "EOA of deployer wallet"
      },
      "usdcToken()": {
        "notice": "address of accepted USDC on deployed chain"
      }
    },
    "version": 1
  }
}