{
  "contractName": "Escrow",
  "abi": [
    {
      "inputs": [
        {
          "internalType": "address",
          "name": "_ochestrator",
          "type": "address"
        }
      ],
      "stateMutability": "nonpayable",
      "type": "constructor"
    },
    {
      "anonymous": false,
      "inputs": [
        {
          "indexed": false,
          "internalType": "uint256",
          "name": "orderId",
          "type": "uint256"
        },
        {
          "indexed": true,
          "internalType": "address",
          "name": "seller",
          "type": "address"
        },
        {
          "indexed": true,
          "internalType": "address",
          "name": "buyer",
          "type": "address"
        },
        {
          "indexed": true,
          "internalType": "address",
          "name": "receiver",
          "type": "address"
        },
        {
          "indexed": false,
          "internalType": "uint256",
          "name": "amount",
          "type": "uint256"
        },
        {
          "indexed": false,
          "internalType": "uint256",
          "name": "rate",
          "type": "uint256"
        },
        {
          "indexed": false,
          "internalType": "uint256",
          "name": "fee",
          "type": "uint256"
        },
        {
          "indexed": false,
          "internalType": "uint8",
          "name": "orderType",
          "type": "uint8"
        },
        {
          "indexed": false,
          "internalType": "uint256",
          "name": "fulfiledTime",
          "type": "uint256"
        },
        {
          "indexed": false,
          "internalType": "uint8",
          "name": "orderStatus",
          "type": "uint8"
        }
      ],
      "name": "ClosedOrder",
      "type": "event"
    },
    {
      "anonymous": false,
      "inputs": [
        {
          "indexed": false,
          "internalType": "uint256",
          "name": "orderId",
          "type": "uint256"
        },
        {
          "indexed": true,
          "internalType": "address",
          "name": "seller",
          "type": "address"
        },
        {
          "indexed": true,
          "internalType": "address",
          "name": "buyer",
          "type": "address"
        },
        {
          "indexed": true,
          "internalType": "address",
          "name": "receiver",
          "type": "address"
        },
        {
          "indexed": false,
          "internalType": "uint256",
          "name": "amount",
          "type": "uint256"
        },
        {
          "indexed": false,
          "internalType": "uint256",
          "name": "rate",
          "type": "uint256"
        },
        {
          "indexed": false,
          "internalType": "uint256",
          "name": "fee",
          "type": "uint256"
        },
        {
          "indexed": false,
          "internalType": "uint8",
          "name": "orderType",
          "type": "uint8"
        },
        {
          "indexed": false,
          "internalType": "uint8",
          "name": "orderStatus",
          "type": "uint8"
        }
      ],
      "name": "OpenOrder",
      "type": "event"
    },
    {
      "anonymous": false,
      "inputs": [
        {
          "indexed": false,
          "internalType": "uint256",
          "name": "orderId",
          "type": "uint256"
        }
      ],
      "name": "OrderFulfilled",
      "type": "event"
    },
    {
      "inputs": [],
      "name": "ochestrator",
      "outputs": [
        {
          "internalType": "address",
          "name": "",
          "type": "address"
        }
      ],
      "stateMutability": "view",
      "type": "function"
    },
    {
      "inputs": [
        {
          "internalType": "address",
          "name": "",
          "type": "address"
        },
        {
          "internalType": "uint256",
          "name": "",
          "type": "uint256"
        }
      ],
      "name": "openOrders",
      "outputs": [
        {
          "internalType": "uint256",
          "name": "",
          "type": "uint256"
        }
      ],
      "stateMutability": "view",
      "type": "function"
    },
    {
      "inputs": [
        {
          "internalType": "uint256",
          "name": "",
          "type": "uint256"
        }
      ],
      "name": "orders",
      "outputs": [
        {
          "internalType": "address",
          "name": "seller",
          "type": "address"
        },
        {
          "internalType": "address",
          "name": "buyer",
          "type": "address"
        },
        {
          "internalType": "address",
          "name": "receiver",
          "type": "address"
        },
        {
          "internalType": "uint256",
          "name": "amount",
          "type": "uint256"
        },
        {
          "internalType": "uint256",
          "name": "rate",
          "type": "uint256"
        },
        {
          "internalType": "uint256",
          "name": "fee",
          "type": "uint256"
        },
        {
          "internalType": "uint8",
          "name": "orderType",
          "type": "uint8"
        },
        {
          "internalType": "uint8",
          "name": "orderStatus",
          "type": "uint8"
        },
        {
          "internalType": "uint256",
          "name": "startTime",
          "type": "uint256"
        },
        {
          "internalType": "uint256",
          "name": "fulfiledTime",
          "type": "uint256"
        }
      ],
      "stateMutability": "view",
      "type": "function"
    },
    {
      "inputs": [],
      "name": "usdcToken",
      "outputs": [
        {
          "internalType": "address",
          "name": "",
          "type": "address"
        }
      ],
      "stateMutability": "view",
      "type": "function"
    },
    {
      "inputs": [
        {
          "internalType": "address",
          "name": "_seller",
          "type": "address"
        },
        {
          "internalType": "address",
          "name": "_buyer",
          "type": "address"
        },
        {
          "internalType": "address",
          "name": "_receiver",
          "type": "address"
        },
        {
          "internalType": "uint256",
          "name": "_amount",
          "type": "uint256"
        },
        {
          "internalType": "uint256",
          "name": "_rate",
          "type": "uint256"
        },
        {
          "internalType": "uint256",
          "name": "_fee",
          "type": "uint256"
        },
        {
          "internalType": "uint8",
          "name": "_orderType",
          "type": "uint8"
        }
      ],
      "name": "newOrder",
      "outputs": [
        {
          "internalType": "uint256",
          "name": "",
          "type": "uint256"
        }
      ],
      "stateMutability": "nonpayable",
      "type": "function"
    },
    {
      "inputs": [
        {
          "internalType": "address",
          "name": "_seller",
          "type": "address"
        }
      ],
      "name": "numberOfOpenOrders",
      "outputs": [
        {
          "internalType": "uint256",
          "name": "",
          "type": "uint256"
        }
      ],
      "stateMutability": "view",
      "type": "function"
    },
    {
      "inputs": [
        {
          "internalType": "address",
          "name": "_seller",
          "type": "address"
        }
      ],
      "name": "getOpenOrdersOf",
      "outputs": [
        {
          "internalType": "uint256[]",
          "name": "",
          "type": "uint256[]"
        }
      ],
      "stateMutability": "view",
      "type": "function"
    },
    {
      "inputs": [
        {
          "internalType": "uint256",
          "name": "_orderId",
          "type": "uint256"
        }
      ],
      "name": "getOrderById",
      "outputs": [
        {
          "components": [
            {
              "internalType": "address",
              "name": "seller",
              "type": "address"
            },
            {
              "internalType": "address",
              "name": "buyer",
              "type": "address"
            },
            {
              "internalType": "address",
              "name": "receiver",
              "type": "address"
            },
            {
              "internalType": "uint256",
              "name": "amount",
              "type": "uint256"
            },
            {
              "internalType": "uint256",
              "name": "rate",
              "type": "uint256"
            },
            {
              "internalType": "uint256",
              "name": "fee",
              "type": "uint256"
            },
            {
              "internalType": "uint8",
              "name": "orderType",
              "type": "uint8"
            },
            {
              "internalType": "uint8",
              "name": "orderStatus",
              "type": "uint8"
            },
            {
              "internalType": "uint256",
              "name": "startTime",
              "type": "uint256"
            },
            {
              "internalType": "uint256",
              "name": "fulfiledTime",
              "type": "uint256"
            }
          ],
          "internalType": "struct Types.Order",
          "name": "",
          "type": "tuple"
        }
      ],
      "stateMutability": "view",
      "type": "function"
    },
    {
      "inputs": [
        {
          "internalType": "address",
          "name": "_seller",
          "type": "address"
        },
        {
          "internalType": "uint256",
          "name": "_orderId",
          "type": "uint256"
        }
      ],
      "name": "closeOpenOrder",
      "outputs": [],
      "stateMutability": "nonpayable",
      "type": "function"
    },
    {
      "inputs": [
        {
          "internalType": "address",
          "name": "usdcContractAddress",
          "type": "address"
        }
      ],
      "name": "setUsdcTokenAddress",
      "outputs": [],
      "stateMutability": "nonpayable",
      "type": "function"
    },
    {
      "inputs": [],
      "name": "withdrawFeesEarned",
      "outputs": [],
      "stateMutability": "nonpayable",
      "type": "function"
    }
  ],
  "bytecode": "0x60806040523480156200001157600080fd5b5060405162001b7038038062001b70833981810160405281019062000037919062000096565b80600260006101000a81548173ffffffffffffffffffffffffffffffffffffffff021916908373ffffffffffffffffffffffffffffffffffffffff160217905550506200011b565b600081519050620000908162000101565b92915050565b600060208284031215620000af57620000ae620000fc565b5b6000620000bf848285016200007f565b91505092915050565b6000620000d582620000dc565b9050919050565b600073ffffffffffffffffffffffffffffffffffffffff82169050919050565b600080fd5b6200010c81620000c8565b81146200011857600080fd5b50565b611a45806200012b6000396000f3fe608060405234801561001057600080fd5b50600436106100c6576000357c0100000000000000000000000000000000000000000000000000000000900480636dee20321161008e5780636dee2032146101835780639c811d43146101b3578063a85c38ef146101d1578063b00f215c1461020a578063b1fab21c14610226578063f3fd622f14610256576100c6565b806311a21b2c146100cb57806311eac855146100d55780631e7cea80146100f357806332c011171461012357806342b50a7a14610153575b600080fd5b6100d3610272565b005b6100dd6104be565b6040516100ea91906114f5565b60405180910390f35b61010d600480360381019061010891906111d4565b6104e4565b60405161011a91906116b3565b60405180910390f35b61013d60048036038101906101389190611105565b610515565b60405161014a91906116b3565b60405180910390f35b61016d60048036038101906101689190611241565b610561565b60405161017a9190611697565b60405180910390f35b61019d60048036038101906101989190611105565b61070c565b6040516101aa91906115d5565b60405180910390f35b6101bb6107a3565b6040516101c891906114f5565b60405180910390f35b6101eb60048036038101906101e69190611241565b6107c9565b6040516102019a99989796959493929190611510565b60405180910390f35b610224600480360381019061021f91906111d4565b6108a7565b005b610240600480360381019061023b9190611132565b610aeb565b60405161024d91906116b3565b60405180910390f35b610270600480360381019061026b9190611105565b610ebd565b005b600260009054906101000a900473ffffffffffffffffffffffffffffffffffffffff1673ffffffffffffffffffffffffffffffffffffffff163373ffffffffffffffffffffffffffffffffffffffff1614610302576040517f08c379a00000000000000000000000000000000000000000000000000000000081526004016102f990611677565b60405180910390fd5b6000600360009054906101000a900473ffffffffffffffffffffffffffffffffffffffff1673ffffffffffffffffffffffffffffffffffffffff166370a08231306040518263ffffffff167c010000000000000000000000000000000000000000000000000000000002815260040161037b91906114f5565b60206040518083038186803b15801561039357600080fd5b505afa1580156103a7573d6000803e3d6000fd5b505050506040513d601f19601f820116820180604052508101906103cb919061126e565b9050600360009054906101000a900473ffffffffffffffffffffffffffffffffffffffff1673ffffffffffffffffffffffffffffffffffffffff1663a9059cbb600260009054906101000a900473ffffffffffffffffffffffffffffffffffffffff16836040518363ffffffff167c01000000000000000000000000000000000000000000000000000000000281526004016104689291906115ac565b602060405180830381600087803b15801561048257600080fd5b505af1158015610496573d6000803e3d6000fd5b505050506040513d601f19601f820116820180604052508101906104ba9190611214565b5050565b600360009054906101000a900473ffffffffffffffffffffffffffffffffffffffff1681565b6001602052816000526040600020818154811061050057600080fd5b90600052602060002001600091509150505481565b6000600160008373ffffffffffffffffffffffffffffffffffffffff1673ffffffffffffffffffffffffffffffffffffffff168152602001908152602001600020805490509050919050565b610569611001565b6000828154811061057d5761057c6118b2565b5b9060005260206000209060090201604051806101400160405290816000820160009054906101000a900473ffffffffffffffffffffffffffffffffffffffff1673ffffffffffffffffffffffffffffffffffffffff1673ffffffffffffffffffffffffffffffffffffffff1681526020016001820160009054906101000a900473ffffffffffffffffffffffffffffffffffffffff1673ffffffffffffffffffffffffffffffffffffffff1673ffffffffffffffffffffffffffffffffffffffff1681526020016002820160009054906101000a900473ffffffffffffffffffffffffffffffffffffffff1673ffffffffffffffffffffffffffffffffffffffff1673ffffffffffffffffffffffffffffffffffffffff1681526020016003820154815260200160048201548152602001600582015481526020016006820160009054906101000a900460ff1660ff1660ff1681526020016006820160019054906101000a900460ff1660ff1660ff168152602001600782015481526020016008820154815250509050919050565b6060600160008373ffffffffffffffffffffffffffffffffffffffff1673ffffffffffffffffffffffffffffffffffffffff16815260200190815260200160002080548060200260200160405190810160405280929190818152602001828054801561079757602002820191906000526020600020905b815481526020019060010190808311610783575b50505050509050919050565b600260009054906101000a900473ffffffffffffffffffffffffffffffffffffffff1681565b600081815481106107d957600080fd5b90600052602060002090600902016000915090508060000160009054906101000a900473ffffffffffffffffffffffffffffffffffffffff16908060010160009054906101000a900473ffffffffffffffffffffffffffffffffffffffff16908060020160009054906101000a900473ffffffffffffffffffffffffffffffffffffffff16908060030154908060040154908060050154908060060160009054906101000a900460ff16908060060160019054906101000a900460ff1690806007015490806008015490508a565b8173ffffffffffffffffffffffffffffffffffffffff163373ffffffffffffffffffffffffffffffffffffffff1614610915576040517f08c379a000000000000000000000000000000000000000000000000000000000815260040161090c90611637565b60405180910390fd5b600160008373ffffffffffffffffffffffffffffffffffffffff1673ffffffffffffffffffffffffffffffffffffffff1681526020019081526020016000208181548110610966576109656118b2565b5b90600052602060002001600090556000808281548110610989576109886118b2565b5b9060005260206000209060090201905042816008018190555060018160060160016101000a81548160ff021916908360ff1602179055508060020160009054906101000a900473ffffffffffffffffffffffffffffffffffffffff1673ffffffffffffffffffffffffffffffffffffffff168160010160009054906101000a900473ffffffffffffffffffffffffffffffffffffffff1673ffffffffffffffffffffffffffffffffffffffff168260000160009054906101000a900473ffffffffffffffffffffffffffffffffffffffff1673ffffffffffffffffffffffffffffffffffffffff167f7296e5ad5c0ce57fe4cbceb3362886c7162b073357dd6b39025453458f6f8482858560030154866004015487600501548860060160009054906101000a900460ff1689600801548a60060160019054906101000a900460ff16604051610ade979695949392919061172f565b60405180910390a4505050565b60008673ffffffffffffffffffffffffffffffffffffffff163373ffffffffffffffffffffffffffffffffffffffff1614610b5b576040517f08c379a0000000000000000000000000000000000000000000000000000000008152600401610b52906115f7565b60405180910390fd5b60008511610b9e576040517f08c379a0000000000000000000000000000000000000000000000000000000008152600401610b9590611617565b60405180910390fd5b60006040518061014001604052808a73ffffffffffffffffffffffffffffffffffffffff1681526020018973ffffffffffffffffffffffffffffffffffffffff1681526020018873ffffffffffffffffffffffffffffffffffffffff1681526020018781526020018681526020018581526020018460ff168152602001600060ff16815260200142815260200160008152509050600081908060018154018082558091505060019003906000526020600020906009020160009091909190915060008201518160000160006101000a81548173ffffffffffffffffffffffffffffffffffffffff021916908373ffffffffffffffffffffffffffffffffffffffff16021790555060208201518160010160006101000a81548173ffffffffffffffffffffffffffffffffffffffff021916908373ffffffffffffffffffffffffffffffffffffffff16021790555060408201518160020160006101000a81548173ffffffffffffffffffffffffffffffffffffffff021916908373ffffffffffffffffffffffffffffffffffffffff160217905550606082015181600301556080820151816004015560a0820151816005015560c08201518160060160006101000a81548160ff021916908360ff16021790555060e08201518160060160016101000a81548160ff021916908360ff16021790555061010082015181600701556101208201518160080155505060006001600080549050610dbf91906117e8565b9050600160008b73ffffffffffffffffffffffffffffffffffffffff1673ffffffffffffffffffffffffffffffffffffffff1681526020019081526020016000208190806001815401808255809150506001900390600052602060002001600090919091909150558773ffffffffffffffffffffffffffffffffffffffff168973ffffffffffffffffffffffffffffffffffffffff168b73ffffffffffffffffffffffffffffffffffffffff167e23c8dda5a5d69bbdf1f810b48e0b0fff6827cca652b18c81b25d8759bf67f2848b8b8b8b6000604051610ea5969594939291906116ce565b60405180910390a48092505050979650505050505050565b600260009054906101000a900473ffffffffffffffffffffffffffffffffffffffff1673ffffffffffffffffffffffffffffffffffffffff163373ffffffffffffffffffffffffffffffffffffffff1614610f4d576040517f08c379a0000000000000000000000000000000000000000000000000000000008152600401610f4490611677565b60405180910390fd5b600073ffffffffffffffffffffffffffffffffffffffff168173ffffffffffffffffffffffffffffffffffffffff161415610fbd576040517f08c379a0000000000000000000000000000000000000000000000000000000008152600401610fb490611657565b60405180910390fd5b80600360006101000a81548173ffffffffffffffffffffffffffffffffffffffff021916908373ffffffffffffffffffffffffffffffffffffffff16021790555050565b604051806101400160405280600073ffffffffffffffffffffffffffffffffffffffff168152602001600073ffffffffffffffffffffffffffffffffffffffff168152602001600073ffffffffffffffffffffffffffffffffffffffff168152602001600081526020016000815260200160008152602001600060ff168152602001600060ff16815260200160008152602001600081525090565b6000813590506110ab816119b3565b92915050565b6000815190506110c0816119ca565b92915050565b6000813590506110d5816119e1565b92915050565b6000815190506110ea816119e1565b92915050565b6000813590506110ff816119f8565b92915050565b60006020828403121561111b5761111a6118e1565b5b60006111298482850161109c565b91505092915050565b600080600080600080600060e0888a031215611151576111506118e1565b5b600061115f8a828b0161109c565b97505060206111708a828b0161109c565b96505060406111818a828b0161109c565b95505060606111928a828b016110c6565b94505060806111a38a828b016110c6565b93505060a06111b48a828b016110c6565b92505060c06111c58a828b016110f0565b91505092959891949750929550565b600080604083850312156111eb576111ea6118e1565b5b60006111f98582860161109c565b925050602061120a858286016110c6565b9150509250929050565b60006020828403121561122a576112296118e1565b5b6000611238848285016110b1565b91505092915050565b600060208284031215611257576112566118e1565b5b6000611265848285016110c6565b91505092915050565b600060208284031215611284576112836118e1565b5b6000611292848285016110db565b91505092915050565b60006112a783836114b9565b60208301905092915050565b6112bc8161181c565b82525050565b6112cb8161181c565b82525050565b60006112dc826117ae565b6112e681856117c6565b93506112f18361179e565b8060005b83811015611322578151611309888261129b565b9750611314836117b9565b9250506001810190506112f5565b5085935050505092915050565b61133881611871565b82525050565b600061134b6010836117d7565b9150611356826118e6565b602082019050919050565b600061136e6010836117d7565b91506113798261190f565b602082019050919050565b6000611391600e836117d7565b915061139c82611938565b602082019050919050565b60006113b46012836117d7565b91506113bf82611961565b602082019050919050565b60006113d76013836117d7565b91506113e28261198a565b602082019050919050565b6101408201600082015161140460008501826112b3565b50602082015161141760208501826112b3565b50604082015161142a60408501826112b3565b50606082015161143d60608501826114b9565b50608082015161145060808501826114b9565b5060a082015161146360a08501826114b9565b5060c082015161147660c08501826114d7565b5060e082015161148960e08501826114d7565b5061010082015161149e6101008501826114b9565b506101208201516114b36101208501826114b9565b50505050565b6114c28161185a565b82525050565b6114d18161185a565b82525050565b6114e081611864565b82525050565b6114ef81611864565b82525050565b600060208201905061150a60008301846112c2565b92915050565b600061014082019050611526600083018d6112c2565b611533602083018c6112c2565b611540604083018b6112c2565b61154d606083018a6114c8565b61155a60808301896114c8565b61156760a08301886114c8565b61157460c08301876114e6565b61158160e08301866114e6565b61158f6101008301856114c8565b61159d6101208301846114c8565b9b9a5050505050505050505050565b60006040820190506115c160008301856112c2565b6115ce60208301846114c8565b9392505050565b600060208201905081810360008301526115ef81846112d1565b905092915050565b600060208201905081810360008301526116108161133e565b9050919050565b6000602082019050818103600083015261163081611361565b9050919050565b6000602082019050818103600083015261165081611384565b9050919050565b60006020820190508181036000830152611670816113a7565b9050919050565b60006020820190508181036000830152611690816113ca565b9050919050565b6000610140820190506116ad60008301846113ed565b92915050565b60006020820190506116c860008301846114c8565b92915050565b600060c0820190506116e360008301896114c8565b6116f060208301886114c8565b6116fd60408301876114c8565b61170a60608301866114c8565b61171760808301856114e6565b61172460a083018461132f565b979650505050505050565b600060e082019050611744600083018a6114c8565b61175160208301896114c8565b61175e60408301886114c8565b61176b60608301876114c8565b61177860808301866114e6565b61178560a08301856114c8565b61179260c08301846114e6565b98975050505050505050565b6000819050602082019050919050565b600081519050919050565b6000602082019050919050565b600082825260208201905092915050565b600082825260208201905092915050565b60006117f38261185a565b91506117fe8361185a565b92508282101561181157611810611883565b5b828203905092915050565b60006118278261183a565b9050919050565b60008115159050919050565b600073ffffffffffffffffffffffffffffffffffffffff82169050919050565b6000819050919050565b600060ff82169050919050565b600061187c82611864565b9050919050565b7f4e487b7100000000000000000000000000000000000000000000000000000000600052601160045260246000fd5b7f4e487b7100000000000000000000000000000000000000000000000000000000600052603260045260246000fd5b600080fd5b7f433a20637573746f6d6572206f6e6c7900000000000000000000000000000000600082015250565b7f433a20696e76616c6964206f7264657200000000000000000000000000000000600082015250565b7f433a206f6e6c792073656c6c6572000000000000000000000000000000000000600082015250565b7f463a20696e76616c696420616464726573730000000000000000000000000000600082015250565b7f463a206f6e6c79206f63686573747261746f7200000000000000000000000000600082015250565b6119bc8161181c565b81146119c757600080fd5b50565b6119d38161182e565b81146119de57600080fd5b50565b6119ea8161185a565b81146119f557600080fd5b50565b611a0181611864565b8114611a0c57600080fd5b5056fea264697066735822122074d964c6bb3a15b9a38043dea6657c966f0727e8b7f0320f0e523e59e65e4eab64736f6c63430008060033",
  "immutableReferences": {},
  "source": "// SPDX-License-Identifier: MIT\npragma solidity ^0.8.0;\n\nimport \"@openzeppelin/contracts/token/ERC20/IERC20.sol\";\nimport \"./Types.sol\";\n\ncontract Escrow is Types {\n  ////////////////////////////////////////\n  //                                    //\n  //         STATE VARIABLES            //\n  //                                    //\n  ////////////////////////////////////////\n\n  /// @notice EOA of deployer wallet\n  address public ochestrator;\n\n  /// @notice address of accepted USDC on deployed chain\n  address public usdcToken;\n\n  ////////////////////////////////////////\n  //                                    //\n  //              FUNCTIONS             //\n  //                                    //\n  ////////////////////////////////////////\n  modifier onlyOchesrator() {\n    require(msg.sender == ochestrator, \"F: only ochestrator\");\n    _;\n  }\n\n  constructor(address _ochestrator) {\n    ochestrator = _ochestrator;\n  }\n\n  /**\n   * @param _seller is the address of the vendor\n   * @param _buyer is the address of the customer\n   * @param _amount is the amount of USD to be transferred plus fees (18 decimals)\n   * @param _rate is the rate to buy usdc against customer fiat\n   * @param _fee is the amount of fees to be paid to the escrow to be minus from _amount (18 decimals)\n   * @param _orderType is the type of order (0: buy, 1: sell)\n   */\n  function newOrder(\n    address _seller,\n    address _buyer,\n    address _receiver,\n    uint256 _amount,\n    uint256 _rate,\n    uint256 _fee,\n    uint8 _orderType\n  ) public returns (uint256) {\n    require(msg.sender == _buyer, \"C: customer only\");\n    require(_amount > 0, \"C: invalid order\");\n\n    Order memory order = Order(\n      _seller,\n      _buyer,\n      _receiver,\n      _amount,\n      _rate,\n      _fee,\n      _orderType,\n      0, // open\n      block.timestamp,\n      0\n    );\n\n    orders.push(order);\n\n    uint256 orderId = orders.length - 1;\n\n    openOrders[_seller].push(orderId);\n\n    emit OpenOrder(\n      orderId,\n      _seller,\n      _buyer,\n      _receiver,\n      _amount,\n      _rate,\n      _fee,\n      _orderType,\n      0 // open\n    );\n\n    return orderId;\n  }\n\n  function numberOfOpenOrders(address _seller) public view returns (uint256) {\n    return openOrders[_seller].length;\n  }\n\n  function getOpenOrdersOf(address _seller)\n    public\n    view\n    returns (uint256[] memory)\n  {\n    return openOrders[_seller];\n  }\n\n  function getOrderById(uint256 _orderId) public view returns (Order memory) {\n    return orders[_orderId];\n  }\n\n  function closeOpenOrder(address _seller, uint256 _orderId) public {\n    require(msg.sender == _seller, \"C: only seller\");\n    delete openOrders[_seller][_orderId];\n\n    Order storage order = orders[_orderId];\n\n    order.fulfiledTime = block.timestamp;\n    order.orderStatus = 1; // closed\n\n    emit ClosedOrder(\n      _orderId,\n      order.seller,\n      order.buyer,\n      order.receiver,\n      order.amount,\n      order.rate,\n      order.fee,\n      order.orderType,\n      order.fulfiledTime,\n      order.orderStatus\n    );\n  }\n\n  /**\n   * @dev allow deployer to update of USD Token contract address\n   * @param usdcContractAddress is the address of the chosen stabel currency to accepted\n   * Note use with caution, once a certain USD token is accepted changing will make the other USD token stuck\n   */\n  function setUsdcTokenAddress(address usdcContractAddress)\n    public\n    onlyOchesrator\n  {\n    require(usdcContractAddress != address(0x0), \"F: invalid address\");\n    usdcToken = usdcContractAddress;\n  }\n\n  /**\n   * @dev allow deployer to withdraw all fees earned from escrow\n   */\n  function withdrawFeesEarned() public onlyOchesrator {\n    uint256 totalFeeEarned = IERC20(usdcToken).balanceOf(address(this));\n\n    IERC20(usdcToken).transfer(ochestrator, totalFeeEarned);\n  }\n}\n",
  "sourcePath": "/Users/drewhyte/Sites/SOLIDITY/piggyfi-contract-avax-poc/contracts/Escrow.sol",
  "compiler": {
    "name": "solc",
    "version": "0.8.6+commit.11564f7e.Emscripten.clang"
  },
  "schemaVersion": "3.4.6",
  "updatedAt": "2022-05-04T11:59:21.209Z",
  "devdoc": {
    "kind": "dev",
    "methods": {
      "newOrder(address,address,address,uint256,uint256,uint256,uint8)": {
        "params": {
          "_amount": "is the amount of USD to be transferred plus fees (18 decimals)",
          "_buyer": "is the address of the customer",
          "_fee": "is the amount of fees to be paid to the escrow to be minus from _amount (18 decimals)",
          "_orderType": "is the type of order (0: buy, 1: sell)",
          "_rate": "is the rate to buy usdc against customer fiat",
          "_seller": "is the address of the vendor"
        }
      },
      "setUsdcTokenAddress(address)": {
        "details": "allow deployer to update of USD Token contract address",
        "params": {
          "usdcContractAddress": "is the address of the chosen stabel currency to accepted Note use with caution, once a certain USD token is accepted changing will make the other USD token stuck"
        }
      },
      "withdrawFeesEarned()": {
        "details": "allow deployer to withdraw all fees earned from escrow"
      }
    },
    "version": 1
  },
  "userdoc": {
    "kind": "user",
    "methods": {
      "ochestrator()": {
        "notice": "EOA of deployer wallet"
      },
      "usdcToken()": {
        "notice": "address of accepted USDC on deployed chain"
      }
    },
    "version": 1
  }
}