{
  "contractName": "Factory",
  "abi": [
    {
      "inputs": [],
      "stateMutability": "nonpayable",
      "type": "constructor"
    },
    {
      "anonymous": false,
      "inputs": [
        {
          "indexed": false,
          "internalType": "string",
          "name": "uniqueId",
          "type": "string"
        },
        {
          "indexed": true,
          "internalType": "address",
          "name": "account",
          "type": "address"
        }
      ],
      "name": "NewCustodian",
      "type": "event"
    },
    {
      "inputs": [
        {
          "internalType": "string",
          "name": "",
          "type": "string"
        }
      ],
      "name": "accounts",
      "outputs": [
        {
          "internalType": "address",
          "name": "",
          "type": "address"
        }
      ],
      "stateMutability": "view",
      "type": "function"
    },
    {
      "inputs": [],
      "name": "custodianWalletLogic",
      "outputs": [
        {
          "internalType": "address",
          "name": "",
          "type": "address"
        }
      ],
      "stateMutability": "view",
      "type": "function"
    },
    {
      "inputs": [],
      "name": "escrowContractAddress",
      "outputs": [
        {
          "internalType": "address",
          "name": "",
          "type": "address"
        }
      ],
      "stateMutability": "view",
      "type": "function"
    },
    {
      "inputs": [],
      "name": "ochestrator",
      "outputs": [
        {
          "internalType": "address",
          "name": "",
          "type": "address"
        }
      ],
      "stateMutability": "view",
      "type": "function"
    },
    {
      "inputs": [
        {
          "internalType": "string",
          "name": "uuid",
          "type": "string"
        }
      ],
      "name": "newCustodian",
      "outputs": [
        {
          "internalType": "string",
          "name": "",
          "type": "string"
        },
        {
          "internalType": "address",
          "name": "",
          "type": "address"
        }
      ],
      "stateMutability": "nonpayable",
      "type": "function"
    }
  ],
  "bytecode": "0x608060405234801561001057600080fd5b50336000806101000a81548173ffffffffffffffffffffffffffffffffffffffff021916908373ffffffffffffffffffffffffffffffffffffffff1602179055503360405161005e90610133565b610068919061015c565b604051809103906000f080158015610084573d6000803e3d6000fd5b50600260006101000a81548173ffffffffffffffffffffffffffffffffffffffff021916908373ffffffffffffffffffffffffffffffffffffffff1602179055506040516100d190610140565b604051809103906000f0801580156100ed573d6000803e3d6000fd5b50600160006101000a81548173ffffffffffffffffffffffffffffffffffffffff021916908373ffffffffffffffffffffffffffffffffffffffff1602179055506101a9565b611b708061140e83390190565b611faa80612f7e83390190565b61015681610177565b82525050565b6000602082019050610171600083018461014d565b92915050565b600061018282610189565b9050919050565b600073ffffffffffffffffffffffffffffffffffffffff82169050919050565b611256806101b86000396000f3fe608060405234801561001057600080fd5b5060043610610074576000357c010000000000000000000000000000000000000000000000000000000090048063303904141461007957806333a676ed146100a95780639b7fbea6146100c75780639c811d43146100f8578063d226ae0814610116575b600080fd5b610093600480360381019061008e91906104df565b610134565b6040516100a091906105fe565b60405180910390f35b6100b161017d565b6040516100be91906105fe565b60405180910390f35b6100e160048036038101906100dc91906104df565b6101a3565b6040516100ef929190610672565b60405180910390f35b610100610418565b60405161010d91906105fe565b60405180910390f35b61011e61043c565b60405161012b91906105fe565b60405180910390f35b6003818051602081018201805184825260208301602085012081835280955050505050506000915054906101000a900473ffffffffffffffffffffffffffffffffffffffff1681565b600160009054906101000a900473ffffffffffffffffffffffffffffffffffffffff1681565b606060008060009054906101000a900473ffffffffffffffffffffffffffffffffffffffff1673ffffffffffffffffffffffffffffffffffffffff163373ffffffffffffffffffffffffffffffffffffffff1614610236576040517f08c379a000000000000000000000000000000000000000000000000000000000815260040161022d906106a2565b60405180910390fd5b600073ffffffffffffffffffffffffffffffffffffffff1660038460405161025e91906105e7565b908152602001604051809103902060009054906101000a900473ffffffffffffffffffffffffffffffffffffffff1673ffffffffffffffffffffffffffffffffffffffff16146102e3576040517f08c379a00000000000000000000000000000000000000000000000000000000081526004016102da906106c2565b60405180910390fd5b6000600160009054906101000a900473ffffffffffffffffffffffffffffffffffffffff1660008054906101000a900473ffffffffffffffffffffffffffffffffffffffff163060405161033690610462565b61034293929190610619565b604051809103906000f08015801561035e573d6000803e3d6000fd5b5090508060038560405161037291906105e7565b908152602001604051809103902060006101000a81548173ffffffffffffffffffffffffffffffffffffffff021916908373ffffffffffffffffffffffffffffffffffffffff1602179055508073ffffffffffffffffffffffffffffffffffffffff167f6eaee8201a623d4ec5397b1feccc8f1ee1dc236fc702e24142f618ada708859d856040516104049190610650565b60405180910390a283819250925050915091565b60008054906101000a900473ffffffffffffffffffffffffffffffffffffffff1681565b600260009054906101000a900473ffffffffffffffffffffffffffffffffffffffff1681565b610976806108ab83390190565b600061048261047d84610707565b6106e2565b90508281526020810184848401111561049e5761049d610838565b5b6104a9848285610791565b509392505050565b600082601f8301126104c6576104c5610833565b5b81356104d684826020860161046f565b91505092915050565b6000602082840312156104f5576104f4610842565b5b600082013567ffffffffffffffff8111156105135761051261083d565b5b61051f848285016104b1565b91505092915050565b6105318161075f565b82525050565b600061054282610738565b61054c8185610743565b935061055c8185602086016107a0565b61056581610847565b840191505092915050565b600061057b82610738565b6105858185610754565b93506105958185602086016107a0565b80840191505092915050565b60006105ae601383610743565b91506105b982610858565b602082019050919050565b60006105d1601083610743565b91506105dc82610881565b602082019050919050565b60006105f38284610570565b915081905092915050565b60006020820190506106136000830184610528565b92915050565b600060608201905061062e6000830186610528565b61063b6020830185610528565b6106486040830184610528565b949350505050565b6000602082019050818103600083015261066a8184610537565b905092915050565b6000604082019050818103600083015261068c8185610537565b905061069b6020830184610528565b9392505050565b600060208201905081810360008301526106bb816105a1565b9050919050565b600060208201905081810360008301526106db816105c4565b9050919050565b60006106ec6106fd565b90506106f882826107d3565b919050565b6000604051905090565b600067ffffffffffffffff82111561072257610721610804565b5b61072b82610847565b9050602081019050919050565b600081519050919050565b600082825260208201905092915050565b600081905092915050565b600061076a82610771565b9050919050565b600073ffffffffffffffffffffffffffffffffffffffff82169050919050565b82818337600083830152505050565b60005b838110156107be5780820151818401526020810190506107a3565b838111156107cd576000848401525b50505050565b6107dc82610847565b810181811067ffffffffffffffff821117156107fb576107fa610804565b5b80604052505050565b7f4e487b7100000000000000000000000000000000000000000000000000000000600052604160045260246000fd5b600080fd5b600080fd5b600080fd5b600080fd5b6000601f19601f8301169050919050565b7f463a206f6e6c79206f63686573747261746f7200000000000000000000000000600082015250565b7f463a206163636f756e742065786973740000000000000000000000000000000060008201525056fe60c060405234801561001057600080fd5b5060405161097638038061097683398181016040528101906100329190610116565b8173ffffffffffffffffffffffffffffffffffffffff1660a08173ffffffffffffffffffffffffffffffffffffffff166c0100000000000000000000000002815250508273ffffffffffffffffffffffffffffffffffffffff1660808173ffffffffffffffffffffffffffffffffffffffff166c01000000000000000000000000028152505080600260006101000a81548173ffffffffffffffffffffffffffffffffffffffff021916908373ffffffffffffffffffffffffffffffffffffffff1602179055505050506101b7565b600081519050610110816101a0565b92915050565b60008060006060848603121561012f5761012e61019b565b5b600061013d86828701610101565b935050602061014e86828701610101565b925050604061015f86828701610101565b9150509250925092565b60006101748261017b565b9050919050565b600073ffffffffffffffffffffffffffffffffffffffff82169050919050565b600080fd5b6101a981610169565b81146101b457600080fd5b50565b6080516c01000000000000000000000000900460a0516c01000000000000000000000000900461076d61020960003960008181607401526102f2015260008181610104015261041a015261076d6000f3fe60806040526004361061006b576000357c0100000000000000000000000000000000000000000000000000000000900480631e7cea80146101bb5780639c811d43146101f8578063a85c38ef14610223578063c45a015514610269578063d7dfa0dd1461029457610072565b3661007257005b7f000000000000000000000000000000000000000000000000000000000000000073ffffffffffffffffffffffffffffffffffffffff163373ffffffffffffffffffffffffffffffffffffffff1614610100576040517f08c379a00000000000000000000000000000000000000000000000000000000081526004016100f7906105fd565b60405180910390fd5b60007f00000000000000000000000000000000000000000000000000000000000000009050600073ffffffffffffffffffffffffffffffffffffffff168173ffffffffffffffffffffffffffffffffffffffff161415610195576040517f08c379a000000000000000000000000000000000000000000000000000000000815260040161018c9061061d565b60405180910390fd5b3660008037600080366000845af43d6000803e80600081146101b6573d6000f35b3d6000fd5b3480156101c757600080fd5b506101e260048036038101906101dd9190610466565b6102bf565b6040516101ef919061063d565b60405180910390f35b34801561020457600080fd5b5061020d6102f0565b60405161021a9190610546565b60405180910390f35b34801561022f57600080fd5b5061024a600480360381019061024591906104a6565b610314565b6040516102609a99989796959493929190610561565b60405180910390f35b34801561027557600080fd5b5061027e6103f2565b60405161028b9190610546565b60405180910390f35b3480156102a057600080fd5b506102a9610418565b6040516102b69190610546565b60405180910390f35b600160205281600052604060002081815481106102db57600080fd5b90600052602060002001600091509150505481565b7f000000000000000000000000000000000000000000000000000000000000000081565b6000818154811061032457600080fd5b90600052602060002090600902016000915090508060000160009054906101000a900473ffffffffffffffffffffffffffffffffffffffff16908060010160009054906101000a900473ffffffffffffffffffffffffffffffffffffffff16908060020160009054906101000a900473ffffffffffffffffffffffffffffffffffffffff16908060030154908060040154908060050154908060060160009054906101000a900460ff16908060060160019054906101000a900460ff1690806007015490806008015490508a565b600260009054906101000a900473ffffffffffffffffffffffffffffffffffffffff1681565b7f000000000000000000000000000000000000000000000000000000000000000081565b60008135905061044b81610709565b92915050565b60008135905061046081610720565b92915050565b6000806040838503121561047d5761047c6106b2565b5b600061048b8582860161043c565b925050602061049c85828601610451565b9150509250929050565b6000602082840312156104bc576104bb6106b2565b5b60006104ca84828501610451565b91505092915050565b6104dc81610669565b82525050565b60006104ef601183610658565b91506104fa826106b7565b602082019050919050565b6000610512601683610658565b915061051d826106e0565b602082019050919050565b6105318161069b565b82525050565b610540816106a5565b82525050565b600060208201905061055b60008301846104d3565b92915050565b600061014082019050610577600083018d6104d3565b610584602083018c6104d3565b610591604083018b6104d3565b61059e606083018a610528565b6105ab6080830189610528565b6105b860a0830188610528565b6105c560c0830187610537565b6105d260e0830186610537565b6105e0610100830185610528565b6105ee610120830184610528565b9b9a5050505050505050505050565b60006020820190508181036000830152610616816104e2565b9050919050565b6000602082019050818103600083015261063681610505565b9050919050565b60006020820190506106526000830184610528565b92915050565b600082825260208201905092915050565b60006106748261067b565b9050919050565b600073ffffffffffffffffffffffffffffffffffffffff82169050919050565b6000819050919050565b600060ff82169050919050565b600080fd5b7f57503a206465706c6f796572206f6e6c79000000000000000000000000000000600082015250565b7f4c6f67696320636f6e7472616374206e6f742073657400000000000000000000600082015250565b61071281610669565b811461071d57600080fd5b50565b6107298161069b565b811461073457600080fd5b5056fea26469706673582212202a859e5511aae64ed954ba89e63bd974f76d368e58922340aa034ed5a5e115a264736f6c63430008060033a2646970667358221220e5718791c6ba99274f36a30c98b1c06abbfec0cf14b2a7ee97b80241a513bb7c64736f6c6343000806003360806040523480156200001157600080fd5b5060405162001b7038038062001b70833981810160405281019062000037919062000096565b80600260006101000a81548173ffffffffffffffffffffffffffffffffffffffff021916908373ffffffffffffffffffffffffffffffffffffffff160217905550506200011b565b600081519050620000908162000101565b92915050565b600060208284031215620000af57620000ae620000fc565b5b6000620000bf848285016200007f565b91505092915050565b6000620000d582620000dc565b9050919050565b600073ffffffffffffffffffffffffffffffffffffffff82169050919050565b600080fd5b6200010c81620000c8565b81146200011857600080fd5b50565b611a45806200012b6000396000f3fe608060405234801561001057600080fd5b50600436106100c6576000357c0100000000000000000000000000000000000000000000000000000000900480636dee20321161008e5780636dee2032146101835780639c811d43146101b3578063a85c38ef146101d1578063b00f215c1461020a578063b1fab21c14610226578063f3fd622f14610256576100c6565b806311a21b2c146100cb57806311eac855146100d55780631e7cea80146100f357806332c011171461012357806342b50a7a14610153575b600080fd5b6100d3610272565b005b6100dd6104be565b6040516100ea91906114f5565b60405180910390f35b61010d600480360381019061010891906111d4565b6104e4565b60405161011a91906116b3565b60405180910390f35b61013d60048036038101906101389190611105565b610515565b60405161014a91906116b3565b60405180910390f35b61016d60048036038101906101689190611241565b610561565b60405161017a9190611697565b60405180910390f35b61019d60048036038101906101989190611105565b61070c565b6040516101aa91906115d5565b60405180910390f35b6101bb6107a3565b6040516101c891906114f5565b60405180910390f35b6101eb60048036038101906101e69190611241565b6107c9565b6040516102019a99989796959493929190611510565b60405180910390f35b610224600480360381019061021f91906111d4565b6108a7565b005b610240600480360381019061023b9190611132565b610aeb565b60405161024d91906116b3565b60405180910390f35b610270600480360381019061026b9190611105565b610ebd565b005b600260009054906101000a900473ffffffffffffffffffffffffffffffffffffffff1673ffffffffffffffffffffffffffffffffffffffff163373ffffffffffffffffffffffffffffffffffffffff1614610302576040517f08c379a00000000000000000000000000000000000000000000000000000000081526004016102f990611677565b60405180910390fd5b6000600360009054906101000a900473ffffffffffffffffffffffffffffffffffffffff1673ffffffffffffffffffffffffffffffffffffffff166370a08231306040518263ffffffff167c010000000000000000000000000000000000000000000000000000000002815260040161037b91906114f5565b60206040518083038186803b15801561039357600080fd5b505afa1580156103a7573d6000803e3d6000fd5b505050506040513d601f19601f820116820180604052508101906103cb919061126e565b9050600360009054906101000a900473ffffffffffffffffffffffffffffffffffffffff1673ffffffffffffffffffffffffffffffffffffffff1663a9059cbb600260009054906101000a900473ffffffffffffffffffffffffffffffffffffffff16836040518363ffffffff167c01000000000000000000000000000000000000000000000000000000000281526004016104689291906115ac565b602060405180830381600087803b15801561048257600080fd5b505af1158015610496573d6000803e3d6000fd5b505050506040513d601f19601f820116820180604052508101906104ba9190611214565b5050565b600360009054906101000a900473ffffffffffffffffffffffffffffffffffffffff1681565b6001602052816000526040600020818154811061050057600080fd5b90600052602060002001600091509150505481565b6000600160008373ffffffffffffffffffffffffffffffffffffffff1673ffffffffffffffffffffffffffffffffffffffff168152602001908152602001600020805490509050919050565b610569611001565b6000828154811061057d5761057c6118b2565b5b9060005260206000209060090201604051806101400160405290816000820160009054906101000a900473ffffffffffffffffffffffffffffffffffffffff1673ffffffffffffffffffffffffffffffffffffffff1673ffffffffffffffffffffffffffffffffffffffff1681526020016001820160009054906101000a900473ffffffffffffffffffffffffffffffffffffffff1673ffffffffffffffffffffffffffffffffffffffff1673ffffffffffffffffffffffffffffffffffffffff1681526020016002820160009054906101000a900473ffffffffffffffffffffffffffffffffffffffff1673ffffffffffffffffffffffffffffffffffffffff1673ffffffffffffffffffffffffffffffffffffffff1681526020016003820154815260200160048201548152602001600582015481526020016006820160009054906101000a900460ff1660ff1660ff1681526020016006820160019054906101000a900460ff1660ff1660ff168152602001600782015481526020016008820154815250509050919050565b6060600160008373ffffffffffffffffffffffffffffffffffffffff1673ffffffffffffffffffffffffffffffffffffffff16815260200190815260200160002080548060200260200160405190810160405280929190818152602001828054801561079757602002820191906000526020600020905b815481526020019060010190808311610783575b50505050509050919050565b600260009054906101000a900473ffffffffffffffffffffffffffffffffffffffff1681565b600081815481106107d957600080fd5b90600052602060002090600902016000915090508060000160009054906101000a900473ffffffffffffffffffffffffffffffffffffffff16908060010160009054906101000a900473ffffffffffffffffffffffffffffffffffffffff16908060020160009054906101000a900473ffffffffffffffffffffffffffffffffffffffff16908060030154908060040154908060050154908060060160009054906101000a900460ff16908060060160019054906101000a900460ff1690806007015490806008015490508a565b8173ffffffffffffffffffffffffffffffffffffffff163373ffffffffffffffffffffffffffffffffffffffff1614610915576040517f08c379a000000000000000000000000000000000000000000000000000000000815260040161090c90611637565b60405180910390fd5b600160008373ffffffffffffffffffffffffffffffffffffffff1673ffffffffffffffffffffffffffffffffffffffff1681526020019081526020016000208181548110610966576109656118b2565b5b90600052602060002001600090556000808281548110610989576109886118b2565b5b9060005260206000209060090201905042816008018190555060018160060160016101000a81548160ff021916908360ff1602179055508060020160009054906101000a900473ffffffffffffffffffffffffffffffffffffffff1673ffffffffffffffffffffffffffffffffffffffff168160010160009054906101000a900473ffffffffffffffffffffffffffffffffffffffff1673ffffffffffffffffffffffffffffffffffffffff168260000160009054906101000a900473ffffffffffffffffffffffffffffffffffffffff1673ffffffffffffffffffffffffffffffffffffffff167f7296e5ad5c0ce57fe4cbceb3362886c7162b073357dd6b39025453458f6f8482858560030154866004015487600501548860060160009054906101000a900460ff1689600801548a60060160019054906101000a900460ff16604051610ade979695949392919061172f565b60405180910390a4505050565b60008673ffffffffffffffffffffffffffffffffffffffff163373ffffffffffffffffffffffffffffffffffffffff1614610b5b576040517f08c379a0000000000000000000000000000000000000000000000000000000008152600401610b52906115f7565b60405180910390fd5b60008511610b9e576040517f08c379a0000000000000000000000000000000000000000000000000000000008152600401610b9590611617565b60405180910390fd5b60006040518061014001604052808a73ffffffffffffffffffffffffffffffffffffffff1681526020018973ffffffffffffffffffffffffffffffffffffffff1681526020018873ffffffffffffffffffffffffffffffffffffffff1681526020018781526020018681526020018581526020018460ff168152602001600060ff16815260200142815260200160008152509050600081908060018154018082558091505060019003906000526020600020906009020160009091909190915060008201518160000160006101000a81548173ffffffffffffffffffffffffffffffffffffffff021916908373ffffffffffffffffffffffffffffffffffffffff16021790555060208201518160010160006101000a81548173ffffffffffffffffffffffffffffffffffffffff021916908373ffffffffffffffffffffffffffffffffffffffff16021790555060408201518160020160006101000a81548173ffffffffffffffffffffffffffffffffffffffff021916908373ffffffffffffffffffffffffffffffffffffffff160217905550606082015181600301556080820151816004015560a0820151816005015560c08201518160060160006101000a81548160ff021916908360ff16021790555060e08201518160060160016101000a81548160ff021916908360ff16021790555061010082015181600701556101208201518160080155505060006001600080549050610dbf91906117e8565b9050600160008b73ffffffffffffffffffffffffffffffffffffffff1673ffffffffffffffffffffffffffffffffffffffff1681526020019081526020016000208190806001815401808255809150506001900390600052602060002001600090919091909150558773ffffffffffffffffffffffffffffffffffffffff168973ffffffffffffffffffffffffffffffffffffffff168b73ffffffffffffffffffffffffffffffffffffffff167e23c8dda5a5d69bbdf1f810b48e0b0fff6827cca652b18c81b25d8759bf67f2848b8b8b8b6000604051610ea5969594939291906116ce565b60405180910390a48092505050979650505050505050565b600260009054906101000a900473ffffffffffffffffffffffffffffffffffffffff1673ffffffffffffffffffffffffffffffffffffffff163373ffffffffffffffffffffffffffffffffffffffff1614610f4d576040517f08c379a0000000000000000000000000000000000000000000000000000000008152600401610f4490611677565b60405180910390fd5b600073ffffffffffffffffffffffffffffffffffffffff168173ffffffffffffffffffffffffffffffffffffffff161415610fbd576040517f08c379a0000000000000000000000000000000000000000000000000000000008152600401610fb490611657565b60405180910390fd5b80600360006101000a81548173ffffffffffffffffffffffffffffffffffffffff021916908373ffffffffffffffffffffffffffffffffffffffff16021790555050565b604051806101400160405280600073ffffffffffffffffffffffffffffffffffffffff168152602001600073ffffffffffffffffffffffffffffffffffffffff168152602001600073ffffffffffffffffffffffffffffffffffffffff168152602001600081526020016000815260200160008152602001600060ff168152602001600060ff16815260200160008152602001600081525090565b6000813590506110ab816119b3565b92915050565b6000815190506110c0816119ca565b92915050565b6000813590506110d5816119e1565b92915050565b6000815190506110ea816119e1565b92915050565b6000813590506110ff816119f8565b92915050565b60006020828403121561111b5761111a6118e1565b5b60006111298482850161109c565b91505092915050565b600080600080600080600060e0888a031215611151576111506118e1565b5b600061115f8a828b0161109c565b97505060206111708a828b0161109c565b96505060406111818a828b0161109c565b95505060606111928a828b016110c6565b94505060806111a38a828b016110c6565b93505060a06111b48a828b016110c6565b92505060c06111c58a828b016110f0565b91505092959891949750929550565b600080604083850312156111eb576111ea6118e1565b5b60006111f98582860161109c565b925050602061120a858286016110c6565b9150509250929050565b60006020828403121561122a576112296118e1565b5b6000611238848285016110b1565b91505092915050565b600060208284031215611257576112566118e1565b5b6000611265848285016110c6565b91505092915050565b600060208284031215611284576112836118e1565b5b6000611292848285016110db565b91505092915050565b60006112a783836114b9565b60208301905092915050565b6112bc8161181c565b82525050565b6112cb8161181c565b82525050565b60006112dc826117ae565b6112e681856117c6565b93506112f18361179e565b8060005b83811015611322578151611309888261129b565b9750611314836117b9565b9250506001810190506112f5565b5085935050505092915050565b61133881611871565b82525050565b600061134b6010836117d7565b9150611356826118e6565b602082019050919050565b600061136e6010836117d7565b91506113798261190f565b602082019050919050565b6000611391600e836117d7565b915061139c82611938565b602082019050919050565b60006113b46012836117d7565b91506113bf82611961565b602082019050919050565b60006113d76013836117d7565b91506113e28261198a565b602082019050919050565b6101408201600082015161140460008501826112b3565b50602082015161141760208501826112b3565b50604082015161142a60408501826112b3565b50606082015161143d60608501826114b9565b50608082015161145060808501826114b9565b5060a082015161146360a08501826114b9565b5060c082015161147660c08501826114d7565b5060e082015161148960e08501826114d7565b5061010082015161149e6101008501826114b9565b506101208201516114b36101208501826114b9565b50505050565b6114c28161185a565b82525050565b6114d18161185a565b82525050565b6114e081611864565b82525050565b6114ef81611864565b82525050565b600060208201905061150a60008301846112c2565b92915050565b600061014082019050611526600083018d6112c2565b611533602083018c6112c2565b611540604083018b6112c2565b61154d606083018a6114c8565b61155a60808301896114c8565b61156760a08301886114c8565b61157460c08301876114e6565b61158160e08301866114e6565b61158f6101008301856114c8565b61159d6101208301846114c8565b9b9a5050505050505050505050565b60006040820190506115c160008301856112c2565b6115ce60208301846114c8565b9392505050565b600060208201905081810360008301526115ef81846112d1565b905092915050565b600060208201905081810360008301526116108161133e565b9050919050565b6000602082019050818103600083015261163081611361565b9050919050565b6000602082019050818103600083015261165081611384565b9050919050565b60006020820190508181036000830152611670816113a7565b9050919050565b60006020820190508181036000830152611690816113ca565b9050919050565b6000610140820190506116ad60008301846113ed565b92915050565b60006020820190506116c860008301846114c8565b92915050565b600060c0820190506116e360008301896114c8565b6116f060208301886114c8565b6116fd60408301876114c8565b61170a60608301866114c8565b61171760808301856114e6565b61172460a083018461132f565b979650505050505050565b600060e082019050611744600083018a6114c8565b61175160208301896114c8565b61175e60408301886114c8565b61176b60608301876114c8565b61177860808301866114e6565b61178560a08301856114c8565b61179260c08301846114e6565b98975050505050505050565b6000819050602082019050919050565b600081519050919050565b6000602082019050919050565b600082825260208201905092915050565b600082825260208201905092915050565b60006117f38261185a565b91506117fe8361185a565b92508282101561181157611810611883565b5b828203905092915050565b60006118278261183a565b9050919050565b60008115159050919050565b600073ffffffffffffffffffffffffffffffffffffffff82169050919050565b6000819050919050565b600060ff82169050919050565b600061187c82611864565b9050919050565b7f4e487b7100000000000000000000000000000000000000000000000000000000600052601160045260246000fd5b7f4e487b7100000000000000000000000000000000000000000000000000000000600052603260045260246000fd5b600080fd5b7f433a20637573746f6d6572206f6e6c7900000000000000000000000000000000600082015250565b7f433a20696e76616c6964206f7264657200000000000000000000000000000000600082015250565b7f433a206f6e6c792073656c6c6572000000000000000000000000000000000000600082015250565b7f463a20696e76616c696420616464726573730000000000000000000000000000600082015250565b7f463a206f6e6c79206f63686573747261746f7200000000000000000000000000600082015250565b6119bc8161181c565b81146119c757600080fd5b50565b6119d38161182e565b81146119de57600080fd5b50565b6119ea8161185a565b81146119f557600080fd5b50565b611a0181611864565b8114611a0c57600080fd5b5056fea264697066735822122074d964c6bb3a15b9a38043dea6657c966f0727e8b7f0320f0e523e59e65e4eab64736f6c63430008060033608060405234801561001057600080fd5b50611f8a806100206000396000f3fe608060405234801561001057600080fd5b50600436106100b0576000357c010000000000000000000000000000000000000000000000000000000090048063a85c38ef11610083578063a85c38ef14610163578063bd4b8a041461019c578063c45a0155146101b8578063dbe5bab5146101d6578063fdf61e68146101f4576100b0565b806312b58349146100b55780631971e03b146100d35780631e7cea80146101035780636282682a14610133575b600080fd5b6100bd610212565b6040516100ca9190611af3565b60405180910390f35b6100ed60048036038101906100e8919061142f565b610221565b6040516100fa9190611af3565b60405180910390f35b61011d600480360381019061011891906114aa565b610555565b60405161012a9190611af3565b60405180910390f35b61014d6004803603810190610148919061142f565b610586565b60405161015a9190611af3565b60405180910390f35b61017d6004803603810190610178919061158e565b61064e565b6040516101939a999897969594939291906118ec565b60405180910390f35b6101b660048036038101906101b1919061158e565b61072c565b005b6101c061099c565b6040516101cd91906117f3565b60405180910390f35b6101de6109c2565b6040516101eb91906119b1565b60405180910390f35b6101fc6109d1565b6040516102099190611af3565b60405180910390f35b600061021c6109e0565b905090565b60008061022c610b2c565b73ffffffffffffffffffffffffffffffffffffffff166311eac8556040518163ffffffff167c010000000000000000000000000000000000000000000000000000000002815260040160206040518083038186803b15801561028d57600080fd5b505afa1580156102a1573d6000803e3d6000fd5b505050506040513d601f19601f820116820180604052508101906102c59190611402565b9050600073ffffffffffffffffffffffffffffffffffffffff168773ffffffffffffffffffffffffffffffffffffffff161415610337576040517f08c379a000000000000000000000000000000000000000000000000000000000815260040161032e90611a73565b60405180910390fd5b600073ffffffffffffffffffffffffffffffffffffffff168173ffffffffffffffffffffffffffffffffffffffff1614156103a7576040517f08c379a000000000000000000000000000000000000000000000000000000000815260040161039e90611ad3565b60405180910390fd5b848173ffffffffffffffffffffffffffffffffffffffff166370a08231896040518263ffffffff167c01000000000000000000000000000000000000000000000000000000000281526004016103fd91906117f3565b60206040518083038186803b15801561041557600080fd5b505afa158015610429573d6000803e3d6000fd5b505050506040513d601f19601f8201168201806040525081019061044d91906115bb565b101561048e576040517f08c379a000000000000000000000000000000000000000000000000000000000815260040161048590611a33565b60405180910390fd5b610496610b2c565b73ffffffffffffffffffffffffffffffffffffffff1663b1fab21c88308989898960006040518863ffffffff167c01000000000000000000000000000000000000000000000000000000000281526004016104f7979695949392919061180e565b602060405180830381600087803b15801561051157600080fd5b505af1158015610525573d6000803e3d6000fd5b505050506040513d601f19601f8201168201806040525081019061054991906115bb565b91505095945050505050565b6001602052816000526040600020818154811061057157600080fd5b90600052602060002001600091509150505481565b6000610590610b2c565b73ffffffffffffffffffffffffffffffffffffffff1663b1fab21c30888888888860016040518863ffffffff167c01000000000000000000000000000000000000000000000000000000000281526004016105f1979695949392919061187d565b602060405180830381600087803b15801561060b57600080fd5b505af115801561061f573d6000803e3d6000fd5b505050506040513d601f19601f8201168201806040525081019061064391906115bb565b905095945050505050565b6000818154811061065e57600080fd5b90600052602060002090600902016000915090508060000160009054906101000a900473ffffffffffffffffffffffffffffffffffffffff16908060010160009054906101000a900473ffffffffffffffffffffffffffffffffffffffff16908060020160009054906101000a900473ffffffffffffffffffffffffffffffffffffffff16908060030154908060040154908060050154908060060160009054906101000a900460ff16908060060160019054906101000a900460ff1690806007015490806008015490508a565b6000610736610bef565b9050600081511161077c576040517f08c379a000000000000000000000000000000000000000000000000000000000815260040161077390611a13565b60405180910390fd5b6000610786610b2c565b73ffffffffffffffffffffffffffffffffffffffff166342b50a7a8385815181106107b4576107b3611cff565b5b60200260200101516040518263ffffffff167c01000000000000000000000000000000000000000000000000000000000281526004016107f49190611af3565b6101406040518083038186803b15801561080d57600080fd5b505afa158015610821573d6000803e3d6000fd5b505050506040513d601f19601f820116820180604052508101906108459190611560565b90503073ffffffffffffffffffffffffffffffffffffffff16816000015173ffffffffffffffffffffffffffffffffffffffff16146108b9576040517f08c379a00000000000000000000000000000000000000000000000000000000081526004016108b0906119d3565b60405180910390fd5b6108c1610b2c565b73ffffffffffffffffffffffffffffffffffffffff1663b00f215c30856040518363ffffffff167c0100000000000000000000000000000000000000000000000000000000028152600401610917929190611988565b600060405180830381600087803b15801561093157600080fd5b505af1158015610945573d6000803e3d6000fd5b50505050610960816040015182606001518360a00151610ca7565b7fd276fbc5e545783825cac5416bad154c47e39daebf44589255a65b4f56cf3e0e8360405161098f9190611af3565b60405180910390a1505050565b600260009054906101000a900473ffffffffffffffffffffffffffffffffffffffff1681565b60606109cc610bef565b905090565b60006109db6110b3565b905090565b60006109ea610b2c565b73ffffffffffffffffffffffffffffffffffffffff166311eac8556040518163ffffffff167c010000000000000000000000000000000000000000000000000000000002815260040160206040518083038186803b158015610a4b57600080fd5b505afa158015610a5f573d6000803e3d6000fd5b505050506040513d601f19601f82011682018060405250810190610a839190611402565b73ffffffffffffffffffffffffffffffffffffffff166370a08231336040518263ffffffff167c0100000000000000000000000000000000000000000000000000000000028152600401610ad791906117f3565b60206040518083038186803b158015610aef57600080fd5b505afa158015610b03573d6000803e3d6000fd5b505050506040513d601f19601f82011682018060405250810190610b2791906115bb565b905090565b6000600260009054906101000a900473ffffffffffffffffffffffffffffffffffffffff1673ffffffffffffffffffffffffffffffffffffffff1663d226ae086040518163ffffffff167c010000000000000000000000000000000000000000000000000000000002815260040160206040518083038186803b158015610bb257600080fd5b505afa158015610bc6573d6000803e3d6000fd5b505050506040513d601f19601f82011682018060405250810190610bea9190611402565b905090565b6060610bf9610b2c565b73ffffffffffffffffffffffffffffffffffffffff16636dee2032306040518263ffffffff167c0100000000000000000000000000000000000000000000000000000000028152600401610c4d91906117f3565b60006040518083038186803b158015610c6557600080fd5b505afa158015610c79573d6000803e3d6000fd5b505050506040513d6000823e3d601f19601f82011682018060405250810190610ca291906114ea565b905090565b3073ffffffffffffffffffffffffffffffffffffffff168373ffffffffffffffffffffffffffffffffffffffff161415610d16576040517f08c379a0000000000000000000000000000000000000000000000000000000008152600401610d0d90611a93565b60405180910390fd5b600073ffffffffffffffffffffffffffffffffffffffff168373ffffffffffffffffffffffffffffffffffffffff161415610d86576040517f08c379a0000000000000000000000000000000000000000000000000000000008152600401610d7d906119f3565b60405180910390fd5b60008211610dc9576040517f08c379a0000000000000000000000000000000000000000000000000000000008152600401610dc090611ab3565b60405180910390fd5b81610dd26110b3565b1015610e13576040517f08c379a0000000000000000000000000000000000000000000000000000000008152600401610e0a90611a53565b60405180910390fd5b610e1b610b2c565b73ffffffffffffffffffffffffffffffffffffffff166311eac8556040518163ffffffff167c010000000000000000000000000000000000000000000000000000000002815260040160206040518083038186803b158015610e7c57600080fd5b505afa158015610e90573d6000803e3d6000fd5b505050506040513d601f19601f82011682018060405250810190610eb49190611402565b73ffffffffffffffffffffffffffffffffffffffff1663a9059cbb84846040518363ffffffff167c0100000000000000000000000000000000000000000000000000000000028152600401610f0a929190611988565b602060405180830381600087803b158015610f2457600080fd5b505af1158015610f38573d6000803e3d6000fd5b505050506040513d601f19601f82011682018060405250810190610f5c9190611533565b50610f65610b2c565b73ffffffffffffffffffffffffffffffffffffffff166311eac8556040518163ffffffff167c010000000000000000000000000000000000000000000000000000000002815260040160206040518083038186803b158015610fc657600080fd5b505afa158015610fda573d6000803e3d6000fd5b505050506040513d601f19601f82011682018060405250810190610ffe9190611402565b73ffffffffffffffffffffffffffffffffffffffff1663a9059cbb611021610b2c565b836040518363ffffffff167c010000000000000000000000000000000000000000000000000000000002815260040161105b929190611988565b602060405180830381600087803b15801561107557600080fd5b505af1158015611089573d6000803e3d6000fd5b505050506040513d601f19601f820116820180604052508101906110ad9190611533565b50505050565b6000806110be610bef565b905060006110ca6109e0565b905060005b600183516110dd9190611ba9565b8110156111e75760006110ee610b2c565b73ffffffffffffffffffffffffffffffffffffffff166342b50a7a85848151811061111c5761111b611cff565b5b60200260200101516040518263ffffffff167c010000000000000000000000000000000000000000000000000000000002815260040161115c9190611af3565b6101406040518083038186803b15801561117557600080fd5b505afa158015611189573d6000803e3d6000fd5b505050506040513d601f19601f820116820180604052508101906111ad9190611560565b90508060600151836111bf9190611ba9565b92508060a00151836111d19190611ba9565b92505080806111df90611c87565b9150506110cf565b50809250505090565b60006112036111fe84611b33565b611b0e565b9050808382526020820190508285602086028201111561122657611225611d67565b5b60005b85811015611256578161123c88826113d8565b845260208401935060208301925050600181019050611229565b5050509392505050565b60008135905061126f81611ef8565b92915050565b60008151905061128481611ef8565b92915050565b600082601f83011261129f5761129e611d5d565b5b81516112af8482602086016111f0565b91505092915050565b6000815190506112c781611f0f565b92915050565b600061014082840312156112e4576112e3611d62565b5b6112ef610140611b0e565b905060006112ff84828501611275565b600083015250602061131384828501611275565b602083015250604061132784828501611275565b604083015250606061133b848285016113d8565b606083015250608061134f848285016113d8565b60808301525060a0611363848285016113d8565b60a08301525060c0611377848285016113ed565b60c08301525060e061138b848285016113ed565b60e0830152506101006113a0848285016113d8565b610100830152506101206113b6848285016113d8565b6101208301525092915050565b6000813590506113d281611f26565b92915050565b6000815190506113e781611f26565b92915050565b6000815190506113fc81611f3d565b92915050565b60006020828403121561141857611417611d71565b5b600061142684828501611275565b91505092915050565b600080600080600060a0868803121561144b5761144a611d71565b5b600061145988828901611260565b955050602061146a88828901611260565b945050604061147b888289016113c3565b935050606061148c888289016113c3565b925050608061149d888289016113c3565b9150509295509295909350565b600080604083850312156114c1576114c0611d71565b5b60006114cf85828601611260565b92505060206114e0858286016113c3565b9150509250929050565b600060208284031215611500576114ff611d71565b5b600082015167ffffffffffffffff81111561151e5761151d611d6c565b5b61152a8482850161128a565b91505092915050565b60006020828403121561154957611548611d71565b5b6000611557848285016112b8565b91505092915050565b6000610140828403121561157757611576611d71565b5b6000611585848285016112cd565b91505092915050565b6000602082840312156115a4576115a3611d71565b5b60006115b2848285016113c3565b91505092915050565b6000602082840312156115d1576115d0611d71565b5b60006115df848285016113d8565b91505092915050565b60006115f483836117c6565b60208301905092915050565b61160981611bdd565b82525050565b600061161a82611b6f565b6116248185611b87565b935061162f83611b5f565b8060005b8381101561166057815161164788826115e8565b975061165283611b7a565b925050600181019050611633565b5085935050505092915050565b61167681611c32565b82525050565b61168581611c44565b82525050565b6000611698601283611b98565b91506116a382611d87565b602082019050919050565b60006116bb601783611b98565b91506116c682611db0565b602082019050919050565b60006116de601383611b98565b91506116e982611dd9565b602082019050919050565b6000611701601183611b98565b915061170c82611e02565b602082019050919050565b6000611724601783611b98565b915061172f82611e2b565b602082019050919050565b6000611747601383611b98565b915061175282611e54565b602082019050919050565b600061176a601383611b98565b915061177582611e7d565b602082019050919050565b600061178d601a83611b98565b915061179882611ea6565b602082019050919050565b60006117b0601783611b98565b91506117bb82611ecf565b602082019050919050565b6117cf81611c1b565b82525050565b6117de81611c1b565b82525050565b6117ed81611c25565b82525050565b60006020820190506118086000830184611600565b92915050565b600060e082019050611823600083018a611600565b6118306020830189611600565b61183d6040830188611600565b61184a60608301876117d5565b61185760808301866117d5565b61186460a08301856117d5565b61187160c083018461166d565b98975050505050505050565b600060e082019050611892600083018a611600565b61189f6020830189611600565b6118ac6040830188611600565b6118b960608301876117d5565b6118c660808301866117d5565b6118d360a08301856117d5565b6118e060c083018461167c565b98975050505050505050565b600061014082019050611902600083018d611600565b61190f602083018c611600565b61191c604083018b611600565b611929606083018a6117d5565b61193660808301896117d5565b61194360a08301886117d5565b61195060c08301876117e4565b61195d60e08301866117e4565b61196b6101008301856117d5565b6119796101208301846117d5565b9b9a5050505050505050505050565b600060408201905061199d6000830185611600565b6119aa60208301846117d5565b9392505050565b600060208201905081810360008301526119cb818461160f565b905092915050565b600060208201905081810360008301526119ec8161168b565b9050919050565b60006020820190508181036000830152611a0c816116ae565b9050919050565b60006020820190508181036000830152611a2c816116d1565b9050919050565b60006020820190508181036000830152611a4c816116f4565b9050919050565b60006020820190508181036000830152611a6c81611717565b9050919050565b60006020820190508181036000830152611a8c8161173a565b9050919050565b60006020820190508181036000830152611aac8161175d565b9050919050565b60006020820190508181036000830152611acc81611780565b9050919050565b60006020820190508181036000830152611aec816117a3565b9050919050565b6000602082019050611b0860008301846117d5565b92915050565b6000611b18611b29565b9050611b248282611c56565b919050565b6000604051905090565b600067ffffffffffffffff821115611b4e57611b4d611d2e565b5b602082029050602081019050919050565b6000819050602082019050919050565b600081519050919050565b6000602082019050919050565b600082825260208201905092915050565b600082825260208201905092915050565b6000611bb482611c1b565b9150611bbf83611c1b565b925082821015611bd257611bd1611cd0565b5b828203905092915050565b6000611be882611bfb565b9050919050565b60008115159050919050565b600073ffffffffffffffffffffffffffffffffffffffff82169050919050565b6000819050919050565b600060ff82169050919050565b6000611c3d82611c25565b9050919050565b6000611c4f82611c25565b9050919050565b611c5f82611d76565b810181811067ffffffffffffffff82111715611c7e57611c7d611d2e565b5b80604052505050565b6000611c9282611c1b565b91507fffffffffffffffffffffffffffffffffffffffffffffffffffffffffffffffff821415611cc557611cc4611cd0565b5b600182019050919050565b7f4e487b7100000000000000000000000000000000000000000000000000000000600052601160045260246000fd5b7f4e487b7100000000000000000000000000000000000000000000000000000000600052603260045260246000fd5b7f4e487b7100000000000000000000000000000000000000000000000000000000600052604160045260246000fd5b600080fd5b600080fd5b600080fd5b600080fd5b600080fd5b6000601f19601f8301169050919050565b7f43574c3a20696e76616c6964206f726465720000000000000000000000000000600082015250565b7f43574c3a20696e76616c696420746f2061646472657373000000000000000000600082015250565b7f43574c3a206e6f206f70656e206f726465727300000000000000000000000000600082015250565b7f433a206e6f7420656e6f75676820555344000000000000000000000000000000600082015250565b7f43574c3a20696e73756666696369656e742066756e6473000000000000000000600082015250565b7f43574c3a2073656c6c6572206e6f742073657400000000000000000000000000600082015250565b7f43574c3a2073656c6620666f7262696464656e00000000000000000000000000600082015250565b7f43574c3a20616d6f756e742063616e6e6f7420657175616c2030000000000000600082015250565b7f43574c3a207573646320746f6b656e206e6f7420736574000000000000000000600082015250565b611f0181611bdd565b8114611f0c57600080fd5b50565b611f1881611bef565b8114611f2357600080fd5b50565b611f2f81611c1b565b8114611f3a57600080fd5b50565b611f4681611c25565b8114611f5157600080fd5b5056fea264697066735822122008fbcff9d68543de5b6e09d7c3beda1990225dc6db57e69b7bec8385a3f0ea2b64736f6c63430008060033",
  "immutableReferences": {},
  "source": "// SPDX-License-Identifier: MIT\npragma solidity ^0.8.0;\n\nimport \"./CustodianWalletLogic.sol\";\nimport \"./CustodianWalletProxy.sol\";\nimport \"./Escrow.sol\";\n\n/**\n * @dev Factotory responsible for deploying Escrow, Custodian Wallet Logic and\n * managed CustodianWalletProxy for both Vendor and Customer.\n *\n * Note Controlled by deployer account.\n */\ncontract Factory {\n  ////////////////////////////////////////\n  //                                    //\n  //         STATE VARIABLES            //\n  //                                    //\n  ////////////////////////////////////////\n\n  /// @notice EOA of deployer wallet\n  address public ochestrator;\n\n  /// @notice the address of the Custodian Wallet Logic\n  address public custodianWalletLogic;\n\n  address public escrowContractAddress;\n\n  /// @notice mapping of account unique id to custodian wallet\n  /// Note avoid passing predictable number such as incremental number. Use UUID string instead\n  mapping(string => address) public accounts;\n\n  event NewCustodian(string uniqueId, address indexed account);\n\n  ////////////////////////////////////////\n  //                                    //\n  //              FUNCTIONS             //\n  //                                    //\n  ////////////////////////////////////////\n  modifier onlyOchesrator() {\n    require(msg.sender == ochestrator, \"F: only ochestrator\");\n    _;\n  }\n\n  constructor() {\n    ochestrator = msg.sender;\n    escrowContractAddress = address(new Escrow(msg.sender));\n    custodianWalletLogic = address(new CustodianWalletLogic());\n  }\n\n  /**\n   * @dev create a new custodian wallet\n   * @param uuid is the unique id of the custodian wallet\n   */\n  function newCustodian(string memory uuid)\n    public\n    onlyOchesrator\n    returns (string memory, address)\n  {\n    require(accounts[uuid] == address(0x0), \"F: account exist\");\n\n    address wallet = address(\n      new CustodianWalletProxy(custodianWalletLogic, ochestrator, address(this))\n    );\n    accounts[uuid] = wallet;\n\n    emit NewCustodian(uuid, wallet);\n\n    return (uuid, wallet);\n  }\n}\n",
  "sourcePath": "/Users/drewhyte/Sites/SOLIDITY/piggyfi-contract-avax-poc/contracts/Factory.sol",
  "compiler": {
    "name": "solc",
    "version": "0.8.6+commit.11564f7e.Emscripten.clang"
  },
  "schemaVersion": "3.4.6",
  "updatedAt": "2022-05-04T11:59:21.227Z",
  "devdoc": {
    "details": "Factotory responsible for deploying Escrow, Custodian Wallet Logic and managed CustodianWalletProxy for both Vendor and Customer. Note Controlled by deployer account.",
    "kind": "dev",
    "methods": {
      "newCustodian(string)": {
        "details": "create a new custodian wallet",
        "params": {
          "uuid": "is the unique id of the custodian wallet"
        }
      }
    },
    "version": 1
  },
  "userdoc": {
    "kind": "user",
    "methods": {
      "accounts(string)": {
        "notice": "mapping of account unique id to custodian wallet Note avoid passing predictable number such as incremental number. Use UUID string instead"
      },
      "custodianWalletLogic()": {
        "notice": "the address of the Custodian Wallet Logic"
      },
      "ochestrator()": {
        "notice": "EOA of deployer wallet"
      }
    },
    "version": 1
  }
}