{
  "contractName": "Factory",
  "abi": [
    {
      "inputs": [],
      "stateMutability": "nonpayable",
      "type": "constructor"
    },
    {
      "anonymous": false,
      "inputs": [
        {
          "indexed": false,
          "internalType": "string",
          "name": "uniqueId",
          "type": "string"
        },
        {
          "indexed": true,
          "internalType": "address",
          "name": "account",
          "type": "address"
        }
      ],
      "name": "NewCustodian",
      "type": "event"
    },
    {
      "inputs": [
        {
          "internalType": "string",
          "name": "",
          "type": "string"
        }
      ],
      "name": "accounts",
      "outputs": [
        {
          "internalType": "address",
          "name": "",
          "type": "address"
        }
      ],
      "stateMutability": "view",
      "type": "function"
    },
    {
      "inputs": [],
      "name": "custodianWallet",
      "outputs": [
        {
          "internalType": "address",
          "name": "",
          "type": "address"
        }
      ],
      "stateMutability": "view",
      "type": "function"
    },
    {
      "inputs": [],
      "name": "escrowContractAddress",
      "outputs": [
        {
          "internalType": "address",
          "name": "",
          "type": "address"
        }
      ],
      "stateMutability": "view",
      "type": "function"
    },
    {
      "inputs": [],
      "name": "ochestrator",
      "outputs": [
        {
          "internalType": "address",
          "name": "",
          "type": "address"
        }
      ],
      "stateMutability": "view",
      "type": "function"
    },
    {
      "inputs": [
        {
          "internalType": "string",
          "name": "uuid",
          "type": "string"
        }
      ],
      "name": "newCustodian",
      "outputs": [
        {
          "internalType": "string",
          "name": "",
          "type": "string"
        },
        {
          "internalType": "address",
          "name": "",
          "type": "address"
        }
      ],
      "stateMutability": "nonpayable",
      "type": "function"
    }
  ],
  "bytecode": "0x608060405234801561001057600080fd5b50336000806101000a81548173ffffffffffffffffffffffffffffffffffffffff021916908373ffffffffffffffffffffffffffffffffffffffff1602179055503360405161005e90610133565b610068919061015c565b604051809103906000f080158015610084573d6000803e3d6000fd5b50600260006101000a81548173ffffffffffffffffffffffffffffffffffffffff021916908373ffffffffffffffffffffffffffffffffffffffff1602179055506040516100d190610140565b604051809103906000f0801580156100ed573d6000803e3d6000fd5b50600160006101000a81548173ffffffffffffffffffffffffffffffffffffffff021916908373ffffffffffffffffffffffffffffffffffffffff1602179055506101a9565b61157080610ff083390190565b6118308061256083390190565b61015681610177565b82525050565b6000602082019050610171600083018461014d565b92915050565b600061018282610189565b9050919050565b600073ffffffffffffffffffffffffffffffffffffffff82169050919050565b610e38806101b86000396000f3fe608060405234801561001057600080fd5b5060043610610074576000357c0100000000000000000000000000000000000000000000000000000000900480631e106e991461007957806330390414146100975780639b7fbea6146100c75780639c811d43146100f8578063d226ae0814610116575b600080fd5b610081610134565b60405161008e91906105fe565b60405180910390f35b6100b160048036038101906100ac91906104df565b61015a565b6040516100be91906105fe565b60405180910390f35b6100e160048036038101906100dc91906104df565b6101a3565b6040516100ef929190610664565b60405180910390f35b610100610418565b60405161010d91906105fe565b60405180910390f35b61011e61043c565b60405161012b91906105fe565b60405180910390f35b600160009054906101000a900473ffffffffffffffffffffffffffffffffffffffff1681565b6003818051602081018201805184825260208301602085012081835280955050505050506000915054906101000a900473ffffffffffffffffffffffffffffffffffffffff1681565b606060008060009054906101000a900473ffffffffffffffffffffffffffffffffffffffff1673ffffffffffffffffffffffffffffffffffffffff163373ffffffffffffffffffffffffffffffffffffffff1614610236576040517f08c379a000000000000000000000000000000000000000000000000000000000815260040161022d90610694565b60405180910390fd5b600073ffffffffffffffffffffffffffffffffffffffff1660038460405161025e91906105e7565b908152602001604051809103902060009054906101000a900473ffffffffffffffffffffffffffffffffffffffff1673ffffffffffffffffffffffffffffffffffffffff16146102e3576040517f08c379a00000000000000000000000000000000000000000000000000000000081526004016102da906106b4565b60405180910390fd5b6000600160009054906101000a900473ffffffffffffffffffffffffffffffffffffffff16600260009054906101000a900473ffffffffffffffffffffffffffffffffffffffff1660405161033790610462565b610342929190610619565b604051809103906000f08015801561035e573d6000803e3d6000fd5b5090508060038560405161037291906105e7565b908152602001604051809103902060006101000a81548173ffffffffffffffffffffffffffffffffffffffff021916908373ffffffffffffffffffffffffffffffffffffffff1602179055508073ffffffffffffffffffffffffffffffffffffffff167f6eaee8201a623d4ec5397b1feccc8f1ee1dc236fc702e24142f618ada708859d856040516104049190610642565b60405180910390a283819250925050915091565b60008054906101000a900473ffffffffffffffffffffffffffffffffffffffff1681565b600260009054906101000a900473ffffffffffffffffffffffffffffffffffffffff1681565b6105668061089d83390190565b600061048261047d846106f9565b6106d4565b90508281526020810184848401111561049e5761049d61082a565b5b6104a9848285610783565b509392505050565b600082601f8301126104c6576104c5610825565b5b81356104d684826020860161046f565b91505092915050565b6000602082840312156104f5576104f4610834565b5b600082013567ffffffffffffffff8111156105135761051261082f565b5b61051f848285016104b1565b91505092915050565b61053181610751565b82525050565b60006105428261072a565b61054c8185610735565b935061055c818560208601610792565b61056581610839565b840191505092915050565b600061057b8261072a565b6105858185610746565b9350610595818560208601610792565b80840191505092915050565b60006105ae601383610735565b91506105b98261084a565b602082019050919050565b60006105d1601083610735565b91506105dc82610873565b602082019050919050565b60006105f38284610570565b915081905092915050565b60006020820190506106136000830184610528565b92915050565b600060408201905061062e6000830185610528565b61063b6020830184610528565b9392505050565b6000602082019050818103600083015261065c8184610537565b905092915050565b6000604082019050818103600083015261067e8185610537565b905061068d6020830184610528565b9392505050565b600060208201905081810360008301526106ad816105a1565b9050919050565b600060208201905081810360008301526106cd816105c4565b9050919050565b60006106de6106ef565b90506106ea82826107c5565b919050565b6000604051905090565b600067ffffffffffffffff821115610714576107136107f6565b5b61071d82610839565b9050602081019050919050565b600081519050919050565b600082825260208201905092915050565b600081905092915050565b600061075c82610763565b9050919050565b600073ffffffffffffffffffffffffffffffffffffffff82169050919050565b82818337600083830152505050565b60005b838110156107b0578082015181840152602081019050610795565b838111156107bf576000848401525b50505050565b6107ce82610839565b810181811067ffffffffffffffff821117156107ed576107ec6107f6565b5b80604052505050565b7f4e487b7100000000000000000000000000000000000000000000000000000000600052604160045260246000fd5b600080fd5b600080fd5b600080fd5b600080fd5b6000601f19601f8301169050919050565b7f463a206f6e6c79206f63686573747261746f7200000000000000000000000000600082015250565b7f463a206163636f756e742065786973740000000000000000000000000000000060008201525056fe60c060405234801561001057600080fd5b50604051610566380380610566833981810160405281019061003291906100d4565b8073ffffffffffffffffffffffffffffffffffffffff1660a08173ffffffffffffffffffffffffffffffffffffffff166c0100000000000000000000000002815250508173ffffffffffffffffffffffffffffffffffffffff1660808173ffffffffffffffffffffffffffffffffffffffff166c0100000000000000000000000002815250505050610162565b6000815190506100ce8161014b565b92915050565b600080604083850312156100eb576100ea610146565b5b60006100f9858286016100bf565b925050602061010a858286016100bf565b9150509250929050565b600061011f82610126565b9050919050565b600073ffffffffffffffffffffffffffffffffffffffff82169050919050565b600080fd5b61015481610114565b811461015f57600080fd5b50565b6080516c01000000000000000000000000900460a0516c0100000000000000000000000090046103b36101b3600039600081816053015261021601526000818160e301526101f201526103b36000f3fe60806040526004361061004a576000357c010000000000000000000000000000000000000000000000000000000090048063d7dfa0dd1461019a578063e2fdcc17146101c557610051565b3661005157005b7f000000000000000000000000000000000000000000000000000000000000000073ffffffffffffffffffffffffffffffffffffffff163373ffffffffffffffffffffffffffffffffffffffff16146100df576040517f08c379a00000000000000000000000000000000000000000000000000000000081526004016100d6906102c8565b60405180910390fd5b60007f00000000000000000000000000000000000000000000000000000000000000009050600073ffffffffffffffffffffffffffffffffffffffff168173ffffffffffffffffffffffffffffffffffffffff161415610174576040517f08c379a000000000000000000000000000000000000000000000000000000000815260040161016b906102a8565b60405180910390fd5b3660008037600080366000845af43d6000803e8060008114610195573d6000f35b3d6000fd5b3480156101a657600080fd5b506101af6101f0565b6040516101bc919061028d565b60405180910390f35b3480156101d157600080fd5b506101da610214565b6040516101e7919061028d565b60405180910390f35b7f000000000000000000000000000000000000000000000000000000000000000081565b7f000000000000000000000000000000000000000000000000000000000000000081565b610241816102f9565b82525050565b60006102546016836102e8565b915061025f8261032b565b602082019050919050565b6000610277600f836102e8565b915061028282610354565b602082019050919050565b60006020820190506102a26000830184610238565b92915050565b600060208201905081810360008301526102c181610247565b9050919050565b600060208201905081810360008301526102e18161026a565b9050919050565b600082825260208201905092915050565b60006103048261030b565b9050919050565b600073ffffffffffffffffffffffffffffffffffffffff82169050919050565b7f4c6f67696320636f6e7472616374206e6f742073657400000000000000000000600082015250565b7f57503a20657363726f77206f6e6c79000000000000000000000000000000000060008201525056fea2646970667358221220d6f04daae3dbb32e4ec588a1cb24aa52560e17f9ad215ff269ada4695341f23264736f6c63430008060033a2646970667358221220f6574b481ffc859ef6f0aea22ebac37ce8caa627c332167bc78e13fffed69c7b64736f6c6343000806003360806040523480156200001157600080fd5b506040516200157038038062001570833981810160405281019062000037919062000096565b80600260006101000a81548173ffffffffffffffffffffffffffffffffffffffff021916908373ffffffffffffffffffffffffffffffffffffffff160217905550506200011b565b600081519050620000908162000101565b92915050565b600060208284031215620000af57620000ae620000fc565b5b6000620000bf848285016200007f565b91505092915050565b6000620000d582620000dc565b9050919050565b600073ffffffffffffffffffffffffffffffffffffffff82169050919050565b600080fd5b6200010c81620000c8565b81146200011857600080fd5b50565b611445806200012b6000396000f3fe608060405234801561001057600080fd5b50600436106100bb576000357c0100000000000000000000000000000000000000000000000000000000900480636dee2032116100835780636dee2032146101785780639c811d43146101a85780639d2166ae146101c6578063a85c38ef146101f6578063f3fd622f1461022d576100bb565b806311981a50146100c057806311a21b2c146100f057806311eac855146100fa5780631e7cea801461011857806332c0111714610148575b600080fd5b6100da60048036038101906100d59190610d05565b610249565b6040516100e79190611194565b60405180910390f35b6100f861052e565b005b61010261077a565b60405161010f9190611034565b60405180910390f35b610132600480360381019061012d9190610d92565b6107a0565b60405161013f9190611194565b60405180910390f35b610162600480360381019061015d9190610cd8565b6107d1565b60405161016f9190611194565b60405180910390f35b610192600480360381019061018d9190610cd8565b61081d565b60405161019f91906110f6565b60405180910390f35b6101b06108b4565b6040516101bd9190611034565b60405180910390f35b6101e060048036038101906101db9190610dff565b6108da565b6040516101ed9190611178565b60405180910390f35b610210600480360381019061020b9190610dff565b610a12565b60405161022498979695949392919061104f565b60405180910390f35b61024760048036038101906102429190610cd8565b610ab7565b005b60008573ffffffffffffffffffffffffffffffffffffffff163373ffffffffffffffffffffffffffffffffffffffff16146102b9576040517f08c379a00000000000000000000000000000000000000000000000000000000081526004016102b090611118565b60405180910390fd5b60006040518061010001604052808973ffffffffffffffffffffffffffffffffffffffff1681526020018873ffffffffffffffffffffffffffffffffffffffff1681526020018781526020018681526020018581526020018460ff16815260200142815260200160008152509050600081908060018154018082558091505060019003906000526020600020906008020160009091909190915060008201518160000160006101000a81548173ffffffffffffffffffffffffffffffffffffffff021916908373ffffffffffffffffffffffffffffffffffffffff16021790555060208201518160010160006101000a81548173ffffffffffffffffffffffffffffffffffffffff021916908373ffffffffffffffffffffffffffffffffffffffff16021790555060408201518160020155606082015181600301556080820151816004015560a08201518160050160006101000a81548160ff021916908360ff16021790555060c0820151816006015560e0820151816007015550506000600160008054905061044a919061124c565b9050600160008a73ffffffffffffffffffffffffffffffffffffffff1673ffffffffffffffffffffffffffffffffffffffff1681526020019081526020016000208190806001815401808255809150506001900390600052602060002001600090919091909150558773ffffffffffffffffffffffffffffffffffffffff168973ffffffffffffffffffffffffffffffffffffffff167f422c12dcb9734568e8367a17f7bb6453db515b5058b66ea0d8c349f345885177838a8a8a8a6040516105179594939291906111af565b60405180910390a380925050509695505050505050565b600260009054906101000a900473ffffffffffffffffffffffffffffffffffffffff1673ffffffffffffffffffffffffffffffffffffffff163373ffffffffffffffffffffffffffffffffffffffff16146105be576040517f08c379a00000000000000000000000000000000000000000000000000000000081526004016105b590611158565b60405180910390fd5b6000600360009054906101000a900473ffffffffffffffffffffffffffffffffffffffff1673ffffffffffffffffffffffffffffffffffffffff166370a08231306040518263ffffffff167c01000000000000000000000000000000000000000000000000000000000281526004016106379190611034565b60206040518083038186803b15801561064f57600080fd5b505afa158015610663573d6000803e3d6000fd5b505050506040513d601f19601f820116820180604052508101906106879190610e2c565b9050600360009054906101000a900473ffffffffffffffffffffffffffffffffffffffff1673ffffffffffffffffffffffffffffffffffffffff1663a9059cbb600260009054906101000a900473ffffffffffffffffffffffffffffffffffffffff16836040518363ffffffff167c01000000000000000000000000000000000000000000000000000000000281526004016107249291906110cd565b602060405180830381600087803b15801561073e57600080fd5b505af1158015610752573d6000803e3d6000fd5b505050506040513d601f19601f820116820180604052508101906107769190610dd2565b5050565b600360009054906101000a900473ffffffffffffffffffffffffffffffffffffffff1681565b600160205281600052604060002081815481106107bc57600080fd5b90600052602060002001600091509150505481565b6000600160008373ffffffffffffffffffffffffffffffffffffffff1673ffffffffffffffffffffffffffffffffffffffff168152602001908152602001600020805490509050919050565b6060600160008373ffffffffffffffffffffffffffffffffffffffff1673ffffffffffffffffffffffffffffffffffffffff1681526020019081526020016000208054806020026020016040519081016040528092919081815260200182805480156108a857602002820191906000526020600020905b815481526020019060010190808311610894575b50505050509050919050565b600260009054906101000a900473ffffffffffffffffffffffffffffffffffffffff1681565b6108e2610bfb565b600082815481106108f6576108f5611304565b5b9060005260206000209060080201604051806101000160405290816000820160009054906101000a900473ffffffffffffffffffffffffffffffffffffffff1673ffffffffffffffffffffffffffffffffffffffff1673ffffffffffffffffffffffffffffffffffffffff1681526020016001820160009054906101000a900473ffffffffffffffffffffffffffffffffffffffff1673ffffffffffffffffffffffffffffffffffffffff1673ffffffffffffffffffffffffffffffffffffffff1681526020016002820154815260200160038201548152602001600482015481526020016005820160009054906101000a900460ff1660ff1660ff168152602001600682015481526020016007820154815250509050919050565b60008181548110610a2257600080fd5b90600052602060002090600802016000915090508060000160009054906101000a900473ffffffffffffffffffffffffffffffffffffffff16908060010160009054906101000a900473ffffffffffffffffffffffffffffffffffffffff16908060020154908060030154908060040154908060050160009054906101000a900460ff16908060060154908060070154905088565b600260009054906101000a900473ffffffffffffffffffffffffffffffffffffffff1673ffffffffffffffffffffffffffffffffffffffff163373ffffffffffffffffffffffffffffffffffffffff1614610b47576040517f08c379a0000000000000000000000000000000000000000000000000000000008152600401610b3e90611158565b60405180910390fd5b600073ffffffffffffffffffffffffffffffffffffffff168173ffffffffffffffffffffffffffffffffffffffff161415610bb7576040517f08c379a0000000000000000000000000000000000000000000000000000000008152600401610bae90611138565b60405180910390fd5b80600360006101000a81548173ffffffffffffffffffffffffffffffffffffffff021916908373ffffffffffffffffffffffffffffffffffffffff16021790555050565b604051806101000160405280600073ffffffffffffffffffffffffffffffffffffffff168152602001600073ffffffffffffffffffffffffffffffffffffffff168152602001600081526020016000815260200160008152602001600060ff16815260200160008152602001600081525090565b600081359050610c7e816113b3565b92915050565b600081519050610c93816113ca565b92915050565b600081359050610ca8816113e1565b92915050565b600081519050610cbd816113e1565b92915050565b600081359050610cd2816113f8565b92915050565b600060208284031215610cee57610ced611333565b5b6000610cfc84828501610c6f565b91505092915050565b60008060008060008060c08789031215610d2257610d21611333565b5b6000610d3089828a01610c6f565b9650506020610d4189828a01610c6f565b9550506040610d5289828a01610c99565b9450506060610d6389828a01610c99565b9350506080610d7489828a01610c99565b92505060a0610d8589828a01610cc3565b9150509295509295509295565b60008060408385031215610da957610da8611333565b5b6000610db785828601610c6f565b9250506020610dc885828601610c99565b9150509250929050565b600060208284031215610de857610de7611333565b5b6000610df684828501610c84565b91505092915050565b600060208284031215610e1557610e14611333565b5b6000610e2384828501610c99565b91505092915050565b600060208284031215610e4257610e41611333565b5b6000610e5084828501610cae565b91505092915050565b6000610e658383610ff8565b60208301905092915050565b610e7a81611280565b82525050565b610e8981611280565b82525050565b6000610e9a82611212565b610ea4818561122a565b9350610eaf83611202565b8060005b83811015610ee0578151610ec78882610e59565b9750610ed28361121d565b925050600181019050610eb3565b5085935050505092915050565b6000610efa60108361123b565b9150610f0582611338565b602082019050919050565b6000610f1d60128361123b565b9150610f2882611361565b602082019050919050565b6000610f4060138361123b565b9150610f4b8261138a565b602082019050919050565b61010082016000820151610f6d6000850182610e71565b506020820151610f806020850182610e71565b506040820151610f936040850182610ff8565b506060820151610fa66060850182610ff8565b506080820151610fb96080850182610ff8565b5060a0820151610fcc60a0850182611016565b5060c0820151610fdf60c0850182610ff8565b5060e0820151610ff260e0850182610ff8565b50505050565b611001816112be565b82525050565b611010816112be565b82525050565b61101f816112c8565b82525050565b61102e816112c8565b82525050565b60006020820190506110496000830184610e80565b92915050565b600061010082019050611065600083018b610e80565b611072602083018a610e80565b61107f6040830189611007565b61108c6060830188611007565b6110996080830187611007565b6110a660a0830186611025565b6110b360c0830185611007565b6110c060e0830184611007565b9998505050505050505050565b60006040820190506110e26000830185610e80565b6110ef6020830184611007565b9392505050565b600060208201905081810360008301526111108184610e8f565b905092915050565b6000602082019050818103600083015261113181610eed565b9050919050565b6000602082019050818103600083015261115181610f10565b9050919050565b6000602082019050818103600083015261117181610f33565b9050919050565b60006101008201905061118e6000830184610f56565b92915050565b60006020820190506111a96000830184611007565b92915050565b600060a0820190506111c46000830188611007565b6111d16020830187611007565b6111de6040830186611007565b6111eb6060830185611007565b6111f86080830184611025565b9695505050505050565b6000819050602082019050919050565b600081519050919050565b6000602082019050919050565b600082825260208201905092915050565b600082825260208201905092915050565b6000611257826112be565b9150611262836112be565b925082821015611275576112746112d5565b5b828203905092915050565b600061128b8261129e565b9050919050565b60008115159050919050565b600073ffffffffffffffffffffffffffffffffffffffff82169050919050565b6000819050919050565b600060ff82169050919050565b7f4e487b7100000000000000000000000000000000000000000000000000000000600052601160045260246000fd5b7f4e487b7100000000000000000000000000000000000000000000000000000000600052603260045260246000fd5b600080fd5b7f433a20637573746f6d6572206f6e6c7900000000000000000000000000000000600082015250565b7f463a20696e76616c696420616464726573730000000000000000000000000000600082015250565b7f463a206f6e6c79206f63686573747261746f7200000000000000000000000000600082015250565b6113bc81611280565b81146113c757600080fd5b50565b6113d381611292565b81146113de57600080fd5b50565b6113ea816112be565b81146113f557600080fd5b50565b611401816112c8565b811461140c57600080fd5b5056fea2646970667358221220bfcca636d076f779a4cb0675438d2101219be1f165b418682f4948aa2aed3de164736f6c63430008060033608060405234801561001057600080fd5b50611810806100206000396000f3fe608060405234801561001057600080fd5b50600436106100b0576000357c010000000000000000000000000000000000000000000000000000000090048063a85c38ef11610083578063a85c38ef1461014f578063c45a015514610186578063dbe5bab5146101a4578063fbc1341d146101c2578063fdf61e68146101f2576100b0565b806312b58349146100b55780631e7cea80146100d357806357cbd683146101035780636f64234e14610133575b600080fd5b6100bd610210565b6040516100ca9190611446565b60405180910390f35b6100ed60048036038101906100e89190610f1f565b61021f565b6040516100fa9190611446565b60405180910390f35b61011d60048036038101906101189190610f5f565b610250565b60405161012a9190611446565b60405180910390f35b61014d60048036038101906101489190610f1f565b610315565b005b6101696004803603810190610164919061106a565b610661565b60405161017d9897969594939291906112fd565b60405180910390f35b61018e610706565b60405161019b9190611220565b60405180910390f35b6101ac61072c565b6040516101b991906113a4565b60405180910390f35b6101dc60048036038101906101d79190610f5f565b6107e4565b6040516101e99190611446565b60405180910390f35b6101fa6108a9565b6040516102079190611446565b60405180910390f35b600061021a610afd565b905090565b6001602052816000526040600020818154811061023b57600080fd5b90600052602060002001600091509150505481565b600061025a610c49565b73ffffffffffffffffffffffffffffffffffffffff166311981a50308787878760016040518763ffffffff167c01000000000000000000000000000000000000000000000000000000000281526004016102b99695949392919061129c565b602060405180830381600087803b1580156102d357600080fd5b505af11580156102e7573d6000803e3d6000fd5b505050506040513d601f19601f8201168201806040525081019061030b9190611097565b9050949350505050565b3073ffffffffffffffffffffffffffffffffffffffff168273ffffffffffffffffffffffffffffffffffffffff161415610384576040517f08c379a000000000000000000000000000000000000000000000000000000000815260040161037b90611406565b60405180910390fd5b600081116103c7576040517f08c379a00000000000000000000000000000000000000000000000000000000081526004016103be90611426565b60405180910390fd5b600073ffffffffffffffffffffffffffffffffffffffff168273ffffffffffffffffffffffffffffffffffffffff161415610437576040517f08c379a000000000000000000000000000000000000000000000000000000000815260040161042e906113c6565b60405180910390fd5b803073ffffffffffffffffffffffffffffffffffffffff1663fdf61e686040518163ffffffff167c010000000000000000000000000000000000000000000000000000000002815260040160206040518083038186803b15801561049a57600080fd5b505afa1580156104ae573d6000803e3d6000fd5b505050506040513d601f19601f820116820180604052508101906104d29190611097565b1015610513576040517f08c379a000000000000000000000000000000000000000000000000000000000815260040161050a906113e6565b60405180910390fd5b61051b610c49565b73ffffffffffffffffffffffffffffffffffffffff166311eac8556040518163ffffffff167c010000000000000000000000000000000000000000000000000000000002815260040160206040518083038186803b15801561057c57600080fd5b505afa158015610590573d6000803e3d6000fd5b505050506040513d601f19601f820116820180604052508101906105b49190610ef2565b73ffffffffffffffffffffffffffffffffffffffff1663a9059cbb83836040518363ffffffff167c010000000000000000000000000000000000000000000000000000000002815260040161060a92919061137b565b602060405180830381600087803b15801561062457600080fd5b505af1158015610638573d6000803e3d6000fd5b505050506040513d601f19601f8201168201806040525081019061065c919061100f565b505050565b6000818154811061067157600080fd5b90600052602060002090600802016000915090508060000160009054906101000a900473ffffffffffffffffffffffffffffffffffffffff16908060010160009054906101000a900473ffffffffffffffffffffffffffffffffffffffff16908060020154908060030154908060040154908060050160009054906101000a900460ff16908060060154908060070154905088565b600260009054906101000a900473ffffffffffffffffffffffffffffffffffffffff1681565b6060610736610c49565b73ffffffffffffffffffffffffffffffffffffffff16636dee2032306040518263ffffffff167c010000000000000000000000000000000000000000000000000000000002815260040161078a9190611220565b60006040518083038186803b1580156107a257600080fd5b505afa1580156107b6573d6000803e3d6000fd5b505050506040513d6000823e3d601f19601f820116820180604052508101906107df9190610fc6565b905090565b60006107ee610c49565b73ffffffffffffffffffffffffffffffffffffffff166311981a50863087878760006040518763ffffffff167c010000000000000000000000000000000000000000000000000000000002815260040161084d9695949392919061123b565b602060405180830381600087803b15801561086757600080fd5b505af115801561087b573d6000803e3d6000fd5b505050506040513d601f19601f8201168201806040525081019061089f9190611097565b9050949350505050565b6000803073ffffffffffffffffffffffffffffffffffffffff1663dbe5bab56040518163ffffffff167c010000000000000000000000000000000000000000000000000000000002815260040160006040518083038186803b15801561090e57600080fd5b505afa158015610922573d6000803e3d6000fd5b505050506040513d6000823e3d601f19601f8201168201806040525081019061094b9190610fc6565b905060003073ffffffffffffffffffffffffffffffffffffffff166312b583496040518163ffffffff167c010000000000000000000000000000000000000000000000000000000002815260040160206040518083038186803b1580156109b157600080fd5b505afa1580156109c5573d6000803e3d6000fd5b505050506040513d601f19601f820116820180604052508101906109e99190611097565b905060005b600183516109fc91906114fc565b811015610af4576000610a0d610c49565b73ffffffffffffffffffffffffffffffffffffffff16639d2166ae858481518110610a3b57610a3a611652565b5b60200260200101516040518263ffffffff167c0100000000000000000000000000000000000000000000000000000000028152600401610a7b9190611446565b6101006040518083038186803b158015610a9457600080fd5b505afa158015610aa8573d6000803e3d6000fd5b505050506040513d601f19601f82011682018060405250810190610acc919061103c565b9050806040015183610ade91906114fc565b9250508080610aec906115da565b9150506109ee565b50809250505090565b6000610b07610c49565b73ffffffffffffffffffffffffffffffffffffffff166311eac8556040518163ffffffff167c010000000000000000000000000000000000000000000000000000000002815260040160206040518083038186803b158015610b6857600080fd5b505afa158015610b7c573d6000803e3d6000fd5b505050506040513d601f19601f82011682018060405250810190610ba09190610ef2565b73ffffffffffffffffffffffffffffffffffffffff166370a08231336040518263ffffffff167c0100000000000000000000000000000000000000000000000000000000028152600401610bf49190611220565b60206040518083038186803b158015610c0c57600080fd5b505afa158015610c20573d6000803e3d6000fd5b505050506040513d601f19601f82011682018060405250810190610c449190611097565b905090565b6000600260009054906101000a900473ffffffffffffffffffffffffffffffffffffffff1673ffffffffffffffffffffffffffffffffffffffff1663d226ae086040518163ffffffff167c010000000000000000000000000000000000000000000000000000000002815260040160206040518083038186803b158015610ccf57600080fd5b505afa158015610ce3573d6000803e3d6000fd5b505050506040513d601f19601f82011682018060405250810190610d079190610ef2565b905090565b6000610d1f610d1a84611486565b611461565b90508083825260208201905082856020860282011115610d4257610d416116ba565b5b60005b85811015610d725781610d588882610ec8565b845260208401935060208301925050600181019050610d45565b5050509392505050565b600081359050610d8b8161177e565b92915050565b600081519050610da08161177e565b92915050565b600082601f830112610dbb57610dba6116b0565b5b8151610dcb848260208601610d0c565b91505092915050565b600081519050610de381611795565b92915050565b60006101008284031215610e0057610dff6116b5565b5b610e0b610100611461565b90506000610e1b84828501610d91565b6000830152506020610e2f84828501610d91565b6020830152506040610e4384828501610ec8565b6040830152506060610e5784828501610ec8565b6060830152506080610e6b84828501610ec8565b60808301525060a0610e7f84828501610edd565b60a08301525060c0610e9384828501610ec8565b60c08301525060e0610ea784828501610ec8565b60e08301525092915050565b600081359050610ec2816117ac565b92915050565b600081519050610ed7816117ac565b92915050565b600081519050610eec816117c3565b92915050565b600060208284031215610f0857610f076116c4565b5b6000610f1684828501610d91565b91505092915050565b60008060408385031215610f3657610f356116c4565b5b6000610f4485828601610d7c565b9250506020610f5585828601610eb3565b9150509250929050565b60008060008060808587031215610f7957610f786116c4565b5b6000610f8787828801610d7c565b9450506020610f9887828801610eb3565b9350506040610fa987828801610eb3565b9250506060610fba87828801610eb3565b91505092959194509250565b600060208284031215610fdc57610fdb6116c4565b5b600082015167ffffffffffffffff811115610ffa57610ff96116bf565b5b61100684828501610da6565b91505092915050565b600060208284031215611025576110246116c4565b5b600061103384828501610dd4565b91505092915050565b60006101008284031215611053576110526116c4565b5b600061106184828501610de9565b91505092915050565b6000602082840312156110805761107f6116c4565b5b600061108e84828501610eb3565b91505092915050565b6000602082840312156110ad576110ac6116c4565b5b60006110bb84828501610ec8565b91505092915050565b60006110d083836111f3565b60208301905092915050565b6110e581611530565b82525050565b60006110f6826114c2565b61110081856114da565b935061110b836114b2565b8060005b8381101561113c57815161112388826110c4565b975061112e836114cd565b92505060018101905061110f565b5085935050505092915050565b61115281611585565b82525050565b61116181611597565b82525050565b60006111746017836114eb565b915061117f826116da565b602082019050919050565b60006111976017836114eb565b91506111a282611703565b602082019050919050565b60006111ba6013836114eb565b91506111c58261172c565b602082019050919050565b60006111dd601a836114eb565b91506111e882611755565b602082019050919050565b6111fc8161156e565b82525050565b61120b8161156e565b82525050565b61121a81611578565b82525050565b600060208201905061123560008301846110dc565b92915050565b600060c08201905061125060008301896110dc565b61125d60208301886110dc565b61126a6040830187611202565b6112776060830186611202565b6112846080830185611202565b61129160a0830184611149565b979650505050505050565b600060c0820190506112b160008301896110dc565b6112be60208301886110dc565b6112cb6040830187611202565b6112d86060830186611202565b6112e56080830185611202565b6112f260a0830184611158565b979650505050505050565b600061010082019050611313600083018b6110dc565b611320602083018a6110dc565b61132d6040830189611202565b61133a6060830188611202565b6113476080830187611202565b61135460a0830186611211565b61136160c0830185611202565b61136e60e0830184611202565b9998505050505050505050565b600060408201905061139060008301856110dc565b61139d6020830184611202565b9392505050565b600060208201905081810360008301526113be81846110eb565b905092915050565b600060208201905081810360008301526113df81611167565b9050919050565b600060208201905081810360008301526113ff8161118a565b9050919050565b6000602082019050818103600083015261141f816111ad565b9050919050565b6000602082019050818103600083015261143f816111d0565b9050919050565b600060208201905061145b6000830184611202565b92915050565b600061146b61147c565b905061147782826115a9565b919050565b6000604051905090565b600067ffffffffffffffff8211156114a1576114a0611681565b5b602082029050602081019050919050565b6000819050602082019050919050565b600081519050919050565b6000602082019050919050565b600082825260208201905092915050565b600082825260208201905092915050565b60006115078261156e565b91506115128361156e565b92508282101561152557611524611623565b5b828203905092915050565b600061153b8261154e565b9050919050565b60008115159050919050565b600073ffffffffffffffffffffffffffffffffffffffff82169050919050565b6000819050919050565b600060ff82169050919050565b600061159082611578565b9050919050565b60006115a282611578565b9050919050565b6115b2826116c9565b810181811067ffffffffffffffff821117156115d1576115d0611681565b5b80604052505050565b60006115e58261156e565b91507fffffffffffffffffffffffffffffffffffffffffffffffffffffffffffffffff82141561161857611617611623565b5b600182019050919050565b7f4e487b7100000000000000000000000000000000000000000000000000000000600052601160045260246000fd5b7f4e487b7100000000000000000000000000000000000000000000000000000000600052603260045260246000fd5b7f4e487b7100000000000000000000000000000000000000000000000000000000600052604160045260246000fd5b600080fd5b600080fd5b600080fd5b600080fd5b600080fd5b6000601f19601f8301169050919050565b7f43574c3a20696e76616c696420746f2061646472657373000000000000000000600082015250565b7f43574c3a20696e73756666696369656e742066756e6473000000000000000000600082015250565b7f43574c3a2073656c6620666f7262696464656e00000000000000000000000000600082015250565b7f43574c3a20616d6f756e742063616e6e6f7420657175616c2030000000000000600082015250565b61178781611530565b811461179257600080fd5b50565b61179e81611542565b81146117a957600080fd5b50565b6117b58161156e565b81146117c057600080fd5b50565b6117cc81611578565b81146117d757600080fd5b5056fea26469706673582212204972f9d10efc14ad753b1af3cdd2402409211f4b787081b451624b53d6c34e2064736f6c63430008060033",
  "immutableReferences": {},
  "source": "// SPDX-License-Identifier: MIT\npragma solidity ^0.8.0;\n\nimport \"./CustodianWalletLogic.sol\";\nimport \"./CustodianWalletProxy.sol\";\nimport \"./Escrow.sol\";\n\n/**\n * @dev Factotory responsible for deploying Escrow, Custodian Wallet Logic and\n * managed CustodianWalletProxy for both Vendor and Customer.\n *\n * Note Controlled by deployer account.\n */\ncontract Factory {\n  ////////////////////////////////////////\n  //                                    //\n  //         STATE VARIABLES            //\n  //                                    //\n  ////////////////////////////////////////\n\n  /// @notice EOA of deployer wallet\n  address public ochestrator;\n\n  /// @notice the address of the Custodian Wallet Logic\n  address public custodianWallet;\n\n  address public escrowContractAddress;\n\n  /// @notice mapping of account unique id to custodian wallet\n  /// Note avoid passing predictable number such as incremental number. Use UUID string instead\n  mapping(string => address) public accounts;\n\n  event NewCustodian(string uniqueId, address indexed account);\n\n  ////////////////////////////////////////\n  //                                    //\n  //              FUNCTIONS             //\n  //                                    //\n  ////////////////////////////////////////\n  modifier onlyOchesrator() {\n    require(msg.sender == ochestrator, \"F: only ochestrator\");\n    _;\n  }\n\n  constructor() {\n    ochestrator = msg.sender;\n    escrowContractAddress = address(new Escrow(msg.sender));\n    custodianWallet = address(new CustodianWalletLogic());\n  }\n\n  /**\n   * @dev create a new custodian wallet\n   * @param uuid is the unique id of the custodian wallet\n   */\n  function newCustodian(string memory uuid)\n    public\n    onlyOchesrator\n    returns (string memory, address)\n  {\n    require(accounts[uuid] == address(0x0), \"F: account exist\");\n\n    address wallet = address(\n      new CustodianWalletProxy(custodianWallet, escrowContractAddress)\n    );\n    accounts[uuid] = wallet;\n\n    emit NewCustodian(uuid, wallet);\n\n    return (uuid, wallet);\n  }\n}\n",
  "sourcePath": "/Users/drewhyte/Sites/SOLIDITY/piggyfi-contract-avax-poc/contracts/Factory.sol",
  "compiler": {
    "name": "solc",
    "version": "0.8.6+commit.11564f7e.Emscripten.clang"
  },
  "schemaVersion": "3.4.6",
  "updatedAt": "2022-05-01T16:10:23.492Z",
  "devdoc": {
    "details": "Factotory responsible for deploying Escrow, Custodian Wallet Logic and managed CustodianWalletProxy for both Vendor and Customer. Note Controlled by deployer account.",
    "kind": "dev",
    "methods": {
      "newCustodian(string)": {
        "details": "create a new custodian wallet",
        "params": {
          "uuid": "is the unique id of the custodian wallet"
        }
      }
    },
    "version": 1
  },
  "userdoc": {
    "kind": "user",
    "methods": {
      "accounts(string)": {
        "notice": "mapping of account unique id to custodian wallet Note avoid passing predictable number such as incremental number. Use UUID string instead"
      },
      "custodianWallet()": {
        "notice": "the address of the Custodian Wallet Logic"
      },
      "ochestrator()": {
        "notice": "EOA of deployer wallet"
      }
    },
    "version": 1
  }
}