{
  "contractName": "Factory",
  "abi": [
    {
      "inputs": [],
      "stateMutability": "nonpayable",
      "type": "constructor"
    },
    {
      "anonymous": false,
      "inputs": [
        {
          "indexed": false,
          "internalType": "string",
          "name": "uniqueId",
          "type": "string"
        },
        {
          "indexed": true,
          "internalType": "address",
          "name": "account",
          "type": "address"
        }
      ],
      "name": "NewCustodian",
      "type": "event"
    },
    {
      "inputs": [
        {
          "internalType": "string",
          "name": "",
          "type": "string"
        }
      ],
      "name": "accounts",
      "outputs": [
        {
          "internalType": "address",
          "name": "",
          "type": "address"
        }
      ],
      "stateMutability": "view",
      "type": "function"
    },
    {
      "inputs": [],
      "name": "custodianWallet",
      "outputs": [
        {
          "internalType": "address",
          "name": "",
          "type": "address"
        }
      ],
      "stateMutability": "view",
      "type": "function"
    },
    {
      "inputs": [],
      "name": "ochestrator",
      "outputs": [
        {
          "internalType": "address",
          "name": "",
          "type": "address"
        }
      ],
      "stateMutability": "view",
      "type": "function"
    },
    {
      "inputs": [],
      "name": "usdcToken",
      "outputs": [
        {
          "internalType": "address",
          "name": "",
          "type": "address"
        }
      ],
      "stateMutability": "view",
      "type": "function"
    },
    {
      "inputs": [
        {
          "internalType": "address",
          "name": "usdcContractAddress",
          "type": "address"
        }
      ],
      "name": "setUsdTokenAddress",
      "outputs": [],
      "stateMutability": "nonpayable",
      "type": "function"
    },
    {
      "inputs": [
        {
          "internalType": "string",
          "name": "uuid",
          "type": "string"
        }
      ],
      "name": "newCustodian",
      "outputs": [
        {
          "internalType": "string",
          "name": "",
          "type": "string"
        },
        {
          "internalType": "address",
          "name": "",
          "type": "address"
        }
      ],
      "stateMutability": "nonpayable",
      "type": "function"
    }
  ],
  "bytecode": "0x608060405234801561001057600080fd5b50336000806101000a81548173ffffffffffffffffffffffffffffffffffffffff021916908373ffffffffffffffffffffffffffffffffffffffff16021790555060405161005d906100bf565b604051809103906000f080158015610079573d6000803e3d6000fd5b50600160006101000a81548173ffffffffffffffffffffffffffffffffffffffff021916908373ffffffffffffffffffffffffffffffffffffffff1602179055506100cc565b6101348061125e83390190565b611183806100db6000396000f3fe60806040523480156200001157600080fd5b506004361062000087576000357c01000000000000000000000000000000000000000000000000000000009004806311eac855146200008c5780631e106e9914620000ae5780633039041414620000d05780639b7fbea614620001065780639c811d43146200013d578063ef16f6da146200015f575b600080fd5b620000966200017f565b604051620000a5919062000658565b60405180910390f35b620000b8620001a5565b604051620000c7919062000658565b60405180910390f35b620000ee6004803603810190620000e89190620007eb565b620001cb565b604051620000fd919062000658565b60405180910390f35b6200012460048036038101906200011e9190620007eb565b62000214565b60405162000134929190620008cf565b60405180910390f35b620001476200049a565b60405162000156919062000658565b60405180910390f35b6200017d600480360381019062000177919062000934565b620004be565b005b600360009054906101000a900473ffffffffffffffffffffffffffffffffffffffff1681565b600160009054906101000a900473ffffffffffffffffffffffffffffffffffffffff1681565b6002818051602081018201805184825260208301602085012081835280955050505050506000915054906101000a900473ffffffffffffffffffffffffffffffffffffffff1681565b606060008060009054906101000a900473ffffffffffffffffffffffffffffffffffffffff1673ffffffffffffffffffffffffffffffffffffffff163373ffffffffffffffffffffffffffffffffffffffff1614620002aa576040517f08c379a0000000000000000000000000000000000000000000000000000000008152600401620002a190620009b6565b60405180910390fd5b600073ffffffffffffffffffffffffffffffffffffffff16600284604051620002d4919062000a1a565b908152602001604051809103902060009054906101000a900473ffffffffffffffffffffffffffffffffffffffff1673ffffffffffffffffffffffffffffffffffffffff16146200035c576040517f08c379a0000000000000000000000000000000000000000000000000000000008152600401620003539062000a83565b60405180910390fd5b6000600160009054906101000a900473ffffffffffffffffffffffffffffffffffffffff1660008054906101000a900473ffffffffffffffffffffffffffffffffffffffff1630604051620003b19062000605565b620003bf9392919062000aa5565b604051809103906000f080158015620003dc573d6000803e3d6000fd5b50905080600285604051620003f2919062000a1a565b908152602001604051809103902060006101000a81548173ffffffffffffffffffffffffffffffffffffffff021916908373ffffffffffffffffffffffffffffffffffffffff1602179055508073ffffffffffffffffffffffffffffffffffffffff167f6eaee8201a623d4ec5397b1feccc8f1ee1dc236fc702e24142f618ada708859d8560405162000486919062000ae2565b60405180910390a283819250925050915091565b60008054906101000a900473ffffffffffffffffffffffffffffffffffffffff1681565b60008054906101000a900473ffffffffffffffffffffffffffffffffffffffff1673ffffffffffffffffffffffffffffffffffffffff163373ffffffffffffffffffffffffffffffffffffffff16146200054f576040517f08c379a00000000000000000000000000000000000000000000000000000000081526004016200054690620009b6565b60405180910390fd5b600073ffffffffffffffffffffffffffffffffffffffff168173ffffffffffffffffffffffffffffffffffffffff1614620005c1576040517f08c379a0000000000000000000000000000000000000000000000000000000008152600401620005b89062000b56565b60405180910390fd5b80600360006101000a81548173ffffffffffffffffffffffffffffffffffffffff021916908373ffffffffffffffffffffffffffffffffffffffff16021790555050565b6105d58062000b7983390190565b600073ffffffffffffffffffffffffffffffffffffffff82169050919050565b6000620006408262000613565b9050919050565b620006528162000633565b82525050565b60006020820190506200066f600083018462000647565b92915050565b6000604051905090565b600080fd5b600080fd5b600080fd5b600080fd5b6000601f19601f8301169050919050565b7f4e487b7100000000000000000000000000000000000000000000000000000000600052604160045260246000fd5b620006de8262000693565b810181811067ffffffffffffffff821117156200070057620006ff620006a4565b5b80604052505050565b60006200071562000675565b9050620007238282620006d3565b919050565b600067ffffffffffffffff821115620007465762000745620006a4565b5b620007518262000693565b9050602081019050919050565b82818337600083830152505050565b6000620007846200077e8462000728565b62000709565b905082815260208101848484011115620007a357620007a26200068e565b5b620007b08482856200075e565b509392505050565b600082601f830112620007d057620007cf62000689565b5b8135620007e28482602086016200076d565b91505092915050565b6000602082840312156200080457620008036200067f565b5b600082013567ffffffffffffffff81111562000825576200082462000684565b5b6200083384828501620007b8565b91505092915050565b600081519050919050565b600082825260208201905092915050565b60005b83811015620008785780820151818401526020810190506200085b565b8381111562000888576000848401525b50505050565b60006200089b826200083c565b620008a7818562000847565b9350620008b981856020860162000858565b620008c48162000693565b840191505092915050565b60006040820190508181036000830152620008eb81856200088e565b9050620008fc602083018462000647565b9392505050565b6200090e8162000633565b81146200091a57600080fd5b50565b6000813590506200092e8162000903565b92915050565b6000602082840312156200094d576200094c6200067f565b5b60006200095d848285016200091d565b91505092915050565b7f463a206f6e6c79206465706c6f79657200000000000000000000000000000000600082015250565b60006200099e60108362000847565b9150620009ab8262000966565b602082019050919050565b60006020820190508181036000830152620009d1816200098f565b9050919050565b600081905092915050565b6000620009f0826200083c565b620009fc8185620009d8565b935062000a0e81856020860162000858565b80840191505092915050565b600062000a288284620009e3565b915081905092915050565b7f463a206163636f756e7420657869737400000000000000000000000000000000600082015250565b600062000a6b60108362000847565b915062000a788262000a33565b602082019050919050565b6000602082019050818103600083015262000a9e8162000a5c565b9050919050565b600060608201905062000abc600083018662000647565b62000acb602083018562000647565b62000ada604083018462000647565b949350505050565b6000602082019050818103600083015262000afe81846200088e565b905092915050565b7f463a20696e76616c696420616464726573730000000000000000000000000000600082015250565b600062000b3e60128362000847565b915062000b4b8262000b06565b602082019050919050565b6000602082019050818103600083015262000b718162000b2f565b905091905056fe60c060405234801561001057600080fd5b506040516105d53803806105d583398181016040528101906100329190610145565b806000806101000a81548173ffffffffffffffffffffffffffffffffffffffff021916908373ffffffffffffffffffffffffffffffffffffffff1602179055508273ffffffffffffffffffffffffffffffffffffffff1660808173ffffffffffffffffffffffffffffffffffffffff16815250508173ffffffffffffffffffffffffffffffffffffffff1660a08173ffffffffffffffffffffffffffffffffffffffff1681525050505050610198565b600080fd5b600073ffffffffffffffffffffffffffffffffffffffff82169050919050565b6000610112826100e7565b9050919050565b61012281610107565b811461012d57600080fd5b50565b60008151905061013f81610119565b92915050565b60008060006060848603121561015e5761015d6100e2565b5b600061016c86828701610130565b935050602061017d86828701610130565b925050604061018e86828701610130565b9150509250925092565b60805160a05161040c6101c960003960008181605e015261022701526000818160ee015261026f015261040c6000f3fe608060405260043610610055576000357c0100000000000000000000000000000000000000000000000000000000900480639c811d43146101a4578063c45a0155146101cf578063d7dfa0dd146101fa5761005c565b3661005c57005b7f000000000000000000000000000000000000000000000000000000000000000073ffffffffffffffffffffffffffffffffffffffff163373ffffffffffffffffffffffffffffffffffffffff16146100ea576040517f08c379a00000000000000000000000000000000000000000000000000000000081526004016100e1906102ee565b60405180910390fd5b60007f00000000000000000000000000000000000000000000000000000000000000009050600073ffffffffffffffffffffffffffffffffffffffff168173ffffffffffffffffffffffffffffffffffffffff160361017e576040517f08c379a00000000000000000000000000000000000000000000000000000000081526004016101759061035a565b60405180910390fd5b3660008037600080366000845af43d6000803e806000811461019f573d6000f35b3d6000fd5b3480156101b057600080fd5b506101b9610225565b6040516101c691906103bb565b60405180910390f35b3480156101db57600080fd5b506101e4610249565b6040516101f191906103bb565b60405180910390f35b34801561020657600080fd5b5061020f61026d565b60405161021c91906103bb565b60405180910390f35b7f000000000000000000000000000000000000000000000000000000000000000081565b60008054906101000a900473ffffffffffffffffffffffffffffffffffffffff1681565b7f000000000000000000000000000000000000000000000000000000000000000081565b600082825260208201905092915050565b7f57616c6c657450726f78793a204f6e6c79206f63686573747261746f72000000600082015250565b60006102d8601d83610291565b91506102e3826102a2565b602082019050919050565b60006020820190508181036000830152610307816102cb565b9050919050565b7f4c6f67696320636f6e7472616374206e6f742073657400000000000000000000600082015250565b6000610344601683610291565b915061034f8261030e565b602082019050919050565b6000602082019050818103600083015261037381610337565b9050919050565b600073ffffffffffffffffffffffffffffffffffffffff82169050919050565b60006103a58261037a565b9050919050565b6103b58161039a565b82525050565b60006020820190506103d060008301846103ac565b9291505056fea2646970667358221220405223e28e993231fbd15e529d9e9296af0420f0c92a0c663b69c0b8ae5569ff64736f6c634300080d0033a26469706673582212207d5bc7d519ee2fec273fc7dd4e00c700308edb8f76cb531d45bfb8a4725a493864736f6c634300080d0033608060405234801561001057600080fd5b50610114806100206000396000f3fe6080604052348015600f57600080fd5b50600436106045576000357c010000000000000000000000000000000000000000000000000000000090048063c45a015514604a575b600080fd5b60506064565b604051605b919060c5565b60405180910390f35b60008054906101000a900473ffffffffffffffffffffffffffffffffffffffff1681565b600073ffffffffffffffffffffffffffffffffffffffff82169050919050565b600060b1826088565b9050919050565b60bf8160a8565b82525050565b600060208201905060d8600083018460b8565b9291505056fea26469706673582212209369e6952e397d5204e6a5e5ddf10c282a54133b6a3dbffaec1d820ebfcc2db064736f6c634300080d0033",
  "immutableReferences": {},
  "source": "// SPDX-License-Identifier: MIT\npragma solidity ^0.8.0;\n\nimport \"./CustodianWalletLogic.sol\";\nimport \"./CustodianWalletProxy.sol\";\n\n/**\n * @dev Factotory responsible for deploying Escrow, Custodian Wallet Logic and\n * managed CustodianWalletProxy for both Vendor and Customer.\n *\n * Note Controlled by deployer account.\n */\ncontract Factory {\n  ////////////////////////////////////////\n  //                                    //\n  //         STATE VARIABLES            //\n  //                                    //\n  ////////////////////////////////////////\n\n  /// @notice EOA of deployer wallet\n  address public ochestrator;\n\n  /// @notice the address of the Custodian Wallet Logic\n  address public custodianWallet;\n\n  /// @notice mapping of account unique id to custodian wallet\n  /// Note avoid passing predictable number such as incremental number. Use UUID string instead\n  mapping(string => address) public accounts;\n\n  /// @notice address of accepted USDC on deployed chain\n  address public usdcToken;\n\n  event NewCustodian(string uniqueId, address indexed account);\n\n  ////////////////////////////////////////\n  //                                    //\n  //              FUNCTIONS             //\n  //                                    //\n  ////////////////////////////////////////\n  modifier onlyOchesrator() {\n    require(msg.sender == ochestrator, \"F: only deployer\");\n    _;\n  }\n\n  constructor() {\n    ochestrator = msg.sender;\n    custodianWallet = address(new CustodianWalletLogic());\n  }\n\n  /**\n   * @dev allow deployer to update of USD Token contract address\n   * @param usdcContractAddress is the address of the chosen stabel currency to accepted\n   * Note use with caution, once a certain USD token is accepted changing will make the other USD token stuck\n   */\n  function setUsdTokenAddress(address usdcContractAddress)\n    public\n    onlyOchesrator\n  {\n    require(usdcContractAddress == address(0x0), \"F: invalid address\");\n    usdcToken = usdcContractAddress;\n  }\n\n  /**\n   * @dev create a new custodian wallet\n   * @param uuid is the unique id of the custodian wallet\n   */\n  function newCustodian(string memory uuid)\n    public\n    onlyOchesrator\n    returns (string memory, address)\n  {\n    require(accounts[uuid] == address(0x0), \"F: account exist\");\n\n    address wallet = address(\n      new CustodianWalletProxy(custodianWallet, ochestrator, address(this))\n    );\n    accounts[uuid] = wallet;\n\n    emit NewCustodian(uuid, wallet);\n\n    return (uuid, wallet);\n  }\n}\n",
  "sourcePath": "/Users/drewhyte/Sites/SOLIDITY/piggyfi-contract-avax-poc/contracts/Factory.sol",
  "compiler": {
    "name": "solc",
    "version": "0.8.13+commit.abaa5c0e.Emscripten.clang"
  },
  "schemaVersion": "3.4.6",
  "updatedAt": "2022-04-29T14:53:08.934Z",
  "devdoc": {
    "details": "Factotory responsible for deploying Escrow, Custodian Wallet Logic and managed CustodianWalletProxy for both Vendor and Customer. Note Controlled by deployer account.",
    "kind": "dev",
    "methods": {
      "newCustodian(string)": {
        "details": "create a new custodian wallet",
        "params": {
          "uuid": "is the unique id of the custodian wallet"
        }
      },
      "setUsdTokenAddress(address)": {
        "details": "allow deployer to update of USD Token contract address",
        "params": {
          "usdcContractAddress": "is the address of the chosen stabel currency to accepted Note use with caution, once a certain USD token is accepted changing will make the other USD token stuck"
        }
      }
    },
    "version": 1
  },
  "userdoc": {
    "kind": "user",
    "methods": {
      "accounts(string)": {
        "notice": "mapping of account unique id to custodian wallet Note avoid passing predictable number such as incremental number. Use UUID string instead"
      },
      "custodianWallet()": {
        "notice": "the address of the Custodian Wallet Logic"
      },
      "ochestrator()": {
        "notice": "EOA of deployer wallet"
      },
      "usdcToken()": {
        "notice": "address of accepted USDC on deployed chain"
      }
    },
    "version": 1
  }
}