{
  "contractName": "Factory",
  "abi": [
    {
      "inputs": [],
      "stateMutability": "nonpayable",
      "type": "constructor"
    },
    {
      "anonymous": false,
      "inputs": [
        {
          "indexed": false,
          "internalType": "string",
          "name": "uniqueId",
          "type": "string"
        },
        {
          "indexed": true,
          "internalType": "address",
          "name": "account",
          "type": "address"
        }
      ],
      "name": "NewCustodian",
      "type": "event"
    },
    {
      "inputs": [
        {
          "internalType": "string",
          "name": "",
          "type": "string"
        }
      ],
      "name": "accounts",
      "outputs": [
        {
          "internalType": "address",
          "name": "",
          "type": "address"
        }
      ],
      "stateMutability": "view",
      "type": "function",
      "constant": true
    },
    {
      "inputs": [],
      "name": "custodianWalletLogic",
      "outputs": [
        {
          "internalType": "address",
          "name": "",
          "type": "address"
        }
      ],
      "stateMutability": "view",
      "type": "function",
      "constant": true
    },
    {
      "inputs": [],
      "name": "escrowContractAddress",
      "outputs": [
        {
          "internalType": "address",
          "name": "",
          "type": "address"
        }
      ],
      "stateMutability": "view",
      "type": "function",
      "constant": true
    },
    {
      "inputs": [],
      "name": "ochestrator",
      "outputs": [
        {
          "internalType": "address",
          "name": "",
          "type": "address"
        }
      ],
      "stateMutability": "view",
      "type": "function",
      "constant": true
    },
    {
      "inputs": [
        {
          "internalType": "string",
          "name": "uuid",
          "type": "string"
        }
      ],
      "name": "newCustodian",
      "outputs": [
        {
          "internalType": "string",
          "name": "",
          "type": "string"
        },
        {
          "internalType": "address",
          "name": "",
          "type": "address"
        }
      ],
      "stateMutability": "nonpayable",
      "type": "function"
    }
  ],
  "bytecode": "0x608060405234801561001057600080fd5b50336000806101000a81548173ffffffffffffffffffffffffffffffffffffffff021916908373ffffffffffffffffffffffffffffffffffffffff1602179055503360405161005e90610133565b610068919061015c565b604051809103906000f080158015610084573d6000803e3d6000fd5b50600260006101000a81548173ffffffffffffffffffffffffffffffffffffffff021916908373ffffffffffffffffffffffffffffffffffffffff1602179055506040516100d190610140565b604051809103906000f0801580156100ed573d6000803e3d6000fd5b50600160006101000a81548173ffffffffffffffffffffffffffffffffffffffff021916908373ffffffffffffffffffffffffffffffffffffffff1602179055506101a9565b611938806113eb83390190565b6120e380612d2383390190565b61015681610177565b82525050565b6000602082019050610171600083018461014d565b92915050565b600061018282610189565b9050919050565b600073ffffffffffffffffffffffffffffffffffffffff82169050919050565b611233806101b86000396000f3fe608060405234801561001057600080fd5b5060043610610074576000357c010000000000000000000000000000000000000000000000000000000090048063303904141461007957806333a676ed146100a95780639b7fbea6146100c75780639c811d43146100f8578063d226ae0814610116575b600080fd5b610093600480360381019061008e91906104df565b610134565b6040516100a091906105fe565b60405180910390f35b6100b161017d565b6040516100be91906105fe565b60405180910390f35b6100e160048036038101906100dc91906104df565b6101a3565b6040516100ef929190610672565b60405180910390f35b610100610418565b60405161010d91906105fe565b60405180910390f35b61011e61043c565b60405161012b91906105fe565b60405180910390f35b6003818051602081018201805184825260208301602085012081835280955050505050506000915054906101000a900473ffffffffffffffffffffffffffffffffffffffff1681565b600160009054906101000a900473ffffffffffffffffffffffffffffffffffffffff1681565b606060008060009054906101000a900473ffffffffffffffffffffffffffffffffffffffff1673ffffffffffffffffffffffffffffffffffffffff163373ffffffffffffffffffffffffffffffffffffffff1614610236576040517f08c379a000000000000000000000000000000000000000000000000000000000815260040161022d906106a2565b60405180910390fd5b600073ffffffffffffffffffffffffffffffffffffffff1660038460405161025e91906105e7565b908152602001604051809103902060009054906101000a900473ffffffffffffffffffffffffffffffffffffffff1673ffffffffffffffffffffffffffffffffffffffff16146102e3576040517f08c379a00000000000000000000000000000000000000000000000000000000081526004016102da906106c2565b60405180910390fd5b6000600160009054906101000a900473ffffffffffffffffffffffffffffffffffffffff1660008054906101000a900473ffffffffffffffffffffffffffffffffffffffff163060405161033690610462565b61034293929190610619565b604051809103906000f08015801561035e573d6000803e3d6000fd5b5090508060038560405161037291906105e7565b908152602001604051809103902060006101000a81548173ffffffffffffffffffffffffffffffffffffffff021916908373ffffffffffffffffffffffffffffffffffffffff1602179055508073ffffffffffffffffffffffffffffffffffffffff167f6eaee8201a623d4ec5397b1feccc8f1ee1dc236fc702e24142f618ada708859d856040516104049190610650565b60405180910390a283819250925050915091565b60008054906101000a900473ffffffffffffffffffffffffffffffffffffffff1681565b600260009054906101000a900473ffffffffffffffffffffffffffffffffffffffff1681565b610953806108ab83390190565b600061048261047d84610707565b6106e2565b90508281526020810184848401111561049e5761049d610838565b5b6104a9848285610791565b509392505050565b600082601f8301126104c6576104c5610833565b5b81356104d684826020860161046f565b91505092915050565b6000602082840312156104f5576104f4610842565b5b600082013567ffffffffffffffff8111156105135761051261083d565b5b61051f848285016104b1565b91505092915050565b6105318161075f565b82525050565b600061054282610738565b61054c8185610743565b935061055c8185602086016107a0565b61056581610847565b840191505092915050565b600061057b82610738565b6105858185610754565b93506105958185602086016107a0565b80840191505092915050565b60006105ae601383610743565b91506105b982610858565b602082019050919050565b60006105d1601083610743565b91506105dc82610881565b602082019050919050565b60006105f38284610570565b915081905092915050565b60006020820190506106136000830184610528565b92915050565b600060608201905061062e6000830186610528565b61063b6020830185610528565b6106486040830184610528565b949350505050565b6000602082019050818103600083015261066a8184610537565b905092915050565b6000604082019050818103600083015261068c8185610537565b905061069b6020830184610528565b9392505050565b600060208201905081810360008301526106bb816105a1565b9050919050565b600060208201905081810360008301526106db816105c4565b9050919050565b60006106ec6106fd565b90506106f882826107d3565b919050565b6000604051905090565b600067ffffffffffffffff82111561072257610721610804565b5b61072b82610847565b9050602081019050919050565b600081519050919050565b600082825260208201905092915050565b600081905092915050565b600061076a82610771565b9050919050565b600073ffffffffffffffffffffffffffffffffffffffff82169050919050565b82818337600083830152505050565b60005b838110156107be5780820151818401526020810190506107a3565b838111156107cd576000848401525b50505050565b6107dc82610847565b810181811067ffffffffffffffff821117156107fb576107fa610804565b5b80604052505050565b7f4e487b7100000000000000000000000000000000000000000000000000000000600052604160045260246000fd5b600080fd5b600080fd5b600080fd5b600080fd5b6000601f19601f8301169050919050565b7f463a206f6e6c79206f63686573747261746f7200000000000000000000000000600082015250565b7f463a206163636f756e742065786973740000000000000000000000000000000060008201525056fe60c060405234801561001057600080fd5b5060405161095338038061095383398181016040528101906100329190610116565b8173ffffffffffffffffffffffffffffffffffffffff1660a08173ffffffffffffffffffffffffffffffffffffffff166c0100000000000000000000000002815250508273ffffffffffffffffffffffffffffffffffffffff1660808173ffffffffffffffffffffffffffffffffffffffff166c01000000000000000000000000028152505080600260006101000a81548173ffffffffffffffffffffffffffffffffffffffff021916908373ffffffffffffffffffffffffffffffffffffffff1602179055505050506101b7565b600081519050610110816101a0565b92915050565b60008060006060848603121561012f5761012e61019b565b5b600061013d86828701610101565b935050602061014e86828701610101565b925050604061015f86828701610101565b9150509250925092565b60006101748261017b565b9050919050565b600073ffffffffffffffffffffffffffffffffffffffff82169050919050565b600080fd5b6101a981610169565b81146101b457600080fd5b50565b6080516c01000000000000000000000000900460a0516c01000000000000000000000000900461074a61020960003960008181607401526102f10152600081816101040152610406015261074a6000f3fe60806040526004361061006b576000357c0100000000000000000000000000000000000000000000000000000000900480631e7cea80146101bb5780639c811d43146101f8578063a85c38ef14610223578063c45a015514610268578063d7dfa0dd1461029357610072565b3661007257005b7f000000000000000000000000000000000000000000000000000000000000000073ffffffffffffffffffffffffffffffffffffffff163373ffffffffffffffffffffffffffffffffffffffff1614610100576040517f08c379a00000000000000000000000000000000000000000000000000000000081526004016100f7906105da565b60405180910390fd5b60007f00000000000000000000000000000000000000000000000000000000000000009050600073ffffffffffffffffffffffffffffffffffffffff168173ffffffffffffffffffffffffffffffffffffffff161415610195576040517f08c379a000000000000000000000000000000000000000000000000000000000815260040161018c906105fa565b60405180910390fd5b3660008037600080366000845af43d6000803e80600081146101b6573d6000f35b3d6000fd5b3480156101c757600080fd5b506101e260048036038101906101dd9190610452565b6102be565b6040516101ef919061061a565b60405180910390f35b34801561020457600080fd5b5061020d6102ef565b60405161021a9190610532565b60405180910390f35b34801561022f57600080fd5b5061024a60048036038101906102459190610492565b610313565b60405161025f9998979695949392919061054d565b60405180910390f35b34801561027457600080fd5b5061027d6103de565b60405161028a9190610532565b60405180910390f35b34801561029f57600080fd5b506102a8610404565b6040516102b59190610532565b60405180910390f35b600160205281600052604060002081815481106102da57600080fd5b90600052602060002001600091509150505481565b7f000000000000000000000000000000000000000000000000000000000000000081565b6000818154811061032357600080fd5b90600052602060002090600902016000915090508060000160009054906101000a900473ffffffffffffffffffffffffffffffffffffffff16908060010160009054906101000a900473ffffffffffffffffffffffffffffffffffffffff16908060020160009054906101000a900473ffffffffffffffffffffffffffffffffffffffff16908060030154908060040154908060050154908060060160009054906101000a900460ff16908060070154908060080154905089565b600260009054906101000a900473ffffffffffffffffffffffffffffffffffffffff1681565b7f000000000000000000000000000000000000000000000000000000000000000081565b600081359050610437816106e6565b92915050565b60008135905061044c816106fd565b92915050565b600080604083850312156104695761046861068f565b5b600061047785828601610428565b92505060206104888582860161043d565b9150509250929050565b6000602082840312156104a8576104a761068f565b5b60006104b68482850161043d565b91505092915050565b6104c881610646565b82525050565b60006104db601183610635565b91506104e682610694565b602082019050919050565b60006104fe601683610635565b9150610509826106bd565b602082019050919050565b61051d81610678565b82525050565b61052c81610682565b82525050565b600060208201905061054760008301846104bf565b92915050565b600061012082019050610563600083018c6104bf565b610570602083018b6104bf565b61057d604083018a6104bf565b61058a6060830189610514565b6105976080830188610514565b6105a460a0830187610514565b6105b160c0830186610523565b6105be60e0830185610514565b6105cc610100830184610514565b9a9950505050505050505050565b600060208201905081810360008301526105f3816104ce565b9050919050565b60006020820190508181036000830152610613816104f1565b9050919050565b600060208201905061062f6000830184610514565b92915050565b600082825260208201905092915050565b600061065182610658565b9050919050565b600073ffffffffffffffffffffffffffffffffffffffff82169050919050565b6000819050919050565b600060ff82169050919050565b600080fd5b7f57503a206465706c6f796572206f6e6c79000000000000000000000000000000600082015250565b7f4c6f67696320636f6e7472616374206e6f742073657400000000000000000000600082015250565b6106ef81610646565b81146106fa57600080fd5b50565b61070681610678565b811461071157600080fd5b5056fea26469706673582212201f9f3ea4816765db486f5fe964f84c5dceda1a1f8baec299053f08962ad445fd64736f6c63430008060033a264697066735822122047d3cf82efe71ce85c0c9db08598b9ea4c44cee306b46a100928bdec43241a9c64736f6c6343000806003360806040523480156200001157600080fd5b506040516200193838038062001938833981810160405281019062000037919062000096565b80600260006101000a81548173ffffffffffffffffffffffffffffffffffffffff021916908373ffffffffffffffffffffffffffffffffffffffff160217905550506200011b565b600081519050620000908162000101565b92915050565b600060208284031215620000af57620000ae620000fc565b5b6000620000bf848285016200007f565b91505092915050565b6000620000d582620000dc565b9050919050565b600073ffffffffffffffffffffffffffffffffffffffff82169050919050565b600080fd5b6200010c81620000c8565b81146200011857600080fd5b50565b61180d806200012b6000396000f3fe608060405234801561001057600080fd5b50600436106100c6576000357c0100000000000000000000000000000000000000000000000000000000900480636dee20321161008e5780636dee2032146101835780639c811d43146101b3578063a85c38ef146101d1578063b00f215c14610209578063b1fab21c14610225578063f3fd622f14610255576100c6565b806311a21b2c146100cb57806311eac855146100d55780631e7cea80146100f357806332c011171461012357806342b50a7a14610153575b600080fd5b6100d3610271565b005b6100dd6104bd565b6040516100ea919061135b565b60405180910390f35b61010d6004803603810190610108919061105e565b6104e3565b60405161011a919061150a565b60405180910390f35b61013d60048036038101906101389190610f8f565b610514565b60405161014a919061150a565b60405180910390f35b61016d600480360381019061016891906110cb565b610560565b60405161017a91906114ee565b60405180910390f35b61019d60048036038101906101989190610f8f565b6106ee565b6040516101aa919061142c565b60405180910390f35b6101bb610785565b6040516101c8919061135b565b60405180910390f35b6101eb60048036038101906101e691906110cb565b6107ab565b60405161020099989796959493929190611376565b60405180910390f35b610223600480360381019061021e919061105e565b610876565b005b61023f600480360381019061023a9190610fbc565b6109ad565b60405161024c919061150a565b60405180910390f35b61026f600480360381019061026a9190610f8f565b610d51565b005b600260009054906101000a900473ffffffffffffffffffffffffffffffffffffffff1673ffffffffffffffffffffffffffffffffffffffff163373ffffffffffffffffffffffffffffffffffffffff1614610301576040517f08c379a00000000000000000000000000000000000000000000000000000000081526004016102f8906114ce565b60405180910390fd5b6000600360009054906101000a900473ffffffffffffffffffffffffffffffffffffffff1673ffffffffffffffffffffffffffffffffffffffff166370a08231306040518263ffffffff167c010000000000000000000000000000000000000000000000000000000002815260040161037a919061135b565b60206040518083038186803b15801561039257600080fd5b505afa1580156103a6573d6000803e3d6000fd5b505050506040513d601f19601f820116820180604052508101906103ca91906110f8565b9050600360009054906101000a900473ffffffffffffffffffffffffffffffffffffffff1673ffffffffffffffffffffffffffffffffffffffff1663a9059cbb600260009054906101000a900473ffffffffffffffffffffffffffffffffffffffff16836040518363ffffffff167c0100000000000000000000000000000000000000000000000000000000028152600401610467929190611403565b602060405180830381600087803b15801561048157600080fd5b505af1158015610495573d6000803e3d6000fd5b505050506040513d601f19601f820116820180604052508101906104b9919061109e565b5050565b600360009054906101000a900473ffffffffffffffffffffffffffffffffffffffff1681565b600160205281600052604060002081815481106104ff57600080fd5b90600052602060002001600091509150505481565b6000600160008373ffffffffffffffffffffffffffffffffffffffff1673ffffffffffffffffffffffffffffffffffffffff168152602001908152602001600020805490509050919050565b610568610e95565b6000828154811061057c5761057b61167a565b5b9060005260206000209060090201604051806101200160405290816000820160009054906101000a900473ffffffffffffffffffffffffffffffffffffffff1673ffffffffffffffffffffffffffffffffffffffff1673ffffffffffffffffffffffffffffffffffffffff1681526020016001820160009054906101000a900473ffffffffffffffffffffffffffffffffffffffff1673ffffffffffffffffffffffffffffffffffffffff1673ffffffffffffffffffffffffffffffffffffffff1681526020016002820160009054906101000a900473ffffffffffffffffffffffffffffffffffffffff1673ffffffffffffffffffffffffffffffffffffffff1673ffffffffffffffffffffffffffffffffffffffff1681526020016003820154815260200160048201548152602001600582015481526020016006820160009054906101000a900460ff1660ff1660ff168152602001600782015481526020016008820154815250509050919050565b6060600160008373ffffffffffffffffffffffffffffffffffffffff1673ffffffffffffffffffffffffffffffffffffffff16815260200190815260200160002080548060200260200160405190810160405280929190818152602001828054801561077957602002820191906000526020600020905b815481526020019060010190808311610765575b50505050509050919050565b600260009054906101000a900473ffffffffffffffffffffffffffffffffffffffff1681565b600081815481106107bb57600080fd5b90600052602060002090600902016000915090508060000160009054906101000a900473ffffffffffffffffffffffffffffffffffffffff16908060010160009054906101000a900473ffffffffffffffffffffffffffffffffffffffff16908060020160009054906101000a900473ffffffffffffffffffffffffffffffffffffffff16908060030154908060040154908060050154908060060160009054906101000a900460ff16908060070154908060080154905089565b8173ffffffffffffffffffffffffffffffffffffffff163373ffffffffffffffffffffffffffffffffffffffff16146108e4576040517f08c379a00000000000000000000000000000000000000000000000000000000081526004016108db9061148e565b60405180910390fd5b600160008373ffffffffffffffffffffffffffffffffffffffff1673ffffffffffffffffffffffffffffffffffffffff16815260200190815260200160002081815481106109355761093461167a565b5b906000526020600020016000905560008082815481106109585761095761167a565b5b906000526020600020906009020190504281600801819055507feffe8b1d2a9cf39e57d4c149a66031e01358bf685cc7a6bf90e3deeeae58d530826040516109a0919061150a565b60405180910390a1505050565b60008673ffffffffffffffffffffffffffffffffffffffff163373ffffffffffffffffffffffffffffffffffffffff1614610a1d576040517f08c379a0000000000000000000000000000000000000000000000000000000008152600401610a149061144e565b60405180910390fd5b60008511610a60576040517f08c379a0000000000000000000000000000000000000000000000000000000008152600401610a579061146e565b60405180910390fd5b60006040518061012001604052808a73ffffffffffffffffffffffffffffffffffffffff1681526020018973ffffffffffffffffffffffffffffffffffffffff1681526020018873ffffffffffffffffffffffffffffffffffffffff1681526020018781526020018681526020018581526020018460ff16815260200142815260200160008152509050600081908060018154018082558091505060019003906000526020600020906009020160009091909190915060008201518160000160006101000a81548173ffffffffffffffffffffffffffffffffffffffff021916908373ffffffffffffffffffffffffffffffffffffffff16021790555060208201518160010160006101000a81548173ffffffffffffffffffffffffffffffffffffffff021916908373ffffffffffffffffffffffffffffffffffffffff16021790555060408201518160020160006101000a81548173ffffffffffffffffffffffffffffffffffffffff021916908373ffffffffffffffffffffffffffffffffffffffff160217905550606082015181600301556080820151816004015560a0820151816005015560c08201518160060160006101000a81548160ff021916908360ff16021790555060e082015181600701556101008201518160080155505060006001600080549050610c5591906115c2565b9050600160008b73ffffffffffffffffffffffffffffffffffffffff1673ffffffffffffffffffffffffffffffffffffffff1681526020019081526020016000208190806001815401808255809150506001900390600052602060002001600090919091909150558773ffffffffffffffffffffffffffffffffffffffff168973ffffffffffffffffffffffffffffffffffffffff168b73ffffffffffffffffffffffffffffffffffffffff167f5b73f6247366d92ee603eac9f08b57d720d84527717dceae9a96367b83e7a133848b8b8b8b604051610d39959493929190611525565b60405180910390a48092505050979650505050505050565b600260009054906101000a900473ffffffffffffffffffffffffffffffffffffffff1673ffffffffffffffffffffffffffffffffffffffff163373ffffffffffffffffffffffffffffffffffffffff1614610de1576040517f08c379a0000000000000000000000000000000000000000000000000000000008152600401610dd8906114ce565b60405180910390fd5b600073ffffffffffffffffffffffffffffffffffffffff168173ffffffffffffffffffffffffffffffffffffffff161415610e51576040517f08c379a0000000000000000000000000000000000000000000000000000000008152600401610e48906114ae565b60405180910390fd5b80600360006101000a81548173ffffffffffffffffffffffffffffffffffffffff021916908373ffffffffffffffffffffffffffffffffffffffff16021790555050565b604051806101200160405280600073ffffffffffffffffffffffffffffffffffffffff168152602001600073ffffffffffffffffffffffffffffffffffffffff168152602001600073ffffffffffffffffffffffffffffffffffffffff168152602001600081526020016000815260200160008152602001600060ff16815260200160008152602001600081525090565b600081359050610f358161177b565b92915050565b600081519050610f4a81611792565b92915050565b600081359050610f5f816117a9565b92915050565b600081519050610f74816117a9565b92915050565b600081359050610f89816117c0565b92915050565b600060208284031215610fa557610fa46116a9565b5b6000610fb384828501610f26565b91505092915050565b600080600080600080600060e0888a031215610fdb57610fda6116a9565b5b6000610fe98a828b01610f26565b9750506020610ffa8a828b01610f26565b965050604061100b8a828b01610f26565b955050606061101c8a828b01610f50565b945050608061102d8a828b01610f50565b93505060a061103e8a828b01610f50565b92505060c061104f8a828b01610f7a565b91505092959891949750929550565b60008060408385031215611075576110746116a9565b5b600061108385828601610f26565b925050602061109485828601610f50565b9150509250929050565b6000602082840312156110b4576110b36116a9565b5b60006110c284828501610f3b565b91505092915050565b6000602082840312156110e1576110e06116a9565b5b60006110ef84828501610f50565b91505092915050565b60006020828403121561110e5761110d6116a9565b5b600061111c84828501610f65565b91505092915050565b6000611131838361131f565b60208301905092915050565b611146816115f6565b82525050565b611155816115f6565b82525050565b600061116682611588565b61117081856115a0565b935061117b83611578565b8060005b838110156111ac5781516111938882611125565b975061119e83611593565b92505060018101905061117f565b5085935050505092915050565b60006111c66010836115b1565b91506111d1826116ae565b602082019050919050565b60006111e96010836115b1565b91506111f4826116d7565b602082019050919050565b600061120c600e836115b1565b915061121782611700565b602082019050919050565b600061122f6012836115b1565b915061123a82611729565b602082019050919050565b60006112526013836115b1565b915061125d82611752565b602082019050919050565b6101208201600082015161127f600085018261113d565b506020820151611292602085018261113d565b5060408201516112a5604085018261113d565b5060608201516112b8606085018261131f565b5060808201516112cb608085018261131f565b5060a08201516112de60a085018261131f565b5060c08201516112f160c085018261133d565b5060e082015161130460e085018261131f565b5061010082015161131961010085018261131f565b50505050565b61132881611634565b82525050565b61133781611634565b82525050565b6113468161163e565b82525050565b6113558161163e565b82525050565b6000602082019050611370600083018461114c565b92915050565b60006101208201905061138c600083018c61114c565b611399602083018b61114c565b6113a6604083018a61114c565b6113b3606083018961132e565b6113c0608083018861132e565b6113cd60a083018761132e565b6113da60c083018661134c565b6113e760e083018561132e565b6113f561010083018461132e565b9a9950505050505050505050565b6000604082019050611418600083018561114c565b611425602083018461132e565b9392505050565b60006020820190508181036000830152611446818461115b565b905092915050565b60006020820190508181036000830152611467816111b9565b9050919050565b60006020820190508181036000830152611487816111dc565b9050919050565b600060208201905081810360008301526114a7816111ff565b9050919050565b600060208201905081810360008301526114c781611222565b9050919050565b600060208201905081810360008301526114e781611245565b9050919050565b6000610120820190506115046000830184611268565b92915050565b600060208201905061151f600083018461132e565b92915050565b600060a08201905061153a600083018861132e565b611547602083018761132e565b611554604083018661132e565b611561606083018561132e565b61156e608083018461134c565b9695505050505050565b6000819050602082019050919050565b600081519050919050565b6000602082019050919050565b600082825260208201905092915050565b600082825260208201905092915050565b60006115cd82611634565b91506115d883611634565b9250828210156115eb576115ea61164b565b5b828203905092915050565b600061160182611614565b9050919050565b60008115159050919050565b600073ffffffffffffffffffffffffffffffffffffffff82169050919050565b6000819050919050565b600060ff82169050919050565b7f4e487b7100000000000000000000000000000000000000000000000000000000600052601160045260246000fd5b7f4e487b7100000000000000000000000000000000000000000000000000000000600052603260045260246000fd5b600080fd5b7f433a20637573746f6d6572206f6e6c7900000000000000000000000000000000600082015250565b7f433a20696e76616c6964206f7264657200000000000000000000000000000000600082015250565b7f433a206f6e6c792073656c6c6572000000000000000000000000000000000000600082015250565b7f463a20696e76616c696420616464726573730000000000000000000000000000600082015250565b7f463a206f6e6c79206f63686573747261746f7200000000000000000000000000600082015250565b611784816115f6565b811461178f57600080fd5b50565b61179b81611608565b81146117a657600080fd5b50565b6117b281611634565b81146117bd57600080fd5b50565b6117c98161163e565b81146117d457600080fd5b5056fea26469706673582212201b9e1daf62ac5b265e577173bd077d3cee90ec47ba9c21d7bc4f63f41d7a792964736f6c63430008060033608060405234801561001057600080fd5b506120c3806100206000396000f3fe608060405234801561001057600080fd5b50600436106100b0576000357c010000000000000000000000000000000000000000000000000000000090048063a85c38ef11610083578063a85c38ef14610163578063bd4b8a041461019b578063c45a0155146101b7578063dbe5bab5146101d5578063fdf61e68146101f3576100b0565b806312b58349146100b55780631971e03b146100d35780631e7cea80146101035780636282682a14610133575b600080fd5b6100bd610211565b6040516100ca9190611c55565b60405180910390f35b6100ed60048036038101906100e891906115e3565b610220565b6040516100fa9190611c55565b60405180910390f35b61011d6004803603810190610118919061165e565b610554565b60405161012a9190611c55565b60405180910390f35b61014d600480360381019061014891906115e3565b610585565b60405161015a9190611c55565b60405180910390f35b61017d60048036038101906101789190611742565b61064d565b60405161019299989796959493929190611a7d565b60405180910390f35b6101b560048036038101906101b09190611742565b610718565b005b6101bf6109db565b6040516101cc9190611984565b60405180910390f35b6101dd610a01565b6040516101ea9190611b33565b60405180910390f35b6101fb610ab9565b6040516102089190611c55565b60405180910390f35b600061021b610d0d565b905090565b60008061022b610e59565b73ffffffffffffffffffffffffffffffffffffffff166311eac8556040518163ffffffff167c010000000000000000000000000000000000000000000000000000000002815260040160206040518083038186803b15801561028c57600080fd5b505afa1580156102a0573d6000803e3d6000fd5b505050506040513d601f19601f820116820180604052508101906102c491906115b6565b9050600073ffffffffffffffffffffffffffffffffffffffff168773ffffffffffffffffffffffffffffffffffffffff161415610336576040517f08c379a000000000000000000000000000000000000000000000000000000000815260040161032d90611bd5565b60405180910390fd5b600073ffffffffffffffffffffffffffffffffffffffff168173ffffffffffffffffffffffffffffffffffffffff1614156103a6576040517f08c379a000000000000000000000000000000000000000000000000000000000815260040161039d90611c35565b60405180910390fd5b848173ffffffffffffffffffffffffffffffffffffffff166370a08231896040518263ffffffff167c01000000000000000000000000000000000000000000000000000000000281526004016103fc9190611984565b60206040518083038186803b15801561041457600080fd5b505afa158015610428573d6000803e3d6000fd5b505050506040513d601f19601f8201168201806040525081019061044c919061176f565b101561048d576040517f08c379a000000000000000000000000000000000000000000000000000000000815260040161048490611b95565b60405180910390fd5b610495610e59565b73ffffffffffffffffffffffffffffffffffffffff1663b1fab21c88308989898960006040518863ffffffff167c01000000000000000000000000000000000000000000000000000000000281526004016104f6979695949392919061199f565b602060405180830381600087803b15801561051057600080fd5b505af1158015610524573d6000803e3d6000fd5b505050506040513d601f19601f82011682018060405250810190610548919061176f565b91505095945050505050565b6001602052816000526040600020818154811061057057600080fd5b90600052602060002001600091509150505481565b600061058f610e59565b73ffffffffffffffffffffffffffffffffffffffff1663b1fab21c30888888888860016040518863ffffffff167c01000000000000000000000000000000000000000000000000000000000281526004016105f09796959493929190611a0e565b602060405180830381600087803b15801561060a57600080fd5b505af115801561061e573d6000803e3d6000fd5b505050506040513d601f19601f82011682018060405250810190610642919061176f565b905095945050505050565b6000818154811061065d57600080fd5b90600052602060002090600902016000915090508060000160009054906101000a900473ffffffffffffffffffffffffffffffffffffffff16908060010160009054906101000a900473ffffffffffffffffffffffffffffffffffffffff16908060020160009054906101000a900473ffffffffffffffffffffffffffffffffffffffff16908060030154908060040154908060050154908060060160009054906101000a900460ff16908060070154908060080154905089565b60003073ffffffffffffffffffffffffffffffffffffffff1663dbe5bab56040518163ffffffff167c010000000000000000000000000000000000000000000000000000000002815260040160006040518083038186803b15801561077c57600080fd5b505afa158015610790573d6000803e3d6000fd5b505050506040513d6000823e3d601f19601f820116820180604052508101906107b9919061169e565b905060006107c5610e59565b73ffffffffffffffffffffffffffffffffffffffff166342b50a7a8385815181106107f3576107f2611e61565b5b60200260200101516040518263ffffffff167c01000000000000000000000000000000000000000000000000000000000281526004016108339190611c55565b6101206040518083038186803b15801561084c57600080fd5b505afa158015610860573d6000803e3d6000fd5b505050506040513d601f19601f820116820180604052508101906108849190611714565b90503073ffffffffffffffffffffffffffffffffffffffff16816000015173ffffffffffffffffffffffffffffffffffffffff16146108f8576040517f08c379a00000000000000000000000000000000000000000000000000000000081526004016108ef90611b55565b60405180910390fd5b610900610e59565b73ffffffffffffffffffffffffffffffffffffffff1663b00f215c30856040518363ffffffff167c0100000000000000000000000000000000000000000000000000000000028152600401610956929190611b0a565b600060405180830381600087803b15801561097057600080fd5b505af1158015610984573d6000803e3d6000fd5b5050505061099f816040015182606001518360a00151610f1c565b7fd276fbc5e545783825cac5416bad154c47e39daebf44589255a65b4f56cf3e0e836040516109ce9190611c55565b60405180910390a1505050565b600260009054906101000a900473ffffffffffffffffffffffffffffffffffffffff1681565b6060610a0b610e59565b73ffffffffffffffffffffffffffffffffffffffff16636dee2032306040518263ffffffff167c0100000000000000000000000000000000000000000000000000000000028152600401610a5f9190611984565b60006040518083038186803b158015610a7757600080fd5b505afa158015610a8b573d6000803e3d6000fd5b505050506040513d6000823e3d601f19601f82011682018060405250810190610ab4919061169e565b905090565b6000803073ffffffffffffffffffffffffffffffffffffffff1663dbe5bab56040518163ffffffff167c010000000000000000000000000000000000000000000000000000000002815260040160006040518083038186803b158015610b1e57600080fd5b505afa158015610b32573d6000803e3d6000fd5b505050506040513d6000823e3d601f19601f82011682018060405250810190610b5b919061169e565b905060003073ffffffffffffffffffffffffffffffffffffffff166312b583496040518163ffffffff167c010000000000000000000000000000000000000000000000000000000002815260040160206040518083038186803b158015610bc157600080fd5b505afa158015610bd5573d6000803e3d6000fd5b505050506040513d601f19601f82011682018060405250810190610bf9919061176f565b905060005b60018351610c0c9190611d0b565b811015610d04576000610c1d610e59565b73ffffffffffffffffffffffffffffffffffffffff166342b50a7a858481518110610c4b57610c4a611e61565b5b60200260200101516040518263ffffffff167c0100000000000000000000000000000000000000000000000000000000028152600401610c8b9190611c55565b6101206040518083038186803b158015610ca457600080fd5b505afa158015610cb8573d6000803e3d6000fd5b505050506040513d601f19601f82011682018060405250810190610cdc9190611714565b9050806060015183610cee9190611d0b565b9250508080610cfc90611de9565b915050610bfe565b50809250505090565b6000610d17610e59565b73ffffffffffffffffffffffffffffffffffffffff166311eac8556040518163ffffffff167c010000000000000000000000000000000000000000000000000000000002815260040160206040518083038186803b158015610d7857600080fd5b505afa158015610d8c573d6000803e3d6000fd5b505050506040513d601f19601f82011682018060405250810190610db091906115b6565b73ffffffffffffffffffffffffffffffffffffffff166370a08231336040518263ffffffff167c0100000000000000000000000000000000000000000000000000000000028152600401610e049190611984565b60206040518083038186803b158015610e1c57600080fd5b505afa158015610e30573d6000803e3d6000fd5b505050506040513d601f19601f82011682018060405250810190610e54919061176f565b905090565b6000600260009054906101000a900473ffffffffffffffffffffffffffffffffffffffff1673ffffffffffffffffffffffffffffffffffffffff1663d226ae086040518163ffffffff167c010000000000000000000000000000000000000000000000000000000002815260040160206040518083038186803b158015610edf57600080fd5b505afa158015610ef3573d6000803e3d6000fd5b505050506040513d601f19601f82011682018060405250810190610f1791906115b6565b905090565b3073ffffffffffffffffffffffffffffffffffffffff168373ffffffffffffffffffffffffffffffffffffffff161415610f8b576040517f08c379a0000000000000000000000000000000000000000000000000000000008152600401610f8290611bf5565b60405180910390fd5b600073ffffffffffffffffffffffffffffffffffffffff168373ffffffffffffffffffffffffffffffffffffffff161415610ffb576040517f08c379a0000000000000000000000000000000000000000000000000000000008152600401610ff290611b75565b60405180910390fd5b6000821161103e576040517f08c379a000000000000000000000000000000000000000000000000000000000815260040161103590611c15565b60405180910390fd5b813073ffffffffffffffffffffffffffffffffffffffff1663fdf61e686040518163ffffffff167c010000000000000000000000000000000000000000000000000000000002815260040160206040518083038186803b1580156110a157600080fd5b505afa1580156110b5573d6000803e3d6000fd5b505050506040513d601f19601f820116820180604052508101906110d9919061176f565b101561111a576040517f08c379a000000000000000000000000000000000000000000000000000000000815260040161111190611bb5565b60405180910390fd5b611122610e59565b73ffffffffffffffffffffffffffffffffffffffff166311eac8556040518163ffffffff167c010000000000000000000000000000000000000000000000000000000002815260040160206040518083038186803b15801561118357600080fd5b505afa158015611197573d6000803e3d6000fd5b505050506040513d601f19601f820116820180604052508101906111bb91906115b6565b73ffffffffffffffffffffffffffffffffffffffff1663a9059cbb84846040518363ffffffff167c0100000000000000000000000000000000000000000000000000000000028152600401611211929190611b0a565b602060405180830381600087803b15801561122b57600080fd5b505af115801561123f573d6000803e3d6000fd5b505050506040513d601f19601f8201168201806040525081019061126391906116e7565b5061126c610e59565b73ffffffffffffffffffffffffffffffffffffffff166311eac8556040518163ffffffff167c010000000000000000000000000000000000000000000000000000000002815260040160206040518083038186803b1580156112cd57600080fd5b505afa1580156112e1573d6000803e3d6000fd5b505050506040513d601f19601f8201168201806040525081019061130591906115b6565b73ffffffffffffffffffffffffffffffffffffffff1663a9059cbb611328610e59565b836040518363ffffffff167c0100000000000000000000000000000000000000000000000000000000028152600401611362929190611b0a565b602060405180830381600087803b15801561137c57600080fd5b505af1158015611390573d6000803e3d6000fd5b505050506040513d601f19601f820116820180604052508101906113b491906116e7565b50505050565b60006113cd6113c884611c95565b611c70565b905080838252602082019050828560208602820111156113f0576113ef611ec9565b5b60005b858110156114205781611406888261158c565b8452602084019350602083019250506001810190506113f3565b5050509392505050565b60008135905061143981612031565b92915050565b60008151905061144e81612031565b92915050565b600082601f83011261146957611468611ebf565b5b81516114798482602086016113ba565b91505092915050565b60008151905061149181612048565b92915050565b600061012082840312156114ae576114ad611ec4565b5b6114b9610120611c70565b905060006114c98482850161143f565b60008301525060206114dd8482850161143f565b60208301525060406114f18482850161143f565b60408301525060606115058482850161158c565b60608301525060806115198482850161158c565b60808301525060a061152d8482850161158c565b60a08301525060c0611541848285016115a1565b60c08301525060e06115558482850161158c565b60e08301525061010061156a8482850161158c565b6101008301525092915050565b6000813590506115868161205f565b92915050565b60008151905061159b8161205f565b92915050565b6000815190506115b081612076565b92915050565b6000602082840312156115cc576115cb611ed3565b5b60006115da8482850161143f565b91505092915050565b600080600080600060a086880312156115ff576115fe611ed3565b5b600061160d8882890161142a565b955050602061161e8882890161142a565b945050604061162f88828901611577565b935050606061164088828901611577565b925050608061165188828901611577565b9150509295509295909350565b6000806040838503121561167557611674611ed3565b5b60006116838582860161142a565b925050602061169485828601611577565b9150509250929050565b6000602082840312156116b4576116b3611ed3565b5b600082015167ffffffffffffffff8111156116d2576116d1611ece565b5b6116de84828501611454565b91505092915050565b6000602082840312156116fd576116fc611ed3565b5b600061170b84828501611482565b91505092915050565b6000610120828403121561172b5761172a611ed3565b5b600061173984828501611497565b91505092915050565b60006020828403121561175857611757611ed3565b5b600061176684828501611577565b91505092915050565b60006020828403121561178557611784611ed3565b5b60006117938482850161158c565b91505092915050565b60006117a88383611957565b60208301905092915050565b6117bd81611d3f565b82525050565b60006117ce82611cd1565b6117d88185611ce9565b93506117e383611cc1565b8060005b838110156118145781516117fb888261179c565b975061180683611cdc565b9250506001810190506117e7565b5085935050505092915050565b61182a81611d94565b82525050565b61183981611da6565b82525050565b600061184c601283611cfa565b915061185782611ee9565b602082019050919050565b600061186f601783611cfa565b915061187a82611f12565b602082019050919050565b6000611892601183611cfa565b915061189d82611f3b565b602082019050919050565b60006118b5601783611cfa565b91506118c082611f64565b602082019050919050565b60006118d8601383611cfa565b91506118e382611f8d565b602082019050919050565b60006118fb601383611cfa565b915061190682611fb6565b602082019050919050565b600061191e601a83611cfa565b915061192982611fdf565b602082019050919050565b6000611941601783611cfa565b915061194c82612008565b602082019050919050565b61196081611d7d565b82525050565b61196f81611d7d565b82525050565b61197e81611d87565b82525050565b600060208201905061199960008301846117b4565b92915050565b600060e0820190506119b4600083018a6117b4565b6119c160208301896117b4565b6119ce60408301886117b4565b6119db6060830187611966565b6119e86080830186611966565b6119f560a0830185611966565b611a0260c0830184611821565b98975050505050505050565b600060e082019050611a23600083018a6117b4565b611a3060208301896117b4565b611a3d60408301886117b4565b611a4a6060830187611966565b611a576080830186611966565b611a6460a0830185611966565b611a7160c0830184611830565b98975050505050505050565b600061012082019050611a93600083018c6117b4565b611aa0602083018b6117b4565b611aad604083018a6117b4565b611aba6060830189611966565b611ac76080830188611966565b611ad460a0830187611966565b611ae160c0830186611975565b611aee60e0830185611966565b611afc610100830184611966565b9a9950505050505050505050565b6000604082019050611b1f60008301856117b4565b611b2c6020830184611966565b9392505050565b60006020820190508181036000830152611b4d81846117c3565b905092915050565b60006020820190508181036000830152611b6e8161183f565b9050919050565b60006020820190508181036000830152611b8e81611862565b9050919050565b60006020820190508181036000830152611bae81611885565b9050919050565b60006020820190508181036000830152611bce816118a8565b9050919050565b60006020820190508181036000830152611bee816118cb565b9050919050565b60006020820190508181036000830152611c0e816118ee565b9050919050565b60006020820190508181036000830152611c2e81611911565b9050919050565b60006020820190508181036000830152611c4e81611934565b9050919050565b6000602082019050611c6a6000830184611966565b92915050565b6000611c7a611c8b565b9050611c868282611db8565b919050565b6000604051905090565b600067ffffffffffffffff821115611cb057611caf611e90565b5b602082029050602081019050919050565b6000819050602082019050919050565b600081519050919050565b6000602082019050919050565b600082825260208201905092915050565b600082825260208201905092915050565b6000611d1682611d7d565b9150611d2183611d7d565b925082821015611d3457611d33611e32565b5b828203905092915050565b6000611d4a82611d5d565b9050919050565b60008115159050919050565b600073ffffffffffffffffffffffffffffffffffffffff82169050919050565b6000819050919050565b600060ff82169050919050565b6000611d9f82611d87565b9050919050565b6000611db182611d87565b9050919050565b611dc182611ed8565b810181811067ffffffffffffffff82111715611de057611ddf611e90565b5b80604052505050565b6000611df482611d7d565b91507fffffffffffffffffffffffffffffffffffffffffffffffffffffffffffffffff821415611e2757611e26611e32565b5b600182019050919050565b7f4e487b7100000000000000000000000000000000000000000000000000000000600052601160045260246000fd5b7f4e487b7100000000000000000000000000000000000000000000000000000000600052603260045260246000fd5b7f4e487b7100000000000000000000000000000000000000000000000000000000600052604160045260246000fd5b600080fd5b600080fd5b600080fd5b600080fd5b600080fd5b6000601f19601f8301169050919050565b7f43574c3a20696e76616c6964206f726465720000000000000000000000000000600082015250565b7f43574c3a20696e76616c696420746f2061646472657373000000000000000000600082015250565b7f433a206e6f7420656e6f75676820555344000000000000000000000000000000600082015250565b7f43574c3a20696e73756666696369656e742066756e6473000000000000000000600082015250565b7f43574c3a2073656c6c6572206e6f742073657400000000000000000000000000600082015250565b7f43574c3a2073656c6620666f7262696464656e00000000000000000000000000600082015250565b7f43574c3a20616d6f756e742063616e6e6f7420657175616c2030000000000000600082015250565b7f43574c3a207573646320746f6b656e206e6f7420736574000000000000000000600082015250565b61203a81611d3f565b811461204557600080fd5b50565b61205181611d51565b811461205c57600080fd5b50565b61206881611d7d565b811461207357600080fd5b50565b61207f81611d87565b811461208a57600080fd5b5056fea26469706673582212202ceac719226295f7909e536f8b6663b4aa89d49e38f2609ecf71a2758edff21964736f6c63430008060033",
  "immutableReferences": {},
  "source": "// SPDX-License-Identifier: MIT\npragma solidity ^0.8.0;\n\nimport \"./CustodianWalletLogic.sol\";\nimport \"./CustodianWalletProxy.sol\";\nimport \"./Escrow.sol\";\n\n/**\n * @dev Factotory responsible for deploying Escrow, Custodian Wallet Logic and\n * managed CustodianWalletProxy for both Vendor and Customer.\n *\n * Note Controlled by deployer account.\n */\ncontract Factory {\n  ////////////////////////////////////////\n  //                                    //\n  //         STATE VARIABLES            //\n  //                                    //\n  ////////////////////////////////////////\n\n  /// @notice EOA of deployer wallet\n  address public ochestrator;\n\n  /// @notice the address of the Custodian Wallet Logic\n  address public custodianWalletLogic;\n\n  address public escrowContractAddress;\n\n  /// @notice mapping of account unique id to custodian wallet\n  /// Note avoid passing predictable number such as incremental number. Use UUID string instead\n  mapping(string => address) public accounts;\n\n  event NewCustodian(string uniqueId, address indexed account);\n\n  ////////////////////////////////////////\n  //                                    //\n  //              FUNCTIONS             //\n  //                                    //\n  ////////////////////////////////////////\n  modifier onlyOchesrator() {\n    require(msg.sender == ochestrator, \"F: only ochestrator\");\n    _;\n  }\n\n  constructor() {\n    ochestrator = msg.sender;\n    escrowContractAddress = address(new Escrow(msg.sender));\n    custodianWalletLogic = address(new CustodianWalletLogic());\n  }\n\n  /**\n   * @dev create a new custodian wallet\n   * @param uuid is the unique id of the custodian wallet\n   */\n  function newCustodian(string memory uuid)\n    public\n    onlyOchesrator\n    returns (string memory, address)\n  {\n    require(accounts[uuid] == address(0x0), \"F: account exist\");\n\n    address wallet = address(\n      new CustodianWalletProxy(custodianWalletLogic, ochestrator, address(this))\n    );\n    accounts[uuid] = wallet;\n\n    emit NewCustodian(uuid, wallet);\n\n    return (uuid, wallet);\n  }\n}\n",
  "sourcePath": "/Users/drewhyte/Sites/SOLIDITY/piggyfi-contract-avax-poc/contracts/Factory.sol",
  "compiler": {
    "name": "solc",
    "version": "0.8.6+commit.11564f7e.Emscripten.clang"
  },
  "schemaVersion": "3.4.6",
  "updatedAt": "2022-05-02T11:56:08.148Z",
  "networkType": "ethereum",
  "devdoc": {
    "details": "Factotory responsible for deploying Escrow, Custodian Wallet Logic and managed CustodianWalletProxy for both Vendor and Customer. Note Controlled by deployer account.",
    "kind": "dev",
    "methods": {
      "newCustodian(string)": {
        "details": "create a new custodian wallet",
        "params": {
          "uuid": "is the unique id of the custodian wallet"
        }
      }
    },
    "version": 1
  },
  "userdoc": {
    "kind": "user",
    "methods": {
      "accounts(string)": {
        "notice": "mapping of account unique id to custodian wallet Note avoid passing predictable number such as incremental number. Use UUID string instead"
      },
      "custodianWalletLogic()": {
        "notice": "the address of the Custodian Wallet Logic"
      },
      "ochestrator()": {
        "notice": "EOA of deployer wallet"
      }
    },
    "version": 1
  }
}