{
  "contractName": "Types",
  "abi": [
    {
      "anonymous": false,
      "inputs": [
        {
          "indexed": false,
          "internalType": "uint256",
          "name": "orderId",
          "type": "uint256"
        }
      ],
      "name": "ClosedOrder",
      "type": "event"
    },
    {
      "anonymous": false,
      "inputs": [
        {
          "indexed": false,
          "internalType": "uint256",
          "name": "orderId",
          "type": "uint256"
        },
        {
          "indexed": true,
          "internalType": "address",
          "name": "seller",
          "type": "address"
        },
        {
          "indexed": true,
          "internalType": "address",
          "name": "buyer",
          "type": "address"
        },
        {
          "indexed": true,
          "internalType": "address",
          "name": "receiver",
          "type": "address"
        },
        {
          "indexed": false,
          "internalType": "uint256",
          "name": "amount",
          "type": "uint256"
        },
        {
          "indexed": false,
          "internalType": "uint256",
          "name": "rate",
          "type": "uint256"
        },
        {
          "indexed": false,
          "internalType": "uint256",
          "name": "fee",
          "type": "uint256"
        },
        {
          "indexed": false,
          "internalType": "uint8",
          "name": "orderType",
          "type": "uint8"
        }
      ],
      "name": "OpenOrder",
      "type": "event"
    },
    {
      "anonymous": false,
      "inputs": [
        {
          "indexed": false,
          "internalType": "uint256",
          "name": "orderId",
          "type": "uint256"
        }
      ],
      "name": "OrderFulfilled",
      "type": "event"
    },
    {
      "inputs": [
        {
          "internalType": "address",
          "name": "",
          "type": "address"
        },
        {
          "internalType": "uint256",
          "name": "",
          "type": "uint256"
        }
      ],
      "name": "openOrders",
      "outputs": [
        {
          "internalType": "uint256",
          "name": "",
          "type": "uint256"
        }
      ],
      "stateMutability": "view",
      "type": "function"
    },
    {
      "inputs": [
        {
          "internalType": "uint256",
          "name": "",
          "type": "uint256"
        }
      ],
      "name": "orders",
      "outputs": [
        {
          "internalType": "address",
          "name": "seller",
          "type": "address"
        },
        {
          "internalType": "address",
          "name": "buyer",
          "type": "address"
        },
        {
          "internalType": "address",
          "name": "receiver",
          "type": "address"
        },
        {
          "internalType": "uint256",
          "name": "amount",
          "type": "uint256"
        },
        {
          "internalType": "uint256",
          "name": "rate",
          "type": "uint256"
        },
        {
          "internalType": "uint256",
          "name": "fee",
          "type": "uint256"
        },
        {
          "internalType": "uint8",
          "name": "orderType",
          "type": "uint8"
        },
        {
          "internalType": "uint256",
          "name": "startTime",
          "type": "uint256"
        },
        {
          "internalType": "uint256",
          "name": "fulfiledTime",
          "type": "uint256"
        }
      ],
      "stateMutability": "view",
      "type": "function"
    }
  ],
  "bytecode": "0x608060405234801561001057600080fd5b506103da806100206000396000f3fe608060405234801561001057600080fd5b5060043610610053576000357c0100000000000000000000000000000000000000000000000000000000900480631e7cea8014610058578063a85c38ef14610088575b600080fd5b610072600480360381019061006d91906101e6565b6100c0565b60405161007f919061030d565b60405180910390f35b6100a2600480360381019061009d9190610226565b6100f1565b6040516100b799989796959493929190610280565b60405180910390f35b600160205281600052604060002081815481106100dc57600080fd5b90600052602060002001600091509150505481565b6000818154811061010157600080fd5b90600052602060002090600902016000915090508060000160009054906101000a900473ffffffffffffffffffffffffffffffffffffffff16908060010160009054906101000a900473ffffffffffffffffffffffffffffffffffffffff16908060020160009054906101000a900473ffffffffffffffffffffffffffffffffffffffff16908060030154908060040154908060050154908060060160009054906101000a900460ff16908060070154908060080154905089565b6000813590506101cb81610376565b92915050565b6000813590506101e08161038d565b92915050565b600080604083850312156101fd576101fc610371565b5b600061020b858286016101bc565b925050602061021c858286016101d1565b9150509250929050565b60006020828403121561023c5761023b610371565b5b600061024a848285016101d1565b91505092915050565b61025c81610328565b82525050565b61026b8161035a565b82525050565b61027a81610364565b82525050565b600061012082019050610296600083018c610253565b6102a3602083018b610253565b6102b0604083018a610253565b6102bd6060830189610262565b6102ca6080830188610262565b6102d760a0830187610262565b6102e460c0830186610271565b6102f160e0830185610262565b6102ff610100830184610262565b9a9950505050505050505050565b60006020820190506103226000830184610262565b92915050565b60006103338261033a565b9050919050565b600073ffffffffffffffffffffffffffffffffffffffff82169050919050565b6000819050919050565b600060ff82169050919050565b600080fd5b61037f81610328565b811461038a57600080fd5b50565b6103968161035a565b81146103a157600080fd5b5056fea2646970667358221220dc2d75a38f257b0244d8fd379fdf7861fa55b67e2334eb74f8672a9e6da71d0264736f6c63430008060033",
  "immutableReferences": {},
  "source": "// SPDX-License-Identifier: MIT\npragma solidity ^0.8.0;\n\ncontract Types {\n  /// @notice structure of an order\n  struct Order {\n    address seller;\n    address buyer;\n    address receiver;\n    uint256 amount;\n    uint256 rate;\n    uint256 fee;\n    uint8 orderType;\n    uint256 startTime;\n    uint256 fulfiledTime;\n  }\n\n  Order[] public orders;\n\n  mapping(address => uint256[]) public openOrders;\n\n  /// @notice 0 = BUY, 1 = SELL\n  enum OrderType {\n    BUY,\n    SELL\n  }\n\n  ////////////////////////////////////////\n  //                                    //\n  //              EVENTS                //\n  //                                    //\n  ////////////////////////////////////////\n\n  event OpenOrder(\n    uint256 orderId,\n    address indexed seller,\n    address indexed buyer,\n    address indexed receiver,\n    uint256 amount,\n    uint256 rate,\n    uint256 fee,\n    uint8 orderType\n  );\n\n  event OrderFulfilled(uint256 orderId);\n\n  event ClosedOrder(uint256 orderId);\n}\n",
  "sourcePath": "/Users/drewhyte/Sites/SOLIDITY/piggyfi-contract-avax-poc/contracts/Types.sol",
  "compiler": {
    "name": "solc",
    "version": "0.8.6+commit.11564f7e.Emscripten.clang"
  },
  "schemaVersion": "3.4.6",
  "updatedAt": "2022-05-02T11:17:08.794Z",
  "devdoc": {
    "kind": "dev",
    "methods": {},
    "version": 1
  },
  "userdoc": {
    "kind": "user",
    "methods": {},
    "version": 1
  }
}